{
	"contract-45ea2eace7.sol": {
		"Voting": {
			"abi": [
				{
					"inputs": [
						{
							"internalType": "address",
							"name": "_votingToken",
							"type": "address"
						},
						{
							"internalType": "address",
							"name": "initialOwner",
							"type": "address"
						}
					],
					"stateMutability": "nonpayable",
					"type": "constructor"
				},
				{
					"inputs": [
						{
							"internalType": "address",
							"name": "owner",
							"type": "address"
						}
					],
					"name": "OwnableInvalidOwner",
					"type": "error"
				},
				{
					"inputs": [
						{
							"internalType": "address",
							"name": "account",
							"type": "address"
						}
					],
					"name": "OwnableUnauthorizedAccount",
					"type": "error"
				},
				{
					"anonymous": false,
					"inputs": [
						{
							"indexed": true,
							"internalType": "address",
							"name": "previousOwner",
							"type": "address"
						},
						{
							"indexed": true,
							"internalType": "address",
							"name": "newOwner",
							"type": "address"
						}
					],
					"name": "OwnershipTransferred",
					"type": "event"
				},
				{
					"anonymous": false,
					"inputs": [
						{
							"indexed": true,
							"internalType": "uint256",
							"name": "candidateId",
							"type": "uint256"
						},
						{
							"indexed": true,
							"internalType": "address",
							"name": "voter",
							"type": "address"
						}
					],
					"name": "Voted",
					"type": "event"
				},
				{
					"inputs": [
						{
							"internalType": "string",
							"name": "_name",
							"type": "string"
						}
					],
					"name": "addCandidate",
					"outputs": [],
					"stateMutability": "nonpayable",
					"type": "function"
				},
				{
					"inputs": [
						{
							"internalType": "uint256",
							"name": "",
							"type": "uint256"
						}
					],
					"name": "candidates",
					"outputs": [
						{
							"internalType": "uint256",
							"name": "id",
							"type": "uint256"
						},
						{
							"internalType": "string",
							"name": "name",
							"type": "string"
						},
						{
							"internalType": "uint256",
							"name": "voteCount",
							"type": "uint256"
						}
					],
					"stateMutability": "view",
					"type": "function"
				},
				{
					"inputs": [],
					"name": "candidatesCount",
					"outputs": [
						{
							"internalType": "uint256",
							"name": "",
							"type": "uint256"
						}
					],
					"stateMutability": "view",
					"type": "function"
				},
				{
					"inputs": [
						{
							"internalType": "uint256",
							"name": "_candidateId",
							"type": "uint256"
						}
					],
					"name": "getCandidate",
					"outputs": [
						{
							"internalType": "uint256",
							"name": "id",
							"type": "uint256"
						},
						{
							"internalType": "string",
							"name": "name",
							"type": "string"
						},
						{
							"internalType": "uint256",
							"name": "voteCount",
							"type": "uint256"
						}
					],
					"stateMutability": "view",
					"type": "function"
				},
				{
					"inputs": [],
					"name": "owner",
					"outputs": [
						{
							"internalType": "address",
							"name": "",
							"type": "address"
						}
					],
					"stateMutability": "view",
					"type": "function"
				},
				{
					"inputs": [],
					"name": "renounceOwnership",
					"outputs": [],
					"stateMutability": "nonpayable",
					"type": "function"
				},
				{
					"inputs": [
						{
							"internalType": "address",
							"name": "newOwner",
							"type": "address"
						}
					],
					"name": "transferOwnership",
					"outputs": [],
					"stateMutability": "nonpayable",
					"type": "function"
				},
				{
					"inputs": [
						{
							"internalType": "uint256",
							"name": "_candidateId",
							"type": "uint256"
						}
					],
					"name": "vote",
					"outputs": [],
					"stateMutability": "nonpayable",
					"type": "function"
				},
				{
					"inputs": [
						{
							"internalType": "address",
							"name": "",
							"type": "address"
						}
					],
					"name": "voters",
					"outputs": [
						{
							"internalType": "bool",
							"name": "",
							"type": "bool"
						}
					],
					"stateMutability": "view",
					"type": "function"
				},
				{
					"inputs": [],
					"name": "votingToken",
					"outputs": [
						{
							"internalType": "contract VotingToken",
							"name": "",
							"type": "address"
						}
					],
					"stateMutability": "view",
					"type": "function"
				},
				{
					"inputs": [
						{
							"internalType": "uint256",
							"name": "amount",
							"type": "uint256"
						}
					],
					"name": "withdrawTokens",
					"outputs": [],
					"stateMutability": "nonpayable",
					"type": "function"
				}
			],
			"devdoc": {
				"errors": {
					"OwnableInvalidOwner(address)": [
						{
							"details": "The owner is not a valid owner account. (eg. `address(0)`)"
						}
					],
					"OwnableUnauthorizedAccount(address)": [
						{
							"details": "The caller account is not authorized to perform an operation."
						}
					]
				},
				"kind": "dev",
				"methods": {
					"owner()": {
						"details": "Returns the address of the current owner."
					},
					"renounceOwnership()": {
						"details": "Leaves the contract without owner. It will not be possible to call `onlyOwner` functions. Can only be called by the current owner. NOTE: Renouncing ownership will leave the contract without an owner, thereby disabling any functionality that is only available to the owner."
					},
					"transferOwnership(address)": {
						"details": "Transfers ownership of the contract to a new account (`newOwner`). Can only be called by the current owner."
					}
				},
				"version": 1
			},
			"evm": {
				"assembly": "    /* \"contract-45ea2eace7.sol\":1210:3477  contract Voting is Ownable {... */\n  mstore(0x40, 0x80)\n    /* \"contract-45ea2eace7.sol\":1581:1791  constructor(address _votingToken, address initialOwner) Ownable(initialOwner) {... */\n  callvalue\n  dup1\n  iszero\n  tag_1\n  jumpi\n  revert(0x00, 0x00)\ntag_1:\n  pop\n  mload(0x40)\n  sub(codesize, bytecodeSize)\n  dup1\n  bytecodeSize\n  dup4\n  codecopy\n  dup2\n  dup2\n  add\n  0x40\n  mstore\n  dup2\n  add\n  swap1\n  tag_2\n  swap2\n  swap1\n  tag_3\n  jump\t// in\ntag_2:\n    /* \"contract-45ea2eace7.sol\":1645:1657  initialOwner */\n  dup1\n    /* \"@openzeppelin/contracts@5.4.0/access/Ownable.sol\":1297:1298  0 */\n  0x00\n    /* \"@openzeppelin/contracts@5.4.0/access/Ownable.sol\":1273:1299  initialOwner == address(0) */\n  0xffffffffffffffffffffffffffffffffffffffff\n  and\n    /* \"@openzeppelin/contracts@5.4.0/access/Ownable.sol\":1273:1285  initialOwner */\n  dup2\n    /* \"@openzeppelin/contracts@5.4.0/access/Ownable.sol\":1273:1299  initialOwner == address(0) */\n  0xffffffffffffffffffffffffffffffffffffffff\n  and\n  sub\n    /* \"@openzeppelin/contracts@5.4.0/access/Ownable.sol\":1269:1364  if (initialOwner == address(0)) {... */\n  tag_7\n  jumpi\n    /* \"@openzeppelin/contracts@5.4.0/access/Ownable.sol\":1350:1351  0 */\n  0x00\n    /* \"@openzeppelin/contracts@5.4.0/access/Ownable.sol\":1322:1353  OwnableInvalidOwner(address(0)) */\n  mload(0x40)\n  0x1e4fbdf700000000000000000000000000000000000000000000000000000000\n  dup2\n  mstore\n  0x04\n  add\n  tag_8\n  swap2\n  swap1\n  tag_9\n  jump\t// in\ntag_8:\n  mload(0x40)\n  dup1\n  swap2\n  sub\n  swap1\n  revert\n    /* \"@openzeppelin/contracts@5.4.0/access/Ownable.sol\":1269:1364  if (initialOwner == address(0)) {... */\ntag_7:\n    /* \"@openzeppelin/contracts@5.4.0/access/Ownable.sol\":1373:1405  _transferOwnership(initialOwner) */\n  tag_10\n    /* \"@openzeppelin/contracts@5.4.0/access/Ownable.sol\":1392:1404  initialOwner */\n  dup2\n    /* \"@openzeppelin/contracts@5.4.0/access/Ownable.sol\":1373:1391  _transferOwnership */\n  shl(0x20, tag_11)\n    /* \"@openzeppelin/contracts@5.4.0/access/Ownable.sol\":1373:1405  _transferOwnership(initialOwner) */\n  0x20\n  shr\n  jump\t// in\ntag_10:\n    /* \"@openzeppelin/contracts@5.4.0/access/Ownable.sol\":1225:1412  constructor(address initialOwner) {... */\n  pop\n    /* \"contract-45ea2eace7.sol\":1695:1707  _votingToken */\n  dup2\n    /* \"contract-45ea2eace7.sol\":1669:1680  votingToken */\n  0x01\n  0x00\n    /* \"contract-45ea2eace7.sol\":1669:1708  votingToken = VotingToken(_votingToken) */\n  0x0100\n  exp\n  dup2\n  sload\n  dup2\n  0xffffffffffffffffffffffffffffffffffffffff\n  mul\n  not\n  and\n  swap1\n  dup4\n  0xffffffffffffffffffffffffffffffffffffffff\n  and\n  mul\n  or\n  swap1\n  sstore\n  pop\n    /* \"contract-45ea2eace7.sol\":1718:1746  _addCandidate(\"Candidate 1\") */\n  tag_13\n  mload(0x40)\n  dup1\n  0x40\n  add\n  0x40\n  mstore\n  dup1\n  0x0b\n  dup2\n  mstore\n  0x20\n  add\n  0x43616e6469646174652031000000000000000000000000000000000000000000\n  dup2\n  mstore\n  pop\n    /* \"contract-45ea2eace7.sol\":1718:1731  _addCandidate */\n  shl(0x20, tag_14)\n    /* \"contract-45ea2eace7.sol\":1718:1746  _addCandidate(\"Candidate 1\") */\n  0x20\n  shr\n  jump\t// in\ntag_13:\n    /* \"contract-45ea2eace7.sol\":1756:1784  _addCandidate(\"Candidate 2\") */\n  tag_15\n  mload(0x40)\n  dup1\n  0x40\n  add\n  0x40\n  mstore\n  dup1\n  0x0b\n  dup2\n  mstore\n  0x20\n  add\n  0x43616e6469646174652032000000000000000000000000000000000000000000\n  dup2\n  mstore\n  pop\n    /* \"contract-45ea2eace7.sol\":1756:1769  _addCandidate */\n  shl(0x20, tag_14)\n    /* \"contract-45ea2eace7.sol\":1756:1784  _addCandidate(\"Candidate 2\") */\n  0x20\n  shr\n  jump\t// in\ntag_15:\n    /* \"contract-45ea2eace7.sol\":1581:1791  constructor(address _votingToken, address initialOwner) Ownable(initialOwner) {... */\n  pop\n  pop\n    /* \"contract-45ea2eace7.sol\":1210:3477  contract Voting is Ownable {... */\n  jump(tag_16)\n    /* \"@openzeppelin/contracts@5.4.0/access/Ownable.sol\":2912:3099  function _transferOwnership(address newOwner) internal virtual {... */\ntag_11:\n    /* \"@openzeppelin/contracts@5.4.0/access/Ownable.sol\":2985:3001  address oldOwner */\n  0x00\n    /* \"@openzeppelin/contracts@5.4.0/access/Ownable.sol\":3004:3010  _owner */\n  0x00\n  0x00\n  swap1\n  sload\n  swap1\n  0x0100\n  exp\n  swap1\n  div\n  0xffffffffffffffffffffffffffffffffffffffff\n  and\n    /* \"@openzeppelin/contracts@5.4.0/access/Ownable.sol\":2985:3010  address oldOwner = _owner */\n  swap1\n  pop\n    /* \"@openzeppelin/contracts@5.4.0/access/Ownable.sol\":3029:3037  newOwner */\n  dup2\n    /* \"@openzeppelin/contracts@5.4.0/access/Ownable.sol\":3020:3026  _owner */\n  0x00\n  0x00\n    /* \"@openzeppelin/contracts@5.4.0/access/Ownable.sol\":3020:3037  _owner = newOwner */\n  0x0100\n  exp\n  dup2\n  sload\n  dup2\n  0xffffffffffffffffffffffffffffffffffffffff\n  mul\n  not\n  and\n  swap1\n  dup4\n  0xffffffffffffffffffffffffffffffffffffffff\n  and\n  mul\n  or\n  swap1\n  sstore\n  pop\n    /* \"@openzeppelin/contracts@5.4.0/access/Ownable.sol\":3083:3091  newOwner */\n  dup2\n    /* \"@openzeppelin/contracts@5.4.0/access/Ownable.sol\":3052:3092  OwnershipTransferred(oldOwner, newOwner) */\n  0xffffffffffffffffffffffffffffffffffffffff\n  and\n    /* \"@openzeppelin/contracts@5.4.0/access/Ownable.sol\":3073:3081  oldOwner */\n  dup2\n    /* \"@openzeppelin/contracts@5.4.0/access/Ownable.sol\":3052:3092  OwnershipTransferred(oldOwner, newOwner) */\n  0xffffffffffffffffffffffffffffffffffffffff\n  and\n  0x8be0079c531659141344cd1fd0a4f28419497f9722a3daafe3b4186f6b6457e0\n  mload(0x40)\n  mload(0x40)\n  dup1\n  swap2\n  sub\n  swap1\n  log3\n    /* \"@openzeppelin/contracts@5.4.0/access/Ownable.sol\":2975:3099  {... */\n  pop\n    /* \"@openzeppelin/contracts@5.4.0/access/Ownable.sol\":2912:3099  function _transferOwnership(address newOwner) internal virtual {... */\n  pop\n  jump\t// out\n    /* \"contract-45ea2eace7.sol\":1900:2063  function _addCandidate(string memory _name) internal {... */\ntag_14:\n    /* \"contract-45ea2eace7.sol\":1963:1978  candidatesCount */\n  0x04\n  0x00\n    /* \"contract-45ea2eace7.sol\":1963:1980  candidatesCount++ */\n  dup2\n  sload\n  dup1\n  swap3\n  swap2\n  swap1\n  tag_19\n  swap1\n  tag_20\n  jump\t// in\ntag_19:\n  swap2\n  swap1\n  pop\n  sstore\n  pop\n    /* \"contract-45ea2eace7.sol\":2020:2056  Candidate(candidatesCount, _name, 0) */\n  mload(0x40)\n  dup1\n  0x60\n  add\n  0x40\n  mstore\n  dup1\n    /* \"contract-45ea2eace7.sol\":2030:2045  candidatesCount */\n  sload(0x04)\n    /* \"contract-45ea2eace7.sol\":2020:2056  Candidate(candidatesCount, _name, 0) */\n  dup2\n  mstore\n  0x20\n  add\n    /* \"contract-45ea2eace7.sol\":2047:2052  _name */\n  dup3\n    /* \"contract-45ea2eace7.sol\":2020:2056  Candidate(candidatesCount, _name, 0) */\n  dup2\n  mstore\n  0x20\n  add\n    /* \"contract-45ea2eace7.sol\":2054:2055  0 */\n  0x00\n    /* \"contract-45ea2eace7.sol\":2020:2056  Candidate(candidatesCount, _name, 0) */\n  dup2\n  mstore\n  pop\n    /* \"contract-45ea2eace7.sol\":1990:2000  candidates */\n  0x02\n    /* \"contract-45ea2eace7.sol\":1990:2017  candidates[candidatesCount] */\n  0x00\n    /* \"contract-45ea2eace7.sol\":2001:2016  candidatesCount */\n  sload(0x04)\n    /* \"contract-45ea2eace7.sol\":1990:2017  candidates[candidatesCount] */\n  dup2\n  mstore\n  0x20\n  add\n  swap1\n  dup2\n  mstore\n  0x20\n  add\n  0x00\n  keccak256\n    /* \"contract-45ea2eace7.sol\":1990:2056  candidates[candidatesCount] = Candidate(candidatesCount, _name, 0) */\n  0x00\n  dup3\n  add\n  mload\n  dup2\n  0x00\n  add\n  sstore\n  0x20\n  dup3\n  add\n  mload\n  dup2\n  0x01\n  add\n  swap1\n  dup2\n  tag_21\n  swap2\n  swap1\n  tag_22\n  jump\t// in\ntag_21:\n  pop\n  0x40\n  dup3\n  add\n  mload\n  dup2\n  0x02\n  add\n  sstore\n  swap1\n  pop\n  pop\n    /* \"contract-45ea2eace7.sol\":1900:2063  function _addCandidate(string memory _name) internal {... */\n  pop\n  jump\t// out\n    /* \"#utility.yul\":88:205   */\ntag_24:\n    /* \"#utility.yul\":197:198   */\n  0x00\n    /* \"#utility.yul\":194:195   */\n  0x00\n    /* \"#utility.yul\":187:199   */\n  revert\n    /* \"#utility.yul\":334:460   */\ntag_26:\n    /* \"#utility.yul\":371:378   */\n  0x00\n    /* \"#utility.yul\":411:453   */\n  0xffffffffffffffffffffffffffffffffffffffff\n    /* \"#utility.yul\":404:409   */\n  dup3\n    /* \"#utility.yul\":400:454   */\n  and\n    /* \"#utility.yul\":389:454   */\n  swap1\n  pop\n    /* \"#utility.yul\":334:460   */\n  swap2\n  swap1\n  pop\n  jump\t// out\n    /* \"#utility.yul\":466:562   */\ntag_27:\n    /* \"#utility.yul\":503:510   */\n  0x00\n    /* \"#utility.yul\":532:556   */\n  tag_58\n    /* \"#utility.yul\":550:555   */\n  dup3\n    /* \"#utility.yul\":532:556   */\n  tag_26\n  jump\t// in\ntag_58:\n    /* \"#utility.yul\":521:556   */\n  swap1\n  pop\n    /* \"#utility.yul\":466:562   */\n  swap2\n  swap1\n  pop\n  jump\t// out\n    /* \"#utility.yul\":568:690   */\ntag_28:\n    /* \"#utility.yul\":641:665   */\n  tag_60\n    /* \"#utility.yul\":659:664   */\n  dup2\n    /* \"#utility.yul\":641:665   */\n  tag_27\n  jump\t// in\ntag_60:\n    /* \"#utility.yul\":634:639   */\n  dup2\n    /* \"#utility.yul\":631:666   */\n  eq\n    /* \"#utility.yul\":621:684   */\n  tag_61\n  jumpi\n    /* \"#utility.yul\":680:681   */\n  0x00\n    /* \"#utility.yul\":677:678   */\n  0x00\n    /* \"#utility.yul\":670:682   */\n  revert\n    /* \"#utility.yul\":621:684   */\ntag_61:\n    /* \"#utility.yul\":568:690   */\n  pop\n  jump\t// out\n    /* \"#utility.yul\":696:839   */\ntag_29:\n    /* \"#utility.yul\":753:758   */\n  0x00\n    /* \"#utility.yul\":784:790   */\n  dup2\n    /* \"#utility.yul\":778:791   */\n  mload\n    /* \"#utility.yul\":769:791   */\n  swap1\n  pop\n    /* \"#utility.yul\":800:833   */\n  tag_63\n    /* \"#utility.yul\":827:832   */\n  dup2\n    /* \"#utility.yul\":800:833   */\n  tag_28\n  jump\t// in\ntag_63:\n    /* \"#utility.yul\":696:839   */\n  swap3\n  swap2\n  pop\n  pop\n  jump\t// out\n    /* \"#utility.yul\":845:1352   */\ntag_3:\n    /* \"#utility.yul\":924:930   */\n  0x00\n    /* \"#utility.yul\":932:938   */\n  0x00\n    /* \"#utility.yul\":981:983   */\n  0x40\n    /* \"#utility.yul\":969:978   */\n  dup4\n    /* \"#utility.yul\":960:967   */\n  dup6\n    /* \"#utility.yul\":956:979   */\n  sub\n    /* \"#utility.yul\":952:984   */\n  slt\n    /* \"#utility.yul\":949:1068   */\n  iszero\n  tag_65\n  jumpi\n    /* \"#utility.yul\":987:1066   */\n  tag_66\n  tag_24\n  jump\t// in\ntag_66:\n    /* \"#utility.yul\":949:1068   */\ntag_65:\n    /* \"#utility.yul\":1107:1108   */\n  0x00\n    /* \"#utility.yul\":1132:1196   */\n  tag_67\n    /* \"#utility.yul\":1188:1195   */\n  dup6\n    /* \"#utility.yul\":1179:1185   */\n  dup3\n    /* \"#utility.yul\":1168:1177   */\n  dup7\n    /* \"#utility.yul\":1164:1186   */\n  add\n    /* \"#utility.yul\":1132:1196   */\n  tag_29\n  jump\t// in\ntag_67:\n    /* \"#utility.yul\":1122:1196   */\n  swap3\n  pop\n    /* \"#utility.yul\":1078:1206   */\n  pop\n    /* \"#utility.yul\":1245:1247   */\n  0x20\n    /* \"#utility.yul\":1271:1335   */\n  tag_68\n    /* \"#utility.yul\":1327:1334   */\n  dup6\n    /* \"#utility.yul\":1318:1324   */\n  dup3\n    /* \"#utility.yul\":1307:1316   */\n  dup7\n    /* \"#utility.yul\":1303:1325   */\n  add\n    /* \"#utility.yul\":1271:1335   */\n  tag_29\n  jump\t// in\ntag_68:\n    /* \"#utility.yul\":1261:1335   */\n  swap2\n  pop\n    /* \"#utility.yul\":1216:1345   */\n  pop\n    /* \"#utility.yul\":845:1352   */\n  swap3\n  pop\n  swap3\n  swap1\n  pop\n  jump\t// out\n    /* \"#utility.yul\":1358:1476   */\ntag_30:\n    /* \"#utility.yul\":1445:1469   */\n  tag_70\n    /* \"#utility.yul\":1463:1468   */\n  dup2\n    /* \"#utility.yul\":1445:1469   */\n  tag_27\n  jump\t// in\ntag_70:\n    /* \"#utility.yul\":1440:1443   */\n  dup3\n    /* \"#utility.yul\":1433:1470   */\n  mstore\n    /* \"#utility.yul\":1358:1476   */\n  pop\n  pop\n  jump\t// out\n    /* \"#utility.yul\":1482:1704   */\ntag_9:\n    /* \"#utility.yul\":1575:1579   */\n  0x00\n    /* \"#utility.yul\":1613:1615   */\n  0x20\n    /* \"#utility.yul\":1602:1611   */\n  dup3\n    /* \"#utility.yul\":1598:1616   */\n  add\n    /* \"#utility.yul\":1590:1616   */\n  swap1\n  pop\n    /* \"#utility.yul\":1626:1697   */\n  tag_72\n    /* \"#utility.yul\":1694:1695   */\n  0x00\n    /* \"#utility.yul\":1683:1692   */\n  dup4\n    /* \"#utility.yul\":1679:1696   */\n  add\n    /* \"#utility.yul\":1670:1676   */\n  dup5\n    /* \"#utility.yul\":1626:1697   */\n  tag_30\n  jump\t// in\ntag_72:\n    /* \"#utility.yul\":1482:1704   */\n  swap3\n  swap2\n  pop\n  pop\n  jump\t// out\n    /* \"#utility.yul\":1710:1890   */\ntag_31:\n    /* \"#utility.yul\":1758:1835   */\n  0x4e487b7100000000000000000000000000000000000000000000000000000000\n    /* \"#utility.yul\":1755:1756   */\n  0x00\n    /* \"#utility.yul\":1748:1836   */\n  mstore\n    /* \"#utility.yul\":1855:1859   */\n  0x11\n    /* \"#utility.yul\":1852:1853   */\n  0x04\n    /* \"#utility.yul\":1845:1860   */\n  mstore\n    /* \"#utility.yul\":1879:1883   */\n  0x24\n    /* \"#utility.yul\":1876:1877   */\n  0x00\n    /* \"#utility.yul\":1869:1884   */\n  revert\n    /* \"#utility.yul\":1896:1973   */\ntag_32:\n    /* \"#utility.yul\":1933:1940   */\n  0x00\n    /* \"#utility.yul\":1962:1967   */\n  dup2\n    /* \"#utility.yul\":1951:1967   */\n  swap1\n  pop\n    /* \"#utility.yul\":1896:1973   */\n  swap2\n  swap1\n  pop\n  jump\t// out\n    /* \"#utility.yul\":1979:2212   */\ntag_20:\n    /* \"#utility.yul\":2018:2021   */\n  0x00\n    /* \"#utility.yul\":2041:2065   */\n  tag_76\n    /* \"#utility.yul\":2059:2064   */\n  dup3\n    /* \"#utility.yul\":2041:2065   */\n  tag_32\n  jump\t// in\ntag_76:\n    /* \"#utility.yul\":2032:2065   */\n  swap2\n  pop\n    /* \"#utility.yul\":2087:2153   */\n  0xffffffffffffffffffffffffffffffffffffffffffffffffffffffffffffffff\n    /* \"#utility.yul\":2080:2085   */\n  dup3\n    /* \"#utility.yul\":2077:2154   */\n  sub\n    /* \"#utility.yul\":2074:2177   */\n  tag_77\n  jumpi\n    /* \"#utility.yul\":2157:2175   */\n  tag_78\n  tag_31\n  jump\t// in\ntag_78:\n    /* \"#utility.yul\":2074:2177   */\ntag_77:\n    /* \"#utility.yul\":2204:2205   */\n  0x01\n    /* \"#utility.yul\":2197:2202   */\n  dup3\n    /* \"#utility.yul\":2193:2206   */\n  add\n    /* \"#utility.yul\":2186:2206   */\n  swap1\n  pop\n    /* \"#utility.yul\":1979:2212   */\n  swap2\n  swap1\n  pop\n  jump\t// out\n    /* \"#utility.yul\":2218:2317   */\ntag_33:\n    /* \"#utility.yul\":2270:2276   */\n  0x00\n    /* \"#utility.yul\":2304:2309   */\n  dup2\n    /* \"#utility.yul\":2298:2310   */\n  mload\n    /* \"#utility.yul\":2288:2310   */\n  swap1\n  pop\n    /* \"#utility.yul\":2218:2317   */\n  swap2\n  swap1\n  pop\n  jump\t// out\n    /* \"#utility.yul\":2323:2503   */\ntag_34:\n    /* \"#utility.yul\":2371:2448   */\n  0x4e487b7100000000000000000000000000000000000000000000000000000000\n    /* \"#utility.yul\":2368:2369   */\n  0x00\n    /* \"#utility.yul\":2361:2449   */\n  mstore\n    /* \"#utility.yul\":2468:2472   */\n  0x41\n    /* \"#utility.yul\":2465:2466   */\n  0x04\n    /* \"#utility.yul\":2458:2473   */\n  mstore\n    /* \"#utility.yul\":2492:2496   */\n  0x24\n    /* \"#utility.yul\":2489:2490   */\n  0x00\n    /* \"#utility.yul\":2482:2497   */\n  revert\n    /* \"#utility.yul\":2509:2689   */\ntag_35:\n    /* \"#utility.yul\":2557:2634   */\n  0x4e487b7100000000000000000000000000000000000000000000000000000000\n    /* \"#utility.yul\":2554:2555   */\n  0x00\n    /* \"#utility.yul\":2547:2635   */\n  mstore\n    /* \"#utility.yul\":2654:2658   */\n  0x22\n    /* \"#utility.yul\":2651:2652   */\n  0x04\n    /* \"#utility.yul\":2644:2659   */\n  mstore\n    /* \"#utility.yul\":2678:2682   */\n  0x24\n    /* \"#utility.yul\":2675:2676   */\n  0x00\n    /* \"#utility.yul\":2668:2683   */\n  revert\n    /* \"#utility.yul\":2695:3015   */\ntag_36:\n    /* \"#utility.yul\":2739:2745   */\n  0x00\n    /* \"#utility.yul\":2776:2777   */\n  0x02\n    /* \"#utility.yul\":2770:2774   */\n  dup3\n    /* \"#utility.yul\":2766:2778   */\n  div\n    /* \"#utility.yul\":2756:2778   */\n  swap1\n  pop\n    /* \"#utility.yul\":2823:2824   */\n  0x01\n    /* \"#utility.yul\":2817:2821   */\n  dup3\n    /* \"#utility.yul\":2813:2825   */\n  and\n    /* \"#utility.yul\":2844:2862   */\n  dup1\n    /* \"#utility.yul\":2834:2915   */\n  tag_83\n  jumpi\n    /* \"#utility.yul\":2900:2904   */\n  0x7f\n    /* \"#utility.yul\":2892:2898   */\n  dup3\n    /* \"#utility.yul\":2888:2905   */\n  and\n    /* \"#utility.yul\":2878:2905   */\n  swap2\n  pop\n    /* \"#utility.yul\":2834:2915   */\ntag_83:\n    /* \"#utility.yul\":2962:2964   */\n  0x20\n    /* \"#utility.yul\":2954:2960   */\n  dup3\n    /* \"#utility.yul\":2951:2965   */\n  lt\n    /* \"#utility.yul\":2931:2949   */\n  dup2\n    /* \"#utility.yul\":2928:2966   */\n  sub\n    /* \"#utility.yul\":2925:3009   */\n  tag_84\n  jumpi\n    /* \"#utility.yul\":2981:2999   */\n  tag_85\n  tag_35\n  jump\t// in\ntag_85:\n    /* \"#utility.yul\":2925:3009   */\ntag_84:\n    /* \"#utility.yul\":2746:3015   */\n  pop\n    /* \"#utility.yul\":2695:3015   */\n  swap2\n  swap1\n  pop\n  jump\t// out\n    /* \"#utility.yul\":3021:3162   */\ntag_37:\n    /* \"#utility.yul\":3070:3074   */\n  0x00\n    /* \"#utility.yul\":3093:3096   */\n  dup2\n    /* \"#utility.yul\":3085:3096   */\n  swap1\n  pop\n    /* \"#utility.yul\":3116:3119   */\n  dup2\n    /* \"#utility.yul\":3113:3114   */\n  0x00\n    /* \"#utility.yul\":3106:3120   */\n  mstore\n    /* \"#utility.yul\":3150:3154   */\n  0x20\n    /* \"#utility.yul\":3147:3148   */\n  0x00\n    /* \"#utility.yul\":3137:3155   */\n  keccak256\n    /* \"#utility.yul\":3129:3155   */\n  swap1\n  pop\n    /* \"#utility.yul\":3021:3162   */\n  swap2\n  swap1\n  pop\n  jump\t// out\n    /* \"#utility.yul\":3168:3261   */\ntag_38:\n    /* \"#utility.yul\":3205:3211   */\n  0x00\n    /* \"#utility.yul\":3252:3254   */\n  0x20\n    /* \"#utility.yul\":3247:3249   */\n  0x1f\n    /* \"#utility.yul\":3240:3245   */\n  dup4\n    /* \"#utility.yul\":3236:3250   */\n  add\n    /* \"#utility.yul\":3232:3255   */\n  div\n    /* \"#utility.yul\":3222:3255   */\n  swap1\n  pop\n    /* \"#utility.yul\":3168:3261   */\n  swap2\n  swap1\n  pop\n  jump\t// out\n    /* \"#utility.yul\":3267:3374   */\ntag_39:\n    /* \"#utility.yul\":3311:3319   */\n  0x00\n    /* \"#utility.yul\":3361:3366   */\n  dup3\n    /* \"#utility.yul\":3355:3359   */\n  dup3\n    /* \"#utility.yul\":3351:3367   */\n  shl\n    /* \"#utility.yul\":3330:3367   */\n  swap1\n  pop\n    /* \"#utility.yul\":3267:3374   */\n  swap3\n  swap2\n  pop\n  pop\n  jump\t// out\n    /* \"#utility.yul\":3380:3773   */\ntag_40:\n    /* \"#utility.yul\":3449:3455   */\n  0x00\n    /* \"#utility.yul\":3499:3500   */\n  0x08\n    /* \"#utility.yul\":3487:3497   */\n  dup4\n    /* \"#utility.yul\":3483:3501   */\n  mul\n    /* \"#utility.yul\":3522:3619   */\n  tag_90\n    /* \"#utility.yul\":3552:3618   */\n  0xffffffffffffffffffffffffffffffffffffffffffffffffffffffffffffffff\n    /* \"#utility.yul\":3541:3550   */\n  dup3\n    /* \"#utility.yul\":3522:3619   */\n  tag_39\n  jump\t// in\ntag_90:\n    /* \"#utility.yul\":3640:3679   */\n  tag_91\n    /* \"#utility.yul\":3670:3678   */\n  dup7\n    /* \"#utility.yul\":3659:3668   */\n  dup4\n    /* \"#utility.yul\":3640:3679   */\n  tag_39\n  jump\t// in\ntag_91:\n    /* \"#utility.yul\":3628:3679   */\n  swap6\n  pop\n    /* \"#utility.yul\":3712:3716   */\n  dup1\n    /* \"#utility.yul\":3708:3717   */\n  not\n    /* \"#utility.yul\":3701:3706   */\n  dup5\n    /* \"#utility.yul\":3697:3718   */\n  and\n    /* \"#utility.yul\":3688:3718   */\n  swap4\n  pop\n    /* \"#utility.yul\":3761:3765   */\n  dup1\n    /* \"#utility.yul\":3751:3759   */\n  dup7\n    /* \"#utility.yul\":3747:3766   */\n  and\n    /* \"#utility.yul\":3740:3745   */\n  dup5\n    /* \"#utility.yul\":3737:3767   */\n  or\n    /* \"#utility.yul\":3727:3767   */\n  swap3\n  pop\n    /* \"#utility.yul\":3456:3773   */\n  pop\n  pop\n    /* \"#utility.yul\":3380:3773   */\n  swap4\n  swap3\n  pop\n  pop\n  pop\n  jump\t// out\n    /* \"#utility.yul\":3779:3839   */\ntag_41:\n    /* \"#utility.yul\":3807:3810   */\n  0x00\n    /* \"#utility.yul\":3828:3833   */\n  dup2\n    /* \"#utility.yul\":3821:3833   */\n  swap1\n  pop\n    /* \"#utility.yul\":3779:3839   */\n  swap2\n  swap1\n  pop\n  jump\t// out\n    /* \"#utility.yul\":3845:3987   */\ntag_42:\n    /* \"#utility.yul\":3895:3904   */\n  0x00\n    /* \"#utility.yul\":3928:3981   */\n  tag_94\n    /* \"#utility.yul\":3946:3980   */\n  tag_95\n    /* \"#utility.yul\":3955:3979   */\n  tag_96\n    /* \"#utility.yul\":3973:3978   */\n  dup5\n    /* \"#utility.yul\":3955:3979   */\n  tag_32\n  jump\t// in\ntag_96:\n    /* \"#utility.yul\":3946:3980   */\n  tag_41\n  jump\t// in\ntag_95:\n    /* \"#utility.yul\":3928:3981   */\n  tag_32\n  jump\t// in\ntag_94:\n    /* \"#utility.yul\":3915:3981   */\n  swap1\n  pop\n    /* \"#utility.yul\":3845:3987   */\n  swap2\n  swap1\n  pop\n  jump\t// out\n    /* \"#utility.yul\":3993:4068   */\ntag_43:\n    /* \"#utility.yul\":4036:4039   */\n  0x00\n    /* \"#utility.yul\":4057:4062   */\n  dup2\n    /* \"#utility.yul\":4050:4062   */\n  swap1\n  pop\n    /* \"#utility.yul\":3993:4068   */\n  swap2\n  swap1\n  pop\n  jump\t// out\n    /* \"#utility.yul\":4074:4343   */\ntag_44:\n    /* \"#utility.yul\":4184:4223   */\n  tag_99\n    /* \"#utility.yul\":4215:4222   */\n  dup4\n    /* \"#utility.yul\":4184:4223   */\n  tag_42\n  jump\t// in\ntag_99:\n    /* \"#utility.yul\":4245:4336   */\n  tag_100\n    /* \"#utility.yul\":4294:4335   */\n  tag_101\n    /* \"#utility.yul\":4318:4334   */\n  dup3\n    /* \"#utility.yul\":4294:4335   */\n  tag_43\n  jump\t// in\ntag_101:\n    /* \"#utility.yul\":4286:4292   */\n  dup5\n    /* \"#utility.yul\":4279:4283   */\n  dup5\n    /* \"#utility.yul\":4273:4284   */\n  sload\n    /* \"#utility.yul\":4245:4336   */\n  tag_40\n  jump\t// in\ntag_100:\n    /* \"#utility.yul\":4239:4243   */\n  dup3\n    /* \"#utility.yul\":4232:4337   */\n  sstore\n    /* \"#utility.yul\":4150:4343   */\n  pop\n    /* \"#utility.yul\":4074:4343   */\n  pop\n  pop\n  pop\n  jump\t// out\n    /* \"#utility.yul\":4349:4422   */\ntag_45:\n    /* \"#utility.yul\":4394:4397   */\n  0x00\n    /* \"#utility.yul\":4415:4416   */\n  0x00\n    /* \"#utility.yul\":4408:4416   */\n  swap1\n  pop\n    /* \"#utility.yul\":4349:4422   */\n  swap1\n  jump\t// out\n    /* \"#utility.yul\":4428:4617   */\ntag_46:\n    /* \"#utility.yul\":4505:4537   */\n  tag_104\n  tag_45\n  jump\t// in\ntag_104:\n    /* \"#utility.yul\":4546:4611   */\n  tag_105\n    /* \"#utility.yul\":4604:4610   */\n  dup2\n    /* \"#utility.yul\":4596:4602   */\n  dup5\n    /* \"#utility.yul\":4590:4594   */\n  dup5\n    /* \"#utility.yul\":4546:4611   */\n  tag_44\n  jump\t// in\ntag_105:\n    /* \"#utility.yul\":4481:4617   */\n  pop\n    /* \"#utility.yul\":4428:4617   */\n  pop\n  pop\n  jump\t// out\n    /* \"#utility.yul\":4623:4809   */\ntag_47:\n    /* \"#utility.yul\":4683:4803   */\ntag_107:\n    /* \"#utility.yul\":4700:4703   */\n  dup2\n    /* \"#utility.yul\":4693:4698   */\n  dup2\n    /* \"#utility.yul\":4690:4704   */\n  lt\n    /* \"#utility.yul\":4683:4803   */\n  iszero\n  tag_109\n  jumpi\n    /* \"#utility.yul\":4754:4793   */\n  tag_110\n    /* \"#utility.yul\":4791:4792   */\n  0x00\n    /* \"#utility.yul\":4784:4789   */\n  dup3\n    /* \"#utility.yul\":4754:4793   */\n  tag_46\n  jump\t// in\ntag_110:\n    /* \"#utility.yul\":4727:4728   */\n  0x01\n    /* \"#utility.yul\":4720:4725   */\n  dup2\n    /* \"#utility.yul\":4716:4729   */\n  add\n    /* \"#utility.yul\":4707:4729   */\n  swap1\n  pop\n    /* \"#utility.yul\":4683:4803   */\n  jump(tag_107)\ntag_109:\n    /* \"#utility.yul\":4623:4809   */\n  pop\n  pop\n  jump\t// out\n    /* \"#utility.yul\":4815:5358   */\ntag_48:\n    /* \"#utility.yul\":4916:4918   */\n  0x1f\n    /* \"#utility.yul\":4911:4914   */\n  dup3\n    /* \"#utility.yul\":4908:4919   */\n  gt\n    /* \"#utility.yul\":4905:5351   */\n  iszero\n  tag_112\n  jumpi\n    /* \"#utility.yul\":4950:4988   */\n  tag_113\n    /* \"#utility.yul\":4982:4987   */\n  dup2\n    /* \"#utility.yul\":4950:4988   */\n  tag_37\n  jump\t// in\ntag_113:\n    /* \"#utility.yul\":5034:5063   */\n  tag_114\n    /* \"#utility.yul\":5052:5062   */\n  dup5\n    /* \"#utility.yul\":5034:5063   */\n  tag_38\n  jump\t// in\ntag_114:\n    /* \"#utility.yul\":5024:5032   */\n  dup2\n    /* \"#utility.yul\":5020:5064   */\n  add\n    /* \"#utility.yul\":5217:5219   */\n  0x20\n    /* \"#utility.yul\":5205:5215   */\n  dup6\n    /* \"#utility.yul\":5202:5220   */\n  lt\n    /* \"#utility.yul\":5199:5248   */\n  iszero\n  tag_115\n  jumpi\n    /* \"#utility.yul\":5238:5246   */\n  dup2\n    /* \"#utility.yul\":5223:5246   */\n  swap1\n  pop\n    /* \"#utility.yul\":5199:5248   */\ntag_115:\n    /* \"#utility.yul\":5261:5341   */\n  tag_116\n    /* \"#utility.yul\":5317:5339   */\n  tag_117\n    /* \"#utility.yul\":5335:5338   */\n  dup6\n    /* \"#utility.yul\":5317:5339   */\n  tag_38\n  jump\t// in\ntag_117:\n    /* \"#utility.yul\":5307:5315   */\n  dup4\n    /* \"#utility.yul\":5303:5340   */\n  add\n    /* \"#utility.yul\":5290:5301   */\n  dup3\n    /* \"#utility.yul\":5261:5341   */\n  tag_47\n  jump\t// in\ntag_116:\n    /* \"#utility.yul\":4920:5351   */\n  pop\n  pop\n    /* \"#utility.yul\":4905:5351   */\ntag_112:\n    /* \"#utility.yul\":4815:5358   */\n  pop\n  pop\n  pop\n  jump\t// out\n    /* \"#utility.yul\":5364:5481   */\ntag_49:\n    /* \"#utility.yul\":5418:5426   */\n  0x00\n    /* \"#utility.yul\":5468:5473   */\n  dup3\n    /* \"#utility.yul\":5462:5466   */\n  dup3\n    /* \"#utility.yul\":5458:5474   */\n  shr\n    /* \"#utility.yul\":5437:5474   */\n  swap1\n  pop\n    /* \"#utility.yul\":5364:5481   */\n  swap3\n  swap2\n  pop\n  pop\n  jump\t// out\n    /* \"#utility.yul\":5487:5656   */\ntag_50:\n    /* \"#utility.yul\":5531:5537   */\n  0x00\n    /* \"#utility.yul\":5564:5615   */\n  tag_120\n    /* \"#utility.yul\":5612:5613   */\n  0x00\n    /* \"#utility.yul\":5608:5614   */\n  not\n    /* \"#utility.yul\":5600:5605   */\n  dup5\n    /* \"#utility.yul\":5597:5598   */\n  0x08\n    /* \"#utility.yul\":5593:5606   */\n  mul\n    /* \"#utility.yul\":5564:5615   */\n  tag_49\n  jump\t// in\ntag_120:\n    /* \"#utility.yul\":5560:5616   */\n  not\n    /* \"#utility.yul\":5645:5649   */\n  dup1\n    /* \"#utility.yul\":5639:5643   */\n  dup4\n    /* \"#utility.yul\":5635:5650   */\n  and\n    /* \"#utility.yul\":5625:5650   */\n  swap2\n  pop\n    /* \"#utility.yul\":5538:5656   */\n  pop\n    /* \"#utility.yul\":5487:5656   */\n  swap3\n  swap2\n  pop\n  pop\n  jump\t// out\n    /* \"#utility.yul\":5661:5956   */\ntag_51:\n    /* \"#utility.yul\":5737:5741   */\n  0x00\n    /* \"#utility.yul\":5883:5912   */\n  tag_122\n    /* \"#utility.yul\":5908:5911   */\n  dup4\n    /* \"#utility.yul\":5902:5906   */\n  dup4\n    /* \"#utility.yul\":5883:5912   */\n  tag_50\n  jump\t// in\ntag_122:\n    /* \"#utility.yul\":5875:5912   */\n  swap2\n  pop\n    /* \"#utility.yul\":5945:5948   */\n  dup3\n    /* \"#utility.yul\":5942:5943   */\n  0x02\n    /* \"#utility.yul\":5938:5949   */\n  mul\n    /* \"#utility.yul\":5932:5936   */\n  dup3\n    /* \"#utility.yul\":5929:5950   */\n  or\n    /* \"#utility.yul\":5921:5950   */\n  swap1\n  pop\n    /* \"#utility.yul\":5661:5956   */\n  swap3\n  swap2\n  pop\n  pop\n  jump\t// out\n    /* \"#utility.yul\":5961:7356   */\ntag_22:\n    /* \"#utility.yul\":6078:6115   */\n  tag_124\n    /* \"#utility.yul\":6111:6114   */\n  dup3\n    /* \"#utility.yul\":6078:6115   */\n  tag_33\n  jump\t// in\ntag_124:\n    /* \"#utility.yul\":6180:6198   */\n  0xffffffffffffffff\n    /* \"#utility.yul\":6172:6178   */\n  dup2\n    /* \"#utility.yul\":6169:6199   */\n  gt\n    /* \"#utility.yul\":6166:6222   */\n  iszero\n  tag_125\n  jumpi\n    /* \"#utility.yul\":6202:6220   */\n  tag_126\n  tag_34\n  jump\t// in\ntag_126:\n    /* \"#utility.yul\":6166:6222   */\ntag_125:\n    /* \"#utility.yul\":6246:6284   */\n  tag_127\n    /* \"#utility.yul\":6278:6282   */\n  dup3\n    /* \"#utility.yul\":6272:6283   */\n  sload\n    /* \"#utility.yul\":6246:6284   */\n  tag_36\n  jump\t// in\ntag_127:\n    /* \"#utility.yul\":6331:6398   */\n  tag_128\n    /* \"#utility.yul\":6391:6397   */\n  dup3\n    /* \"#utility.yul\":6383:6389   */\n  dup3\n    /* \"#utility.yul\":6377:6381   */\n  dup6\n    /* \"#utility.yul\":6331:6398   */\n  tag_48\n  jump\t// in\ntag_128:\n    /* \"#utility.yul\":6425:6426   */\n  0x00\n    /* \"#utility.yul\":6449:6453   */\n  0x20\n    /* \"#utility.yul\":6436:6453   */\n  swap1\n  pop\n    /* \"#utility.yul\":6481:6483   */\n  0x1f\n    /* \"#utility.yul\":6473:6479   */\n  dup4\n    /* \"#utility.yul\":6470:6484   */\n  gt\n    /* \"#utility.yul\":6498:6499   */\n  0x01\n    /* \"#utility.yul\":6493:7111   */\n  dup2\n  eq\n  tag_130\n  jumpi\n    /* \"#utility.yul\":7155:7156   */\n  0x00\n    /* \"#utility.yul\":7172:7178   */\n  dup5\n    /* \"#utility.yul\":7169:7246   */\n  iszero\n  tag_131\n  jumpi\n    /* \"#utility.yul\":7221:7230   */\n  dup3\n    /* \"#utility.yul\":7216:7219   */\n  dup8\n    /* \"#utility.yul\":7212:7231   */\n  add\n    /* \"#utility.yul\":7206:7232   */\n  mload\n    /* \"#utility.yul\":7197:7232   */\n  swap1\n  pop\n    /* \"#utility.yul\":7169:7246   */\ntag_131:\n    /* \"#utility.yul\":7272:7339   */\n  tag_132\n    /* \"#utility.yul\":7332:7338   */\n  dup6\n    /* \"#utility.yul\":7325:7330   */\n  dup3\n    /* \"#utility.yul\":7272:7339   */\n  tag_51\n  jump\t// in\ntag_132:\n    /* \"#utility.yul\":7266:7270   */\n  dup7\n    /* \"#utility.yul\":7259:7340   */\n  sstore\n    /* \"#utility.yul\":7128:7350   */\n  pop\n    /* \"#utility.yul\":6463:7350   */\n  jump(tag_129)\n    /* \"#utility.yul\":6493:7111   */\ntag_130:\n    /* \"#utility.yul\":6545:6549   */\n  0x1f\n    /* \"#utility.yul\":6541:6550   */\n  not\n    /* \"#utility.yul\":6533:6539   */\n  dup5\n    /* \"#utility.yul\":6529:6551   */\n  and\n    /* \"#utility.yul\":6579:6616   */\n  tag_133\n    /* \"#utility.yul\":6611:6615   */\n  dup7\n    /* \"#utility.yul\":6579:6616   */\n  tag_37\n  jump\t// in\ntag_133:\n    /* \"#utility.yul\":6638:6639   */\n  0x00\n    /* \"#utility.yul\":6652:6860   */\ntag_134:\n    /* \"#utility.yul\":6666:6673   */\n  dup3\n    /* \"#utility.yul\":6663:6664   */\n  dup2\n    /* \"#utility.yul\":6660:6674   */\n  lt\n    /* \"#utility.yul\":6652:6860   */\n  iszero\n  tag_136\n  jumpi\n    /* \"#utility.yul\":6745:6754   */\n  dup5\n    /* \"#utility.yul\":6740:6743   */\n  dup10\n    /* \"#utility.yul\":6736:6755   */\n  add\n    /* \"#utility.yul\":6730:6756   */\n  mload\n    /* \"#utility.yul\":6722:6728   */\n  dup3\n    /* \"#utility.yul\":6715:6757   */\n  sstore\n    /* \"#utility.yul\":6796:6797   */\n  0x01\n    /* \"#utility.yul\":6788:6794   */\n  dup3\n    /* \"#utility.yul\":6784:6798   */\n  add\n    /* \"#utility.yul\":6774:6798   */\n  swap2\n  pop\n    /* \"#utility.yul\":6843:6845   */\n  0x20\n    /* \"#utility.yul\":6832:6841   */\n  dup6\n    /* \"#utility.yul\":6828:6846   */\n  add\n    /* \"#utility.yul\":6815:6846   */\n  swap5\n  pop\n    /* \"#utility.yul\":6689:6693   */\n  0x20\n    /* \"#utility.yul\":6686:6687   */\n  dup2\n    /* \"#utility.yul\":6682:6694   */\n  add\n    /* \"#utility.yul\":6677:6694   */\n  swap1\n  pop\n    /* \"#utility.yul\":6652:6860   */\n  jump(tag_134)\ntag_136:\n    /* \"#utility.yul\":6888:6894   */\n  dup7\n    /* \"#utility.yul\":6879:6886   */\n  dup4\n    /* \"#utility.yul\":6876:6895   */\n  lt\n    /* \"#utility.yul\":6873:7052   */\n  iszero\n  tag_137\n  jumpi\n    /* \"#utility.yul\":6946:6955   */\n  dup5\n    /* \"#utility.yul\":6941:6944   */\n  dup10\n    /* \"#utility.yul\":6937:6956   */\n  add\n    /* \"#utility.yul\":6931:6957   */\n  mload\n    /* \"#utility.yul\":6989:7037   */\n  tag_138\n    /* \"#utility.yul\":7031:7035   */\n  0x1f\n    /* \"#utility.yul\":7023:7029   */\n  dup10\n    /* \"#utility.yul\":7019:7036   */\n  and\n    /* \"#utility.yul\":7008:7017   */\n  dup3\n    /* \"#utility.yul\":6989:7037   */\n  tag_50\n  jump\t// in\ntag_138:\n    /* \"#utility.yul\":6981:6987   */\n  dup4\n    /* \"#utility.yul\":6974:7038   */\n  sstore\n    /* \"#utility.yul\":6896:7052   */\n  pop\n    /* \"#utility.yul\":6873:7052   */\ntag_137:\n    /* \"#utility.yul\":7098:7099   */\n  0x01\n    /* \"#utility.yul\":7094:7095   */\n  0x02\n    /* \"#utility.yul\":7086:7092   */\n  dup9\n    /* \"#utility.yul\":7082:7096   */\n  mul\n    /* \"#utility.yul\":7078:7100   */\n  add\n    /* \"#utility.yul\":7072:7076   */\n  dup9\n    /* \"#utility.yul\":7065:7101   */\n  sstore\n    /* \"#utility.yul\":6500:7111   */\n  pop\n  pop\n  pop\n    /* \"#utility.yul\":6463:7350   */\ntag_129:\n  pop\n    /* \"#utility.yul\":6053:7356   */\n  pop\n  pop\n  pop\n    /* \"#utility.yul\":5961:7356   */\n  pop\n  pop\n  jump\t// out\n    /* \"contract-45ea2eace7.sol\":1210:3477  contract Voting is Ownable {... */\ntag_16:\n  dataSize(sub_0)\n  dup1\n  dataOffset(sub_0)\n  0x00\n  codecopy\n  0x00\n  return\nstop\n\nsub_0: assembly {\n        /* \"contract-45ea2eace7.sol\":1210:3477  contract Voting is Ownable {... */\n      mstore(0x40, 0x80)\n      callvalue\n      dup1\n      iszero\n      tag_1\n      jumpi\n      revert(0x00, 0x00)\n    tag_1:\n      pop\n      jumpi(tag_2, lt(calldatasize, 0x04))\n      shr(0xe0, calldataload(0x00))\n      dup1\n      0x462e91ec\n      gt\n      tag_14\n      jumpi\n      dup1\n      0x462e91ec\n      eq\n      tag_8\n      jumpi\n      dup1\n      0x715018a6\n      eq\n      tag_9\n      jumpi\n      dup1\n      0x8da5cb5b\n      eq\n      tag_10\n      jumpi\n      dup1\n      0xa3ec138d\n      eq\n      tag_11\n      jumpi\n      dup1\n      0xb0340123\n      eq\n      tag_12\n      jumpi\n      dup1\n      0xf2fde38b\n      eq\n      tag_13\n      jumpi\n      jump(tag_2)\n    tag_14:\n      dup1\n      0x0121b93f\n      eq\n      tag_3\n      jumpi\n      dup1\n      0x2d35a8a2\n      eq\n      tag_4\n      jumpi\n      dup1\n      0x315a095d\n      eq\n      tag_5\n      jumpi\n      dup1\n      0x3477ee2e\n      eq\n      tag_6\n      jumpi\n      dup1\n      0x35b8e820\n      eq\n      tag_7\n      jumpi\n    tag_2:\n      revert(0x00, 0x00)\n        /* \"contract-45ea2eace7.sol\":2069:2828  function vote(uint256 _candidateId) public {... */\n    tag_3:\n      tag_15\n      0x04\n      dup1\n      calldatasize\n      sub\n      dup2\n      add\n      swap1\n      tag_16\n      swap2\n      swap1\n      tag_17\n      jump\t// in\n    tag_16:\n      tag_18\n      jump\t// in\n    tag_15:\n      stop\n        /* \"contract-45ea2eace7.sol\":1474:1504  uint256 public candidatesCount */\n    tag_4:\n      tag_19\n      tag_20\n      jump\t// in\n    tag_19:\n      mload(0x40)\n      tag_21\n      swap2\n      swap1\n      tag_22\n      jump\t// in\n    tag_21:\n      mload(0x40)\n      dup1\n      swap2\n      sub\n      swap1\n      return\n        /* \"contract-45ea2eace7.sol\":3213:3475  function withdrawTokens(uint256 amount) public onlyOwner {... */\n    tag_5:\n      tag_23\n      0x04\n      dup1\n      calldatasize\n      sub\n      dup2\n      add\n      swap1\n      tag_24\n      swap2\n      swap1\n      tag_17\n      jump\t// in\n    tag_24:\n      tag_25\n      jump\t// in\n    tag_23:\n      stop\n        /* \"contract-45ea2eace7.sol\":1377:1424  mapping(uint256 => Candidate) public candidates */\n    tag_6:\n      tag_26\n      0x04\n      dup1\n      calldatasize\n      sub\n      dup2\n      add\n      swap1\n      tag_27\n      swap2\n      swap1\n      tag_17\n      jump\t// in\n    tag_27:\n      tag_28\n      jump\t// in\n    tag_26:\n      mload(0x40)\n      tag_29\n      swap4\n      swap3\n      swap2\n      swap1\n      tag_30\n      jump\t// in\n    tag_29:\n      mload(0x40)\n      dup1\n      swap2\n      sub\n      swap1\n      return\n        /* \"contract-45ea2eace7.sol\":2834:3207  function getCandidate(uint256 _candidateId)... */\n    tag_7:\n      tag_31\n      0x04\n      dup1\n      calldatasize\n      sub\n      dup2\n      add\n      swap1\n      tag_32\n      swap2\n      swap1\n      tag_17\n      jump\t// in\n    tag_32:\n      tag_33\n      jump\t// in\n    tag_31:\n      mload(0x40)\n      tag_34\n      swap4\n      swap3\n      swap2\n      swap1\n      tag_30\n      jump\t// in\n    tag_34:\n      mload(0x40)\n      dup1\n      swap2\n      sub\n      swap1\n      return\n        /* \"contract-45ea2eace7.sol\":1797:1894  function addCandidate(string memory _name) public onlyOwner {... */\n    tag_8:\n      tag_35\n      0x04\n      dup1\n      calldatasize\n      sub\n      dup2\n      add\n      swap1\n      tag_36\n      swap2\n      swap1\n      tag_37\n      jump\t// in\n    tag_36:\n      tag_38\n      jump\t// in\n    tag_35:\n      stop\n        /* \"@openzeppelin/contracts@5.4.0/access/Ownable.sol\":2293:2394  function renounceOwnership() public virtual onlyOwner {... */\n    tag_9:\n      tag_39\n      tag_40\n      jump\t// in\n    tag_39:\n      stop\n        /* \"@openzeppelin/contracts@5.4.0/access/Ownable.sol\":1638:1723  function owner() public view virtual returns (address) {... */\n    tag_10:\n      tag_41\n      tag_42\n      jump\t// in\n    tag_41:\n      mload(0x40)\n      tag_43\n      swap2\n      swap1\n      tag_44\n      jump\t// in\n    tag_43:\n      mload(0x40)\n      dup1\n      swap2\n      sub\n      swap1\n      return\n        /* \"contract-45ea2eace7.sol\":1430:1468  mapping(address => bool) public voters */\n    tag_11:\n      tag_45\n      0x04\n      dup1\n      calldatasize\n      sub\n      dup2\n      add\n      swap1\n      tag_46\n      swap2\n      swap1\n      tag_47\n      jump\t// in\n    tag_46:\n      tag_48\n      jump\t// in\n    tag_45:\n      mload(0x40)\n      tag_49\n      swap2\n      swap1\n      tag_50\n      jump\t// in\n    tag_49:\n      mload(0x40)\n      dup1\n      swap2\n      sub\n      swap1\n      return\n        /* \"contract-45ea2eace7.sol\":1341:1371  VotingToken public votingToken */\n    tag_12:\n      tag_51\n      tag_52\n      jump\t// in\n    tag_51:\n      mload(0x40)\n      tag_53\n      swap2\n      swap1\n      tag_54\n      jump\t// in\n    tag_53:\n      mload(0x40)\n      dup1\n      swap2\n      sub\n      swap1\n      return\n        /* \"@openzeppelin/contracts@5.4.0/access/Ownable.sol\":2543:2758  function transferOwnership(address newOwner) public virtual onlyOwner {... */\n    tag_13:\n      tag_55\n      0x04\n      dup1\n      calldatasize\n      sub\n      dup2\n      add\n      swap1\n      tag_56\n      swap2\n      swap1\n      tag_47\n      jump\t// in\n    tag_56:\n      tag_57\n      jump\t// in\n    tag_55:\n      stop\n        /* \"contract-45ea2eace7.sol\":2069:2828  function vote(uint256 _candidateId) public {... */\n    tag_18:\n        /* \"contract-45ea2eace7.sol\":2131:2137  voters */\n      0x03\n        /* \"contract-45ea2eace7.sol\":2131:2149  voters[msg.sender] */\n      0x00\n        /* \"contract-45ea2eace7.sol\":2138:2148  msg.sender */\n      caller\n        /* \"contract-45ea2eace7.sol\":2131:2149  voters[msg.sender] */\n      0xffffffffffffffffffffffffffffffffffffffff\n      and\n      0xffffffffffffffffffffffffffffffffffffffff\n      and\n      dup2\n      mstore\n      0x20\n      add\n      swap1\n      dup2\n      mstore\n      0x20\n      add\n      0x00\n      keccak256\n      0x00\n      swap1\n      sload\n      swap1\n      0x0100\n      exp\n      swap1\n      div\n      0xff\n      and\n        /* \"contract-45ea2eace7.sol\":2130:2149  !voters[msg.sender] */\n      iszero\n        /* \"contract-45ea2eace7.sol\":2122:2176  require(!voters[msg.sender], \"You have already voted\") */\n      tag_59\n      jumpi\n      mload(0x40)\n      0x08c379a000000000000000000000000000000000000000000000000000000000\n      dup2\n      mstore\n      0x04\n      add\n      tag_60\n      swap1\n      tag_61\n      jump\t// in\n    tag_60:\n      mload(0x40)\n      dup1\n      swap2\n      sub\n      swap1\n      revert\n    tag_59:\n        /* \"contract-45ea2eace7.sol\":2209:2210  0 */\n      0x00\n        /* \"contract-45ea2eace7.sol\":2194:2206  _candidateId */\n      dup2\n        /* \"contract-45ea2eace7.sol\":2194:2210  _candidateId > 0 */\n      gt\n        /* \"contract-45ea2eace7.sol\":2194:2245  _candidateId > 0 && _candidateId <= candidatesCount */\n      dup1\n      iszero\n      tag_62\n      jumpi\n      pop\n        /* \"contract-45ea2eace7.sol\":2230:2245  candidatesCount */\n      sload(0x04)\n        /* \"contract-45ea2eace7.sol\":2214:2226  _candidateId */\n      dup2\n        /* \"contract-45ea2eace7.sol\":2214:2245  _candidateId <= candidatesCount */\n      gt\n      iszero\n        /* \"contract-45ea2eace7.sol\":2194:2245  _candidateId > 0 && _candidateId <= candidatesCount */\n    tag_62:\n        /* \"contract-45ea2eace7.sol\":2186:2267  require(_candidateId > 0 && _candidateId <= candidatesCount, \"Invalid candidate\") */\n      tag_63\n      jumpi\n      mload(0x40)\n      0x08c379a000000000000000000000000000000000000000000000000000000000\n      dup2\n      mstore\n      0x04\n      add\n      tag_64\n      swap1\n      tag_65\n      jump\t// in\n    tag_64:\n      mload(0x40)\n      dup1\n      swap2\n      sub\n      swap1\n      revert\n    tag_63:\n        /* \"contract-45ea2eace7.sol\":2278:2296  uint256 votingCost */\n      0x00\n        /* \"contract-45ea2eace7.sol\":2309:2320  votingToken */\n      0x01\n      0x00\n      swap1\n      sload\n      swap1\n      0x0100\n      exp\n      swap1\n      div\n      0xffffffffffffffffffffffffffffffffffffffff\n      and\n        /* \"contract-45ea2eace7.sol\":2309:2329  votingToken.decimals */\n      0xffffffffffffffffffffffffffffffffffffffff\n      and\n      0x313ce567\n        /* \"contract-45ea2eace7.sol\":2309:2331  votingToken.decimals() */\n      mload(0x40)\n      dup2\n      0xffffffff\n      and\n      0xe0\n      shl\n      dup2\n      mstore\n      0x04\n      add\n      0x20\n      mload(0x40)\n      dup1\n      dup4\n      sub\n      dup2\n      dup7\n      gas\n      staticcall\n      iszero\n      dup1\n      iszero\n      tag_67\n      jumpi\n      returndatacopy(0x00, 0x00, returndatasize)\n      revert(0x00, returndatasize)\n    tag_67:\n      pop\n      pop\n      pop\n      pop\n      mload(0x40)\n      returndatasize\n      not(0x1f)\n      0x1f\n      dup3\n      add\n      and\n      dup3\n      add\n      dup1\n      0x40\n      mstore\n      pop\n      dup2\n      add\n      swap1\n      tag_68\n      swap2\n      swap1\n      tag_69\n      jump\t// in\n    tag_68:\n        /* \"contract-45ea2eace7.sol\":2303:2305  10 */\n      0x0a\n        /* \"contract-45ea2eace7.sol\":2303:2331  10 ** votingToken.decimals() */\n      tag_70\n      swap2\n      swap1\n      tag_71\n      jump\t// in\n    tag_70:\n        /* \"contract-45ea2eace7.sol\":2299:2300  1 */\n      0x01\n        /* \"contract-45ea2eace7.sol\":2299:2331  1 * 10 ** votingToken.decimals() */\n      tag_72\n      swap2\n      swap1\n      tag_73\n      jump\t// in\n    tag_72:\n        /* \"contract-45ea2eace7.sol\":2278:2331  uint256 votingCost = 1 * 10 ** votingToken.decimals() */\n      swap1\n      pop\n        /* \"contract-45ea2eace7.sol\":2386:2396  votingCost */\n      dup1\n        /* \"contract-45ea2eace7.sol\":2349:2360  votingToken */\n      0x01\n      0x00\n      swap1\n      sload\n      swap1\n      0x0100\n      exp\n      swap1\n      div\n      0xffffffffffffffffffffffffffffffffffffffff\n      and\n        /* \"contract-45ea2eace7.sol\":2349:2370  votingToken.balanceOf */\n      0xffffffffffffffffffffffffffffffffffffffff\n      and\n      0x70a08231\n        /* \"contract-45ea2eace7.sol\":2371:2381  msg.sender */\n      caller\n        /* \"contract-45ea2eace7.sol\":2349:2382  votingToken.balanceOf(msg.sender) */\n      mload(0x40)\n      dup3\n      0xffffffff\n      and\n      0xe0\n      shl\n      dup2\n      mstore\n      0x04\n      add\n      tag_74\n      swap2\n      swap1\n      tag_44\n      jump\t// in\n    tag_74:\n      0x20\n      mload(0x40)\n      dup1\n      dup4\n      sub\n      dup2\n      dup7\n      gas\n      staticcall\n      iszero\n      dup1\n      iszero\n      tag_76\n      jumpi\n      returndatacopy(0x00, 0x00, returndatasize)\n      revert(0x00, returndatasize)\n    tag_76:\n      pop\n      pop\n      pop\n      pop\n      mload(0x40)\n      returndatasize\n      not(0x1f)\n      0x1f\n      dup3\n      add\n      and\n      dup3\n      add\n      dup1\n      0x40\n      mstore\n      pop\n      dup2\n      add\n      swap1\n      tag_77\n      swap2\n      swap1\n      tag_78\n      jump\t// in\n    tag_77:\n        /* \"contract-45ea2eace7.sol\":2349:2396  votingToken.balanceOf(msg.sender) >= votingCost */\n      lt\n      iszero\n        /* \"contract-45ea2eace7.sol\":2341:2426  require(votingToken.balanceOf(msg.sender) >= votingCost, \"Not enough tokens to vote\") */\n      tag_79\n      jumpi\n      mload(0x40)\n      0x08c379a000000000000000000000000000000000000000000000000000000000\n      dup2\n      mstore\n      0x04\n      add\n      tag_80\n      swap1\n      tag_81\n      jump\t// in\n    tag_80:\n      mload(0x40)\n      dup1\n      swap2\n      sub\n      swap1\n      revert\n    tag_79:\n        /* \"contract-45ea2eace7.sol\":2509:2519  votingCost */\n      dup1\n        /* \"contract-45ea2eace7.sol\":2457:2468  votingToken */\n      0x01\n      0x00\n      swap1\n      sload\n      swap1\n      0x0100\n      exp\n      swap1\n      div\n      0xffffffffffffffffffffffffffffffffffffffff\n      and\n        /* \"contract-45ea2eace7.sol\":2457:2478  votingToken.allowance */\n      0xffffffffffffffffffffffffffffffffffffffff\n      and\n      0xdd62ed3e\n        /* \"contract-45ea2eace7.sol\":2479:2489  msg.sender */\n      caller\n        /* \"contract-45ea2eace7.sol\":2499:2503  this */\n      address\n        /* \"contract-45ea2eace7.sol\":2457:2505  votingToken.allowance(msg.sender, address(this)) */\n      mload(0x40)\n      dup4\n      0xffffffff\n      and\n      0xe0\n      shl\n      dup2\n      mstore\n      0x04\n      add\n      tag_82\n      swap3\n      swap2\n      swap1\n      tag_83\n      jump\t// in\n    tag_82:\n      0x20\n      mload(0x40)\n      dup1\n      dup4\n      sub\n      dup2\n      dup7\n      gas\n      staticcall\n      iszero\n      dup1\n      iszero\n      tag_85\n      jumpi\n      returndatacopy(0x00, 0x00, returndatasize)\n      revert(0x00, returndatasize)\n    tag_85:\n      pop\n      pop\n      pop\n      pop\n      mload(0x40)\n      returndatasize\n      not(0x1f)\n      0x1f\n      dup3\n      add\n      and\n      dup3\n      add\n      dup1\n      0x40\n      mstore\n      pop\n      dup2\n      add\n      swap1\n      tag_86\n      swap2\n      swap1\n      tag_78\n      jump\t// in\n    tag_86:\n        /* \"contract-45ea2eace7.sol\":2457:2519  votingToken.allowance(msg.sender, address(this)) >= votingCost */\n      lt\n      iszero\n        /* \"contract-45ea2eace7.sol\":2436:2565  require(... */\n      tag_87\n      jumpi\n      mload(0x40)\n      0x08c379a000000000000000000000000000000000000000000000000000000000\n      dup2\n      mstore\n      0x04\n      add\n      tag_88\n      swap1\n      tag_89\n      jump\t// in\n    tag_88:\n      mload(0x40)\n      dup1\n      swap2\n      sub\n      swap1\n      revert\n    tag_87:\n        /* \"contract-45ea2eace7.sol\":2576:2583  bool ok */\n      0x00\n        /* \"contract-45ea2eace7.sol\":2586:2597  votingToken */\n      0x01\n      0x00\n      swap1\n      sload\n      swap1\n      0x0100\n      exp\n      swap1\n      div\n      0xffffffffffffffffffffffffffffffffffffffff\n      and\n        /* \"contract-45ea2eace7.sol\":2586:2610  votingToken.transferFrom */\n      0xffffffffffffffffffffffffffffffffffffffff\n      and\n      0x23b872dd\n        /* \"contract-45ea2eace7.sol\":2611:2621  msg.sender */\n      caller\n        /* \"contract-45ea2eace7.sol\":2631:2635  this */\n      address\n        /* \"contract-45ea2eace7.sol\":2638:2648  votingCost */\n      dup6\n        /* \"contract-45ea2eace7.sol\":2586:2649  votingToken.transferFrom(msg.sender, address(this), votingCost) */\n      mload(0x40)\n      dup5\n      0xffffffff\n      and\n      0xe0\n      shl\n      dup2\n      mstore\n      0x04\n      add\n      tag_90\n      swap4\n      swap3\n      swap2\n      swap1\n      tag_91\n      jump\t// in\n    tag_90:\n      0x20\n      mload(0x40)\n      dup1\n      dup4\n      sub\n      dup2\n      0x00\n      dup8\n      gas\n      call\n      iszero\n      dup1\n      iszero\n      tag_93\n      jumpi\n      returndatacopy(0x00, 0x00, returndatasize)\n      revert(0x00, returndatasize)\n    tag_93:\n      pop\n      pop\n      pop\n      pop\n      mload(0x40)\n      returndatasize\n      not(0x1f)\n      0x1f\n      dup3\n      add\n      and\n      dup3\n      add\n      dup1\n      0x40\n      mstore\n      pop\n      dup2\n      add\n      swap1\n      tag_94\n      swap2\n      swap1\n      tag_95\n      jump\t// in\n    tag_94:\n        /* \"contract-45ea2eace7.sol\":2576:2649  bool ok = votingToken.transferFrom(msg.sender, address(this), votingCost) */\n      swap1\n      pop\n        /* \"contract-45ea2eace7.sol\":2667:2669  ok */\n      dup1\n        /* \"contract-45ea2eace7.sol\":2659:2689  require(ok, \"Transfer failed\") */\n      tag_96\n      jumpi\n      mload(0x40)\n      0x08c379a000000000000000000000000000000000000000000000000000000000\n      dup2\n      mstore\n      0x04\n      add\n      tag_97\n      swap1\n      tag_98\n      jump\t// in\n    tag_97:\n      mload(0x40)\n      dup1\n      swap2\n      sub\n      swap1\n      revert\n    tag_96:\n        /* \"contract-45ea2eace7.sol\":2721:2725  true */\n      0x01\n        /* \"contract-45ea2eace7.sol\":2700:2706  voters */\n      0x03\n        /* \"contract-45ea2eace7.sol\":2700:2718  voters[msg.sender] */\n      0x00\n        /* \"contract-45ea2eace7.sol\":2707:2717  msg.sender */\n      caller\n        /* \"contract-45ea2eace7.sol\":2700:2718  voters[msg.sender] */\n      0xffffffffffffffffffffffffffffffffffffffff\n      and\n      0xffffffffffffffffffffffffffffffffffffffff\n      and\n      dup2\n      mstore\n      0x20\n      add\n      swap1\n      dup2\n      mstore\n      0x20\n      add\n      0x00\n      keccak256\n      0x00\n        /* \"contract-45ea2eace7.sol\":2700:2725  voters[msg.sender] = true */\n      0x0100\n      exp\n      dup2\n      sload\n      dup2\n      0xff\n      mul\n      not\n      and\n      swap1\n      dup4\n      iszero\n      iszero\n      mul\n      or\n      swap1\n      sstore\n      pop\n        /* \"contract-45ea2eace7.sol\":2773:2774  1 */\n      0x01\n        /* \"contract-45ea2eace7.sol\":2735:2745  candidates */\n      0x02\n        /* \"contract-45ea2eace7.sol\":2735:2759  candidates[_candidateId] */\n      0x00\n        /* \"contract-45ea2eace7.sol\":2746:2758  _candidateId */\n      dup6\n        /* \"contract-45ea2eace7.sol\":2735:2759  candidates[_candidateId] */\n      dup2\n      mstore\n      0x20\n      add\n      swap1\n      dup2\n      mstore\n      0x20\n      add\n      0x00\n      keccak256\n        /* \"contract-45ea2eace7.sol\":2735:2769  candidates[_candidateId].voteCount */\n      0x02\n      add\n      0x00\n        /* \"contract-45ea2eace7.sol\":2735:2774  candidates[_candidateId].voteCount += 1 */\n      dup3\n      dup3\n      sload\n      tag_99\n      swap2\n      swap1\n      tag_100\n      jump\t// in\n    tag_99:\n      swap3\n      pop\n      pop\n      dup2\n      swap1\n      sstore\n      pop\n        /* \"contract-45ea2eace7.sol\":2810:2820  msg.sender */\n      caller\n        /* \"contract-45ea2eace7.sol\":2790:2821  Voted(_candidateId, msg.sender) */\n      0xffffffffffffffffffffffffffffffffffffffff\n      and\n        /* \"contract-45ea2eace7.sol\":2796:2808  _candidateId */\n      dup4\n        /* \"contract-45ea2eace7.sol\":2790:2821  Voted(_candidateId, msg.sender) */\n      0x030b0f8dcd86a031eddb071f91882edeac8173663ba775713b677b42b51be44b\n      mload(0x40)\n      mload(0x40)\n      dup1\n      swap2\n      sub\n      swap1\n      log3\n        /* \"contract-45ea2eace7.sol\":2112:2828  {... */\n      pop\n      pop\n        /* \"contract-45ea2eace7.sol\":2069:2828  function vote(uint256 _candidateId) public {... */\n      pop\n      jump\t// out\n        /* \"contract-45ea2eace7.sol\":1474:1504  uint256 public candidatesCount */\n    tag_20:\n      sload(0x04)\n      dup2\n      jump\t// out\n        /* \"contract-45ea2eace7.sol\":3213:3475  function withdrawTokens(uint256 amount) public onlyOwner {... */\n    tag_25:\n        /* \"@openzeppelin/contracts@5.4.0/access/Ownable.sol\":1531:1544  _checkOwner() */\n      tag_102\n        /* \"@openzeppelin/contracts@5.4.0/access/Ownable.sol\":1531:1542  _checkOwner */\n      tag_103\n        /* \"@openzeppelin/contracts@5.4.0/access/Ownable.sol\":1531:1544  _checkOwner() */\n      jump\t// in\n    tag_102:\n        /* \"contract-45ea2eace7.sol\":3328:3334  amount */\n      dup1\n        /* \"contract-45ea2eace7.sol\":3288:3299  votingToken */\n      0x01\n      0x00\n      swap1\n      sload\n      swap1\n      0x0100\n      exp\n      swap1\n      div\n      0xffffffffffffffffffffffffffffffffffffffff\n      and\n        /* \"contract-45ea2eace7.sol\":3288:3309  votingToken.balanceOf */\n      0xffffffffffffffffffffffffffffffffffffffff\n      and\n      0x70a08231\n        /* \"contract-45ea2eace7.sol\":3318:3322  this */\n      address\n        /* \"contract-45ea2eace7.sol\":3288:3324  votingToken.balanceOf(address(this)) */\n      mload(0x40)\n      dup3\n      0xffffffff\n      and\n      0xe0\n      shl\n      dup2\n      mstore\n      0x04\n      add\n      tag_105\n      swap2\n      swap1\n      tag_44\n      jump\t// in\n    tag_105:\n      0x20\n      mload(0x40)\n      dup1\n      dup4\n      sub\n      dup2\n      dup7\n      gas\n      staticcall\n      iszero\n      dup1\n      iszero\n      tag_107\n      jumpi\n      returndatacopy(0x00, 0x00, returndatasize)\n      revert(0x00, returndatasize)\n    tag_107:\n      pop\n      pop\n      pop\n      pop\n      mload(0x40)\n      returndatasize\n      not(0x1f)\n      0x1f\n      dup3\n      add\n      and\n      dup3\n      add\n      dup1\n      0x40\n      mstore\n      pop\n      dup2\n      add\n      swap1\n      tag_108\n      swap2\n      swap1\n      tag_78\n      jump\t// in\n    tag_108:\n        /* \"contract-45ea2eace7.sol\":3288:3334  votingToken.balanceOf(address(this)) >= amount */\n      lt\n      iszero\n        /* \"contract-45ea2eace7.sol\":3280:3368  require(votingToken.balanceOf(address(this)) >= amount, \"Not enough tokens in contract\") */\n      tag_109\n      jumpi\n      mload(0x40)\n      0x08c379a000000000000000000000000000000000000000000000000000000000\n      dup2\n      mstore\n      0x04\n      add\n      tag_110\n      swap1\n      tag_111\n      jump\t// in\n    tag_110:\n      mload(0x40)\n      dup1\n      swap2\n      sub\n      swap1\n      revert\n    tag_109:\n        /* \"contract-45ea2eace7.sol\":3378:3385  bool ok */\n      0x00\n        /* \"contract-45ea2eace7.sol\":3388:3399  votingToken */\n      0x01\n      0x00\n      swap1\n      sload\n      swap1\n      0x0100\n      exp\n      swap1\n      div\n      0xffffffffffffffffffffffffffffffffffffffff\n      and\n        /* \"contract-45ea2eace7.sol\":3388:3408  votingToken.transfer */\n      0xffffffffffffffffffffffffffffffffffffffff\n      and\n      0xa9059cbb\n        /* \"contract-45ea2eace7.sol\":3409:3419  msg.sender */\n      caller\n        /* \"contract-45ea2eace7.sol\":3421:3427  amount */\n      dup5\n        /* \"contract-45ea2eace7.sol\":3388:3428  votingToken.transfer(msg.sender, amount) */\n      mload(0x40)\n      dup4\n      0xffffffff\n      and\n      0xe0\n      shl\n      dup2\n      mstore\n      0x04\n      add\n      tag_112\n      swap3\n      swap2\n      swap1\n      tag_113\n      jump\t// in\n    tag_112:\n      0x20\n      mload(0x40)\n      dup1\n      dup4\n      sub\n      dup2\n      0x00\n      dup8\n      gas\n      call\n      iszero\n      dup1\n      iszero\n      tag_115\n      jumpi\n      returndatacopy(0x00, 0x00, returndatasize)\n      revert(0x00, returndatasize)\n    tag_115:\n      pop\n      pop\n      pop\n      pop\n      mload(0x40)\n      returndatasize\n      not(0x1f)\n      0x1f\n      dup3\n      add\n      and\n      dup3\n      add\n      dup1\n      0x40\n      mstore\n      pop\n      dup2\n      add\n      swap1\n      tag_116\n      swap2\n      swap1\n      tag_95\n      jump\t// in\n    tag_116:\n        /* \"contract-45ea2eace7.sol\":3378:3428  bool ok = votingToken.transfer(msg.sender, amount) */\n      swap1\n      pop\n        /* \"contract-45ea2eace7.sol\":3446:3448  ok */\n      dup1\n        /* \"contract-45ea2eace7.sol\":3438:3468  require(ok, \"Transfer failed\") */\n      tag_117\n      jumpi\n      mload(0x40)\n      0x08c379a000000000000000000000000000000000000000000000000000000000\n      dup2\n      mstore\n      0x04\n      add\n      tag_118\n      swap1\n      tag_98\n      jump\t// in\n    tag_118:\n      mload(0x40)\n      dup1\n      swap2\n      sub\n      swap1\n      revert\n    tag_117:\n        /* \"contract-45ea2eace7.sol\":3270:3475  {... */\n      pop\n        /* \"contract-45ea2eace7.sol\":3213:3475  function withdrawTokens(uint256 amount) public onlyOwner {... */\n      pop\n      jump\t// out\n        /* \"contract-45ea2eace7.sol\":1377:1424  mapping(uint256 => Candidate) public candidates */\n    tag_28:\n      mstore(0x20, 0x02)\n      dup1\n      0x00\n      mstore\n      keccak256(0x00, 0x40)\n      0x00\n      swap2\n      pop\n      swap1\n      pop\n      dup1\n      0x00\n      add\n      sload\n      swap1\n      dup1\n      0x01\n      add\n      dup1\n      sload\n      tag_119\n      swap1\n      tag_120\n      jump\t// in\n    tag_119:\n      dup1\n      0x1f\n      add\n      0x20\n      dup1\n      swap2\n      div\n      mul\n      0x20\n      add\n      mload(0x40)\n      swap1\n      dup2\n      add\n      0x40\n      mstore\n      dup1\n      swap3\n      swap2\n      swap1\n      dup2\n      dup2\n      mstore\n      0x20\n      add\n      dup3\n      dup1\n      sload\n      tag_121\n      swap1\n      tag_120\n      jump\t// in\n    tag_121:\n      dup1\n      iszero\n      tag_122\n      jumpi\n      dup1\n      0x1f\n      lt\n      tag_123\n      jumpi\n      0x0100\n      dup1\n      dup4\n      sload\n      div\n      mul\n      dup4\n      mstore\n      swap2\n      0x20\n      add\n      swap2\n      jump(tag_122)\n    tag_123:\n      dup3\n      add\n      swap2\n      swap1\n      0x00\n      mstore\n      keccak256(0x00, 0x20)\n      swap1\n    tag_124:\n      dup2\n      sload\n      dup2\n      mstore\n      swap1\n      0x01\n      add\n      swap1\n      0x20\n      add\n      dup1\n      dup4\n      gt\n      tag_124\n      jumpi\n      dup3\n      swap1\n      sub\n      0x1f\n      and\n      dup3\n      add\n      swap2\n    tag_122:\n      pop\n      pop\n      pop\n      pop\n      pop\n      swap1\n      dup1\n      0x02\n      add\n      sload\n      swap1\n      pop\n      dup4\n      jump\t// out\n        /* \"contract-45ea2eace7.sol\":2834:3207  function getCandidate(uint256 _candidateId)... */\n    tag_33:\n        /* \"contract-45ea2eace7.sol\":2923:2933  uint256 id */\n      0x00\n        /* \"contract-45ea2eace7.sol\":2935:2953  string memory name */\n      0x60\n        /* \"contract-45ea2eace7.sol\":2955:2972  uint256 voteCount */\n      0x00\n        /* \"contract-45ea2eace7.sol\":3011:3012  0 */\n      0x00\n        /* \"contract-45ea2eace7.sol\":2996:3008  _candidateId */\n      dup5\n        /* \"contract-45ea2eace7.sol\":2996:3012  _candidateId > 0 */\n      gt\n        /* \"contract-45ea2eace7.sol\":2996:3047  _candidateId > 0 && _candidateId <= candidatesCount */\n      dup1\n      iszero\n      tag_126\n      jumpi\n      pop\n        /* \"contract-45ea2eace7.sol\":3032:3047  candidatesCount */\n      sload(0x04)\n        /* \"contract-45ea2eace7.sol\":3016:3028  _candidateId */\n      dup5\n        /* \"contract-45ea2eace7.sol\":3016:3047  _candidateId <= candidatesCount */\n      gt\n      iszero\n        /* \"contract-45ea2eace7.sol\":2996:3047  _candidateId > 0 && _candidateId <= candidatesCount */\n    tag_126:\n        /* \"contract-45ea2eace7.sol\":2988:3069  require(_candidateId > 0 && _candidateId <= candidatesCount, \"Invalid candidate\") */\n      tag_127\n      jumpi\n      mload(0x40)\n      0x08c379a000000000000000000000000000000000000000000000000000000000\n      dup2\n      mstore\n      0x04\n      add\n      tag_128\n      swap1\n      tag_65\n      jump\t// in\n    tag_128:\n      mload(0x40)\n      dup1\n      swap2\n      sub\n      swap1\n      revert\n    tag_127:\n        /* \"contract-45ea2eace7.sol\":3079:3105  Candidate memory candidate */\n      0x00\n        /* \"contract-45ea2eace7.sol\":3108:3118  candidates */\n      0x02\n        /* \"contract-45ea2eace7.sol\":3108:3132  candidates[_candidateId] */\n      0x00\n        /* \"contract-45ea2eace7.sol\":3119:3131  _candidateId */\n      dup7\n        /* \"contract-45ea2eace7.sol\":3108:3132  candidates[_candidateId] */\n      dup2\n      mstore\n      0x20\n      add\n      swap1\n      dup2\n      mstore\n      0x20\n      add\n      0x00\n      keccak256\n        /* \"contract-45ea2eace7.sol\":3079:3132  Candidate memory candidate = candidates[_candidateId] */\n      mload(0x40)\n      dup1\n      0x60\n      add\n      0x40\n      mstore\n      swap1\n      dup2\n      0x00\n      dup3\n      add\n      sload\n      dup2\n      mstore\n      0x20\n      add\n      0x01\n      dup3\n      add\n      dup1\n      sload\n      tag_129\n      swap1\n      tag_120\n      jump\t// in\n    tag_129:\n      dup1\n      0x1f\n      add\n      0x20\n      dup1\n      swap2\n      div\n      mul\n      0x20\n      add\n      mload(0x40)\n      swap1\n      dup2\n      add\n      0x40\n      mstore\n      dup1\n      swap3\n      swap2\n      swap1\n      dup2\n      dup2\n      mstore\n      0x20\n      add\n      dup3\n      dup1\n      sload\n      tag_130\n      swap1\n      tag_120\n      jump\t// in\n    tag_130:\n      dup1\n      iszero\n      tag_131\n      jumpi\n      dup1\n      0x1f\n      lt\n      tag_132\n      jumpi\n      0x0100\n      dup1\n      dup4\n      sload\n      div\n      mul\n      dup4\n      mstore\n      swap2\n      0x20\n      add\n      swap2\n      jump(tag_131)\n    tag_132:\n      dup3\n      add\n      swap2\n      swap1\n      0x00\n      mstore\n      keccak256(0x00, 0x20)\n      swap1\n    tag_133:\n      dup2\n      sload\n      dup2\n      mstore\n      swap1\n      0x01\n      add\n      swap1\n      0x20\n      add\n      dup1\n      dup4\n      gt\n      tag_133\n      jumpi\n      dup3\n      swap1\n      sub\n      0x1f\n      and\n      dup3\n      add\n      swap2\n    tag_131:\n      pop\n      pop\n      pop\n      pop\n      pop\n      dup2\n      mstore\n      0x20\n      add\n      0x02\n      dup3\n      add\n      sload\n      dup2\n      mstore\n      pop\n      pop\n      swap1\n      pop\n        /* \"contract-45ea2eace7.sol\":3150:3159  candidate */\n      dup1\n        /* \"contract-45ea2eace7.sol\":3150:3162  candidate.id */\n      0x00\n      add\n      mload\n        /* \"contract-45ea2eace7.sol\":3164:3173  candidate */\n      dup2\n        /* \"contract-45ea2eace7.sol\":3164:3178  candidate.name */\n      0x20\n      add\n      mload\n        /* \"contract-45ea2eace7.sol\":3180:3189  candidate */\n      dup3\n        /* \"contract-45ea2eace7.sol\":3180:3199  candidate.voteCount */\n      0x40\n      add\n      mload\n        /* \"contract-45ea2eace7.sol\":3142:3200  return (candidate.id, candidate.name, candidate.voteCount) */\n      swap4\n      pop\n      swap4\n      pop\n      swap4\n      pop\n      pop\n        /* \"contract-45ea2eace7.sol\":2834:3207  function getCandidate(uint256 _candidateId)... */\n      swap2\n      swap4\n      swap1\n      swap3\n      pop\n      jump\t// out\n        /* \"contract-45ea2eace7.sol\":1797:1894  function addCandidate(string memory _name) public onlyOwner {... */\n    tag_38:\n        /* \"@openzeppelin/contracts@5.4.0/access/Ownable.sol\":1531:1544  _checkOwner() */\n      tag_135\n        /* \"@openzeppelin/contracts@5.4.0/access/Ownable.sol\":1531:1542  _checkOwner */\n      tag_103\n        /* \"@openzeppelin/contracts@5.4.0/access/Ownable.sol\":1531:1544  _checkOwner() */\n      jump\t// in\n    tag_135:\n        /* \"contract-45ea2eace7.sol\":1867:1887  _addCandidate(_name) */\n      tag_137\n        /* \"contract-45ea2eace7.sol\":1881:1886  _name */\n      dup2\n        /* \"contract-45ea2eace7.sol\":1867:1880  _addCandidate */\n      tag_138\n        /* \"contract-45ea2eace7.sol\":1867:1887  _addCandidate(_name) */\n      jump\t// in\n    tag_137:\n        /* \"contract-45ea2eace7.sol\":1797:1894  function addCandidate(string memory _name) public onlyOwner {... */\n      pop\n      jump\t// out\n        /* \"@openzeppelin/contracts@5.4.0/access/Ownable.sol\":2293:2394  function renounceOwnership() public virtual onlyOwner {... */\n    tag_40:\n        /* \"@openzeppelin/contracts@5.4.0/access/Ownable.sol\":1531:1544  _checkOwner() */\n      tag_140\n        /* \"@openzeppelin/contracts@5.4.0/access/Ownable.sol\":1531:1542  _checkOwner */\n      tag_103\n        /* \"@openzeppelin/contracts@5.4.0/access/Ownable.sol\":1531:1544  _checkOwner() */\n      jump\t// in\n    tag_140:\n        /* \"@openzeppelin/contracts@5.4.0/access/Ownable.sol\":2357:2387  _transferOwnership(address(0)) */\n      tag_142\n        /* \"@openzeppelin/contracts@5.4.0/access/Ownable.sol\":2384:2385  0 */\n      0x00\n        /* \"@openzeppelin/contracts@5.4.0/access/Ownable.sol\":2357:2375  _transferOwnership */\n      tag_143\n        /* \"@openzeppelin/contracts@5.4.0/access/Ownable.sol\":2357:2387  _transferOwnership(address(0)) */\n      jump\t// in\n    tag_142:\n        /* \"@openzeppelin/contracts@5.4.0/access/Ownable.sol\":2293:2394  function renounceOwnership() public virtual onlyOwner {... */\n      jump\t// out\n        /* \"@openzeppelin/contracts@5.4.0/access/Ownable.sol\":1638:1723  function owner() public view virtual returns (address) {... */\n    tag_42:\n        /* \"@openzeppelin/contracts@5.4.0/access/Ownable.sol\":1684:1691  address */\n      0x00\n        /* \"@openzeppelin/contracts@5.4.0/access/Ownable.sol\":1710:1716  _owner */\n      0x00\n      0x00\n      swap1\n      sload\n      swap1\n      0x0100\n      exp\n      swap1\n      div\n      0xffffffffffffffffffffffffffffffffffffffff\n      and\n        /* \"@openzeppelin/contracts@5.4.0/access/Ownable.sol\":1703:1716  return _owner */\n      swap1\n      pop\n        /* \"@openzeppelin/contracts@5.4.0/access/Ownable.sol\":1638:1723  function owner() public view virtual returns (address) {... */\n      swap1\n      jump\t// out\n        /* \"contract-45ea2eace7.sol\":1430:1468  mapping(address => bool) public voters */\n    tag_48:\n      mstore(0x20, 0x03)\n      dup1\n      0x00\n      mstore\n      keccak256(0x00, 0x40)\n      0x00\n      swap2\n      pop\n      sload\n      swap1\n      0x0100\n      exp\n      swap1\n      div\n      0xff\n      and\n      dup2\n      jump\t// out\n        /* \"contract-45ea2eace7.sol\":1341:1371  VotingToken public votingToken */\n    tag_52:\n      0x01\n      0x00\n      swap1\n      sload\n      swap1\n      0x0100\n      exp\n      swap1\n      div\n      0xffffffffffffffffffffffffffffffffffffffff\n      and\n      dup2\n      jump\t// out\n        /* \"@openzeppelin/contracts@5.4.0/access/Ownable.sol\":2543:2758  function transferOwnership(address newOwner) public virtual onlyOwner {... */\n    tag_57:\n        /* \"@openzeppelin/contracts@5.4.0/access/Ownable.sol\":1531:1544  _checkOwner() */\n      tag_146\n        /* \"@openzeppelin/contracts@5.4.0/access/Ownable.sol\":1531:1542  _checkOwner */\n      tag_103\n        /* \"@openzeppelin/contracts@5.4.0/access/Ownable.sol\":1531:1544  _checkOwner() */\n      jump\t// in\n    tag_146:\n        /* \"@openzeppelin/contracts@5.4.0/access/Ownable.sol\":2647:2648  0 */\n      0x00\n        /* \"@openzeppelin/contracts@5.4.0/access/Ownable.sol\":2627:2649  newOwner == address(0) */\n      0xffffffffffffffffffffffffffffffffffffffff\n      and\n        /* \"@openzeppelin/contracts@5.4.0/access/Ownable.sol\":2627:2635  newOwner */\n      dup2\n        /* \"@openzeppelin/contracts@5.4.0/access/Ownable.sol\":2627:2649  newOwner == address(0) */\n      0xffffffffffffffffffffffffffffffffffffffff\n      and\n      sub\n        /* \"@openzeppelin/contracts@5.4.0/access/Ownable.sol\":2623:2714  if (newOwner == address(0)) {... */\n      tag_148\n      jumpi\n        /* \"@openzeppelin/contracts@5.4.0/access/Ownable.sol\":2700:2701  0 */\n      0x00\n        /* \"@openzeppelin/contracts@5.4.0/access/Ownable.sol\":2672:2703  OwnableInvalidOwner(address(0)) */\n      mload(0x40)\n      0x1e4fbdf700000000000000000000000000000000000000000000000000000000\n      dup2\n      mstore\n      0x04\n      add\n      tag_149\n      swap2\n      swap1\n      tag_44\n      jump\t// in\n    tag_149:\n      mload(0x40)\n      dup1\n      swap2\n      sub\n      swap1\n      revert\n        /* \"@openzeppelin/contracts@5.4.0/access/Ownable.sol\":2623:2714  if (newOwner == address(0)) {... */\n    tag_148:\n        /* \"@openzeppelin/contracts@5.4.0/access/Ownable.sol\":2723:2751  _transferOwnership(newOwner) */\n      tag_150\n        /* \"@openzeppelin/contracts@5.4.0/access/Ownable.sol\":2742:2750  newOwner */\n      dup2\n        /* \"@openzeppelin/contracts@5.4.0/access/Ownable.sol\":2723:2741  _transferOwnership */\n      tag_143\n        /* \"@openzeppelin/contracts@5.4.0/access/Ownable.sol\":2723:2751  _transferOwnership(newOwner) */\n      jump\t// in\n    tag_150:\n        /* \"@openzeppelin/contracts@5.4.0/access/Ownable.sol\":2543:2758  function transferOwnership(address newOwner) public virtual onlyOwner {... */\n      pop\n      jump\t// out\n        /* \"@openzeppelin/contracts@5.4.0/access/Ownable.sol\":1796:1958  function _checkOwner() internal view virtual {... */\n    tag_103:\n        /* \"@openzeppelin/contracts@5.4.0/access/Ownable.sol\":1866:1878  _msgSender() */\n      tag_152\n        /* \"@openzeppelin/contracts@5.4.0/access/Ownable.sol\":1866:1876  _msgSender */\n      tag_153\n        /* \"@openzeppelin/contracts@5.4.0/access/Ownable.sol\":1866:1878  _msgSender() */\n      jump\t// in\n    tag_152:\n        /* \"@openzeppelin/contracts@5.4.0/access/Ownable.sol\":1855:1878  owner() != _msgSender() */\n      0xffffffffffffffffffffffffffffffffffffffff\n      and\n        /* \"@openzeppelin/contracts@5.4.0/access/Ownable.sol\":1855:1862  owner() */\n      tag_154\n        /* \"@openzeppelin/contracts@5.4.0/access/Ownable.sol\":1855:1860  owner */\n      tag_42\n        /* \"@openzeppelin/contracts@5.4.0/access/Ownable.sol\":1855:1862  owner() */\n      jump\t// in\n    tag_154:\n        /* \"@openzeppelin/contracts@5.4.0/access/Ownable.sol\":1855:1878  owner() != _msgSender() */\n      0xffffffffffffffffffffffffffffffffffffffff\n      and\n      eq\n        /* \"@openzeppelin/contracts@5.4.0/access/Ownable.sol\":1851:1952  if (owner() != _msgSender()) {... */\n      tag_155\n      jumpi\n        /* \"@openzeppelin/contracts@5.4.0/access/Ownable.sol\":1928:1940  _msgSender() */\n      tag_156\n        /* \"@openzeppelin/contracts@5.4.0/access/Ownable.sol\":1928:1938  _msgSender */\n      tag_153\n        /* \"@openzeppelin/contracts@5.4.0/access/Ownable.sol\":1928:1940  _msgSender() */\n      jump\t// in\n    tag_156:\n        /* \"@openzeppelin/contracts@5.4.0/access/Ownable.sol\":1901:1941  OwnableUnauthorizedAccount(_msgSender()) */\n      mload(0x40)\n      0x118cdaa700000000000000000000000000000000000000000000000000000000\n      dup2\n      mstore\n      0x04\n      add\n      tag_157\n      swap2\n      swap1\n      tag_44\n      jump\t// in\n    tag_157:\n      mload(0x40)\n      dup1\n      swap2\n      sub\n      swap1\n      revert\n        /* \"@openzeppelin/contracts@5.4.0/access/Ownable.sol\":1851:1952  if (owner() != _msgSender()) {... */\n    tag_155:\n        /* \"@openzeppelin/contracts@5.4.0/access/Ownable.sol\":1796:1958  function _checkOwner() internal view virtual {... */\n      jump\t// out\n        /* \"contract-45ea2eace7.sol\":1900:2063  function _addCandidate(string memory _name) internal {... */\n    tag_138:\n        /* \"contract-45ea2eace7.sol\":1963:1978  candidatesCount */\n      0x04\n      0x00\n        /* \"contract-45ea2eace7.sol\":1963:1980  candidatesCount++ */\n      dup2\n      sload\n      dup1\n      swap3\n      swap2\n      swap1\n      tag_159\n      swap1\n      tag_160\n      jump\t// in\n    tag_159:\n      swap2\n      swap1\n      pop\n      sstore\n      pop\n        /* \"contract-45ea2eace7.sol\":2020:2056  Candidate(candidatesCount, _name, 0) */\n      mload(0x40)\n      dup1\n      0x60\n      add\n      0x40\n      mstore\n      dup1\n        /* \"contract-45ea2eace7.sol\":2030:2045  candidatesCount */\n      sload(0x04)\n        /* \"contract-45ea2eace7.sol\":2020:2056  Candidate(candidatesCount, _name, 0) */\n      dup2\n      mstore\n      0x20\n      add\n        /* \"contract-45ea2eace7.sol\":2047:2052  _name */\n      dup3\n        /* \"contract-45ea2eace7.sol\":2020:2056  Candidate(candidatesCount, _name, 0) */\n      dup2\n      mstore\n      0x20\n      add\n        /* \"contract-45ea2eace7.sol\":2054:2055  0 */\n      0x00\n        /* \"contract-45ea2eace7.sol\":2020:2056  Candidate(candidatesCount, _name, 0) */\n      dup2\n      mstore\n      pop\n        /* \"contract-45ea2eace7.sol\":1990:2000  candidates */\n      0x02\n        /* \"contract-45ea2eace7.sol\":1990:2017  candidates[candidatesCount] */\n      0x00\n        /* \"contract-45ea2eace7.sol\":2001:2016  candidatesCount */\n      sload(0x04)\n        /* \"contract-45ea2eace7.sol\":1990:2017  candidates[candidatesCount] */\n      dup2\n      mstore\n      0x20\n      add\n      swap1\n      dup2\n      mstore\n      0x20\n      add\n      0x00\n      keccak256\n        /* \"contract-45ea2eace7.sol\":1990:2056  candidates[candidatesCount] = Candidate(candidatesCount, _name, 0) */\n      0x00\n      dup3\n      add\n      mload\n      dup2\n      0x00\n      add\n      sstore\n      0x20\n      dup3\n      add\n      mload\n      dup2\n      0x01\n      add\n      swap1\n      dup2\n      tag_161\n      swap2\n      swap1\n      tag_162\n      jump\t// in\n    tag_161:\n      pop\n      0x40\n      dup3\n      add\n      mload\n      dup2\n      0x02\n      add\n      sstore\n      swap1\n      pop\n      pop\n        /* \"contract-45ea2eace7.sol\":1900:2063  function _addCandidate(string memory _name) internal {... */\n      pop\n      jump\t// out\n        /* \"@openzeppelin/contracts@5.4.0/access/Ownable.sol\":2912:3099  function _transferOwnership(address newOwner) internal virtual {... */\n    tag_143:\n        /* \"@openzeppelin/contracts@5.4.0/access/Ownable.sol\":2985:3001  address oldOwner */\n      0x00\n        /* \"@openzeppelin/contracts@5.4.0/access/Ownable.sol\":3004:3010  _owner */\n      0x00\n      0x00\n      swap1\n      sload\n      swap1\n      0x0100\n      exp\n      swap1\n      div\n      0xffffffffffffffffffffffffffffffffffffffff\n      and\n        /* \"@openzeppelin/contracts@5.4.0/access/Ownable.sol\":2985:3010  address oldOwner = _owner */\n      swap1\n      pop\n        /* \"@openzeppelin/contracts@5.4.0/access/Ownable.sol\":3029:3037  newOwner */\n      dup2\n        /* \"@openzeppelin/contracts@5.4.0/access/Ownable.sol\":3020:3026  _owner */\n      0x00\n      0x00\n        /* \"@openzeppelin/contracts@5.4.0/access/Ownable.sol\":3020:3037  _owner = newOwner */\n      0x0100\n      exp\n      dup2\n      sload\n      dup2\n      0xffffffffffffffffffffffffffffffffffffffff\n      mul\n      not\n      and\n      swap1\n      dup4\n      0xffffffffffffffffffffffffffffffffffffffff\n      and\n      mul\n      or\n      swap1\n      sstore\n      pop\n        /* \"@openzeppelin/contracts@5.4.0/access/Ownable.sol\":3083:3091  newOwner */\n      dup2\n        /* \"@openzeppelin/contracts@5.4.0/access/Ownable.sol\":3052:3092  OwnershipTransferred(oldOwner, newOwner) */\n      0xffffffffffffffffffffffffffffffffffffffff\n      and\n        /* \"@openzeppelin/contracts@5.4.0/access/Ownable.sol\":3073:3081  oldOwner */\n      dup2\n        /* \"@openzeppelin/contracts@5.4.0/access/Ownable.sol\":3052:3092  OwnershipTransferred(oldOwner, newOwner) */\n      0xffffffffffffffffffffffffffffffffffffffff\n      and\n      0x8be0079c531659141344cd1fd0a4f28419497f9722a3daafe3b4186f6b6457e0\n      mload(0x40)\n      mload(0x40)\n      dup1\n      swap2\n      sub\n      swap1\n      log3\n        /* \"@openzeppelin/contracts@5.4.0/access/Ownable.sol\":2975:3099  {... */\n      pop\n        /* \"@openzeppelin/contracts@5.4.0/access/Ownable.sol\":2912:3099  function _transferOwnership(address newOwner) internal virtual {... */\n      pop\n      jump\t// out\n        /* \"@openzeppelin/contracts@5.4.0/utils/Context.sol\":656:752  function _msgSender() internal view virtual returns (address) {... */\n    tag_153:\n        /* \"@openzeppelin/contracts@5.4.0/utils/Context.sol\":709:716  address */\n      0x00\n        /* \"@openzeppelin/contracts@5.4.0/utils/Context.sol\":735:745  msg.sender */\n      caller\n        /* \"@openzeppelin/contracts@5.4.0/utils/Context.sol\":728:745  return msg.sender */\n      swap1\n      pop\n        /* \"@openzeppelin/contracts@5.4.0/utils/Context.sol\":656:752  function _msgSender() internal view virtual returns (address) {... */\n      swap1\n      jump\t// out\n        /* \"#utility.yul\":7:82   */\n    tag_165:\n        /* \"#utility.yul\":40:46   */\n      0x00\n        /* \"#utility.yul\":73:75   */\n      0x40\n        /* \"#utility.yul\":67:76   */\n      mload\n        /* \"#utility.yul\":57:76   */\n      swap1\n      pop\n        /* \"#utility.yul\":7:82   */\n      swap1\n      jump\t// out\n        /* \"#utility.yul\":88:205   */\n    tag_166:\n        /* \"#utility.yul\":197:198   */\n      0x00\n        /* \"#utility.yul\":194:195   */\n      0x00\n        /* \"#utility.yul\":187:199   */\n      revert\n        /* \"#utility.yul\":211:328   */\n    tag_167:\n        /* \"#utility.yul\":320:321   */\n      0x00\n        /* \"#utility.yul\":317:318   */\n      0x00\n        /* \"#utility.yul\":310:322   */\n      revert\n        /* \"#utility.yul\":334:411   */\n    tag_168:\n        /* \"#utility.yul\":371:378   */\n      0x00\n        /* \"#utility.yul\":400:405   */\n      dup2\n        /* \"#utility.yul\":389:405   */\n      swap1\n      pop\n        /* \"#utility.yul\":334:411   */\n      swap2\n      swap1\n      pop\n      jump\t// out\n        /* \"#utility.yul\":417:539   */\n    tag_169:\n        /* \"#utility.yul\":490:514   */\n      tag_241\n        /* \"#utility.yul\":508:513   */\n      dup2\n        /* \"#utility.yul\":490:514   */\n      tag_168\n      jump\t// in\n    tag_241:\n        /* \"#utility.yul\":483:488   */\n      dup2\n        /* \"#utility.yul\":480:515   */\n      eq\n        /* \"#utility.yul\":470:533   */\n      tag_242\n      jumpi\n        /* \"#utility.yul\":529:530   */\n      0x00\n        /* \"#utility.yul\":526:527   */\n      0x00\n        /* \"#utility.yul\":519:531   */\n      revert\n        /* \"#utility.yul\":470:533   */\n    tag_242:\n        /* \"#utility.yul\":417:539   */\n      pop\n      jump\t// out\n        /* \"#utility.yul\":545:684   */\n    tag_170:\n        /* \"#utility.yul\":591:596   */\n      0x00\n        /* \"#utility.yul\":629:635   */\n      dup2\n        /* \"#utility.yul\":616:636   */\n      calldataload\n        /* \"#utility.yul\":607:636   */\n      swap1\n      pop\n        /* \"#utility.yul\":645:678   */\n      tag_244\n        /* \"#utility.yul\":672:677   */\n      dup2\n        /* \"#utility.yul\":645:678   */\n      tag_169\n      jump\t// in\n    tag_244:\n        /* \"#utility.yul\":545:684   */\n      swap3\n      swap2\n      pop\n      pop\n      jump\t// out\n        /* \"#utility.yul\":690:1019   */\n    tag_17:\n        /* \"#utility.yul\":749:755   */\n      0x00\n        /* \"#utility.yul\":798:800   */\n      0x20\n        /* \"#utility.yul\":786:795   */\n      dup3\n        /* \"#utility.yul\":777:784   */\n      dup5\n        /* \"#utility.yul\":773:796   */\n      sub\n        /* \"#utility.yul\":769:801   */\n      slt\n        /* \"#utility.yul\":766:885   */\n      iszero\n      tag_246\n      jumpi\n        /* \"#utility.yul\":804:883   */\n      tag_247\n      tag_166\n      jump\t// in\n    tag_247:\n        /* \"#utility.yul\":766:885   */\n    tag_246:\n        /* \"#utility.yul\":924:925   */\n      0x00\n        /* \"#utility.yul\":949:1002   */\n      tag_248\n        /* \"#utility.yul\":994:1001   */\n      dup5\n        /* \"#utility.yul\":985:991   */\n      dup3\n        /* \"#utility.yul\":974:983   */\n      dup6\n        /* \"#utility.yul\":970:992   */\n      add\n        /* \"#utility.yul\":949:1002   */\n      tag_170\n      jump\t// in\n    tag_248:\n        /* \"#utility.yul\":939:1002   */\n      swap2\n      pop\n        /* \"#utility.yul\":895:1012   */\n      pop\n        /* \"#utility.yul\":690:1019   */\n      swap3\n      swap2\n      pop\n      pop\n      jump\t// out\n        /* \"#utility.yul\":1025:1143   */\n    tag_171:\n        /* \"#utility.yul\":1112:1136   */\n      tag_250\n        /* \"#utility.yul\":1130:1135   */\n      dup2\n        /* \"#utility.yul\":1112:1136   */\n      tag_168\n      jump\t// in\n    tag_250:\n        /* \"#utility.yul\":1107:1110   */\n      dup3\n        /* \"#utility.yul\":1100:1137   */\n      mstore\n        /* \"#utility.yul\":1025:1143   */\n      pop\n      pop\n      jump\t// out\n        /* \"#utility.yul\":1149:1371   */\n    tag_22:\n        /* \"#utility.yul\":1242:1246   */\n      0x00\n        /* \"#utility.yul\":1280:1282   */\n      0x20\n        /* \"#utility.yul\":1269:1278   */\n      dup3\n        /* \"#utility.yul\":1265:1283   */\n      add\n        /* \"#utility.yul\":1257:1283   */\n      swap1\n      pop\n        /* \"#utility.yul\":1293:1364   */\n      tag_252\n        /* \"#utility.yul\":1361:1362   */\n      0x00\n        /* \"#utility.yul\":1350:1359   */\n      dup4\n        /* \"#utility.yul\":1346:1363   */\n      add\n        /* \"#utility.yul\":1337:1343   */\n      dup5\n        /* \"#utility.yul\":1293:1364   */\n      tag_171\n      jump\t// in\n    tag_252:\n        /* \"#utility.yul\":1149:1371   */\n      swap3\n      swap2\n      pop\n      pop\n      jump\t// out\n        /* \"#utility.yul\":1377:1476   */\n    tag_172:\n        /* \"#utility.yul\":1429:1435   */\n      0x00\n        /* \"#utility.yul\":1463:1468   */\n      dup2\n        /* \"#utility.yul\":1457:1469   */\n      mload\n        /* \"#utility.yul\":1447:1469   */\n      swap1\n      pop\n        /* \"#utility.yul\":1377:1476   */\n      swap2\n      swap1\n      pop\n      jump\t// out\n        /* \"#utility.yul\":1482:1651   */\n    tag_173:\n        /* \"#utility.yul\":1566:1577   */\n      0x00\n        /* \"#utility.yul\":1600:1606   */\n      dup3\n        /* \"#utility.yul\":1595:1598   */\n      dup3\n        /* \"#utility.yul\":1588:1607   */\n      mstore\n        /* \"#utility.yul\":1640:1644   */\n      0x20\n        /* \"#utility.yul\":1635:1638   */\n      dup3\n        /* \"#utility.yul\":1631:1645   */\n      add\n        /* \"#utility.yul\":1616:1645   */\n      swap1\n      pop\n        /* \"#utility.yul\":1482:1651   */\n      swap3\n      swap2\n      pop\n      pop\n      jump\t// out\n        /* \"#utility.yul\":1657:1796   */\n    tag_174:\n        /* \"#utility.yul\":1746:1752   */\n      dup3\n        /* \"#utility.yul\":1741:1744   */\n      dup2\n        /* \"#utility.yul\":1736:1739   */\n      dup4\n        /* \"#utility.yul\":1730:1753   */\n      mcopy\n        /* \"#utility.yul\":1787:1788   */\n      0x00\n        /* \"#utility.yul\":1778:1784   */\n      dup4\n        /* \"#utility.yul\":1773:1776   */\n      dup4\n        /* \"#utility.yul\":1769:1785   */\n      add\n        /* \"#utility.yul\":1762:1789   */\n      mstore\n        /* \"#utility.yul\":1657:1796   */\n      pop\n      pop\n      pop\n      jump\t// out\n        /* \"#utility.yul\":1802:1904   */\n    tag_175:\n        /* \"#utility.yul\":1843:1849   */\n      0x00\n        /* \"#utility.yul\":1894:1896   */\n      0x1f\n        /* \"#utility.yul\":1890:1897   */\n      not\n        /* \"#utility.yul\":1885:1887   */\n      0x1f\n        /* \"#utility.yul\":1878:1883   */\n      dup4\n        /* \"#utility.yul\":1874:1888   */\n      add\n        /* \"#utility.yul\":1870:1898   */\n      and\n        /* \"#utility.yul\":1860:1898   */\n      swap1\n      pop\n        /* \"#utility.yul\":1802:1904   */\n      swap2\n      swap1\n      pop\n      jump\t// out\n        /* \"#utility.yul\":1910:2287   */\n    tag_176:\n        /* \"#utility.yul\":1998:2001   */\n      0x00\n        /* \"#utility.yul\":2026:2065   */\n      tag_258\n        /* \"#utility.yul\":2059:2064   */\n      dup3\n        /* \"#utility.yul\":2026:2065   */\n      tag_172\n      jump\t// in\n    tag_258:\n        /* \"#utility.yul\":2081:2152   */\n      tag_259\n        /* \"#utility.yul\":2145:2151   */\n      dup2\n        /* \"#utility.yul\":2140:2143   */\n      dup6\n        /* \"#utility.yul\":2081:2152   */\n      tag_173\n      jump\t// in\n    tag_259:\n        /* \"#utility.yul\":2074:2152   */\n      swap4\n      pop\n        /* \"#utility.yul\":2161:2226   */\n      tag_260\n        /* \"#utility.yul\":2219:2225   */\n      dup2\n        /* \"#utility.yul\":2214:2217   */\n      dup6\n        /* \"#utility.yul\":2207:2211   */\n      0x20\n        /* \"#utility.yul\":2200:2205   */\n      dup7\n        /* \"#utility.yul\":2196:2212   */\n      add\n        /* \"#utility.yul\":2161:2226   */\n      tag_174\n      jump\t// in\n    tag_260:\n        /* \"#utility.yul\":2251:2280   */\n      tag_261\n        /* \"#utility.yul\":2273:2279   */\n      dup2\n        /* \"#utility.yul\":2251:2280   */\n      tag_175\n      jump\t// in\n    tag_261:\n        /* \"#utility.yul\":2246:2249   */\n      dup5\n        /* \"#utility.yul\":2242:2281   */\n      add\n        /* \"#utility.yul\":2235:2281   */\n      swap2\n      pop\n        /* \"#utility.yul\":2002:2287   */\n      pop\n        /* \"#utility.yul\":1910:2287   */\n      swap3\n      swap2\n      pop\n      pop\n      jump\t// out\n        /* \"#utility.yul\":2293:2826   */\n    tag_30:\n        /* \"#utility.yul\":2462:2466   */\n      0x00\n        /* \"#utility.yul\":2500:2502   */\n      0x60\n        /* \"#utility.yul\":2489:2498   */\n      dup3\n        /* \"#utility.yul\":2485:2503   */\n      add\n        /* \"#utility.yul\":2477:2503   */\n      swap1\n      pop\n        /* \"#utility.yul\":2513:2584   */\n      tag_263\n        /* \"#utility.yul\":2581:2582   */\n      0x00\n        /* \"#utility.yul\":2570:2579   */\n      dup4\n        /* \"#utility.yul\":2566:2583   */\n      add\n        /* \"#utility.yul\":2557:2563   */\n      dup7\n        /* \"#utility.yul\":2513:2584   */\n      tag_171\n      jump\t// in\n    tag_263:\n        /* \"#utility.yul\":2631:2640   */\n      dup2\n        /* \"#utility.yul\":2625:2629   */\n      dup2\n        /* \"#utility.yul\":2621:2641   */\n      sub\n        /* \"#utility.yul\":2616:2618   */\n      0x20\n        /* \"#utility.yul\":2605:2614   */\n      dup4\n        /* \"#utility.yul\":2601:2619   */\n      add\n        /* \"#utility.yul\":2594:2642   */\n      mstore\n        /* \"#utility.yul\":2659:2737   */\n      tag_264\n        /* \"#utility.yul\":2732:2736   */\n      dup2\n        /* \"#utility.yul\":2723:2729   */\n      dup6\n        /* \"#utility.yul\":2659:2737   */\n      tag_176\n      jump\t// in\n    tag_264:\n        /* \"#utility.yul\":2651:2737   */\n      swap1\n      pop\n        /* \"#utility.yul\":2747:2819   */\n      tag_265\n        /* \"#utility.yul\":2815:2817   */\n      0x40\n        /* \"#utility.yul\":2804:2813   */\n      dup4\n        /* \"#utility.yul\":2800:2818   */\n      add\n        /* \"#utility.yul\":2791:2797   */\n      dup5\n        /* \"#utility.yul\":2747:2819   */\n      tag_171\n      jump\t// in\n    tag_265:\n        /* \"#utility.yul\":2293:2826   */\n      swap5\n      swap4\n      pop\n      pop\n      pop\n      pop\n      jump\t// out\n        /* \"#utility.yul\":2832:2949   */\n    tag_177:\n        /* \"#utility.yul\":2941:2942   */\n      0x00\n        /* \"#utility.yul\":2938:2939   */\n      0x00\n        /* \"#utility.yul\":2931:2943   */\n      revert\n        /* \"#utility.yul\":2955:3072   */\n    tag_178:\n        /* \"#utility.yul\":3064:3065   */\n      0x00\n        /* \"#utility.yul\":3061:3062   */\n      0x00\n        /* \"#utility.yul\":3054:3066   */\n      revert\n        /* \"#utility.yul\":3078:3258   */\n    tag_179:\n        /* \"#utility.yul\":3126:3203   */\n      0x4e487b7100000000000000000000000000000000000000000000000000000000\n        /* \"#utility.yul\":3123:3124   */\n      0x00\n        /* \"#utility.yul\":3116:3204   */\n      mstore\n        /* \"#utility.yul\":3223:3227   */\n      0x41\n        /* \"#utility.yul\":3220:3221   */\n      0x04\n        /* \"#utility.yul\":3213:3228   */\n      mstore\n        /* \"#utility.yul\":3247:3251   */\n      0x24\n        /* \"#utility.yul\":3244:3245   */\n      0x00\n        /* \"#utility.yul\":3237:3252   */\n      revert\n        /* \"#utility.yul\":3264:3545   */\n    tag_180:\n        /* \"#utility.yul\":3347:3374   */\n      tag_270\n        /* \"#utility.yul\":3369:3373   */\n      dup3\n        /* \"#utility.yul\":3347:3374   */\n      tag_175\n      jump\t// in\n    tag_270:\n        /* \"#utility.yul\":3339:3345   */\n      dup2\n        /* \"#utility.yul\":3335:3375   */\n      add\n        /* \"#utility.yul\":3477:3483   */\n      dup2\n        /* \"#utility.yul\":3465:3475   */\n      dup2\n        /* \"#utility.yul\":3462:3484   */\n      lt\n        /* \"#utility.yul\":3441:3459   */\n      0xffffffffffffffff\n        /* \"#utility.yul\":3429:3439   */\n      dup3\n        /* \"#utility.yul\":3426:3460   */\n      gt\n        /* \"#utility.yul\":3423:3485   */\n      or\n        /* \"#utility.yul\":3420:3508   */\n      iszero\n      tag_271\n      jumpi\n        /* \"#utility.yul\":3488:3506   */\n      tag_272\n      tag_179\n      jump\t// in\n    tag_272:\n        /* \"#utility.yul\":3420:3508   */\n    tag_271:\n        /* \"#utility.yul\":3528:3538   */\n      dup1\n        /* \"#utility.yul\":3524:3526   */\n      0x40\n        /* \"#utility.yul\":3517:3539   */\n      mstore\n        /* \"#utility.yul\":3307:3545   */\n      pop\n        /* \"#utility.yul\":3264:3545   */\n      pop\n      pop\n      jump\t// out\n        /* \"#utility.yul\":3551:3680   */\n    tag_181:\n        /* \"#utility.yul\":3585:3591   */\n      0x00\n        /* \"#utility.yul\":3612:3632   */\n      tag_274\n      tag_165\n      jump\t// in\n    tag_274:\n        /* \"#utility.yul\":3602:3632   */\n      swap1\n      pop\n        /* \"#utility.yul\":3641:3674   */\n      tag_275\n        /* \"#utility.yul\":3669:3673   */\n      dup3\n        /* \"#utility.yul\":3661:3667   */\n      dup3\n        /* \"#utility.yul\":3641:3674   */\n      tag_180\n      jump\t// in\n    tag_275:\n        /* \"#utility.yul\":3551:3680   */\n      swap2\n      swap1\n      pop\n      jump\t// out\n        /* \"#utility.yul\":3686:3994   */\n    tag_182:\n        /* \"#utility.yul\":3748:3752   */\n      0x00\n        /* \"#utility.yul\":3838:3856   */\n      0xffffffffffffffff\n        /* \"#utility.yul\":3830:3836   */\n      dup3\n        /* \"#utility.yul\":3827:3857   */\n      gt\n        /* \"#utility.yul\":3824:3880   */\n      iszero\n      tag_277\n      jumpi\n        /* \"#utility.yul\":3860:3878   */\n      tag_278\n      tag_179\n      jump\t// in\n    tag_278:\n        /* \"#utility.yul\":3824:3880   */\n    tag_277:\n        /* \"#utility.yul\":3898:3927   */\n      tag_279\n        /* \"#utility.yul\":3920:3926   */\n      dup3\n        /* \"#utility.yul\":3898:3927   */\n      tag_175\n      jump\t// in\n    tag_279:\n        /* \"#utility.yul\":3890:3927   */\n      swap1\n      pop\n        /* \"#utility.yul\":3982:3986   */\n      0x20\n        /* \"#utility.yul\":3976:3980   */\n      dup2\n        /* \"#utility.yul\":3972:3987   */\n      add\n        /* \"#utility.yul\":3964:3987   */\n      swap1\n      pop\n        /* \"#utility.yul\":3686:3994   */\n      swap2\n      swap1\n      pop\n      jump\t// out\n        /* \"#utility.yul\":4000:4148   */\n    tag_183:\n        /* \"#utility.yul\":4098:4104   */\n      dup3\n        /* \"#utility.yul\":4093:4096   */\n      dup2\n        /* \"#utility.yul\":4088:4091   */\n      dup4\n        /* \"#utility.yul\":4075:4105   */\n      calldatacopy\n        /* \"#utility.yul\":4139:4140   */\n      0x00\n        /* \"#utility.yul\":4130:4136   */\n      dup4\n        /* \"#utility.yul\":4125:4128   */\n      dup4\n        /* \"#utility.yul\":4121:4137   */\n      add\n        /* \"#utility.yul\":4114:4141   */\n      mstore\n        /* \"#utility.yul\":4000:4148   */\n      pop\n      pop\n      pop\n      jump\t// out\n        /* \"#utility.yul\":4154:4579   */\n    tag_184:\n        /* \"#utility.yul\":4232:4237   */\n      0x00\n        /* \"#utility.yul\":4257:4323   */\n      tag_282\n        /* \"#utility.yul\":4273:4322   */\n      tag_283\n        /* \"#utility.yul\":4315:4321   */\n      dup5\n        /* \"#utility.yul\":4273:4322   */\n      tag_182\n      jump\t// in\n    tag_283:\n        /* \"#utility.yul\":4257:4323   */\n      tag_181\n      jump\t// in\n    tag_282:\n        /* \"#utility.yul\":4248:4323   */\n      swap1\n      pop\n        /* \"#utility.yul\":4346:4352   */\n      dup3\n        /* \"#utility.yul\":4339:4344   */\n      dup2\n        /* \"#utility.yul\":4332:4353   */\n      mstore\n        /* \"#utility.yul\":4384:4388   */\n      0x20\n        /* \"#utility.yul\":4377:4382   */\n      dup2\n        /* \"#utility.yul\":4373:4389   */\n      add\n        /* \"#utility.yul\":4422:4425   */\n      dup5\n        /* \"#utility.yul\":4413:4419   */\n      dup5\n        /* \"#utility.yul\":4408:4411   */\n      dup5\n        /* \"#utility.yul\":4404:4420   */\n      add\n        /* \"#utility.yul\":4401:4426   */\n      gt\n        /* \"#utility.yul\":4398:4510   */\n      iszero\n      tag_284\n      jumpi\n        /* \"#utility.yul\":4429:4508   */\n      tag_285\n      tag_178\n      jump\t// in\n    tag_285:\n        /* \"#utility.yul\":4398:4510   */\n    tag_284:\n        /* \"#utility.yul\":4519:4573   */\n      tag_286\n        /* \"#utility.yul\":4566:4572   */\n      dup5\n        /* \"#utility.yul\":4561:4564   */\n      dup3\n        /* \"#utility.yul\":4556:4559   */\n      dup6\n        /* \"#utility.yul\":4519:4573   */\n      tag_183\n      jump\t// in\n    tag_286:\n        /* \"#utility.yul\":4238:4579   */\n      pop\n        /* \"#utility.yul\":4154:4579   */\n      swap4\n      swap3\n      pop\n      pop\n      pop\n      jump\t// out\n        /* \"#utility.yul\":4599:4939   */\n    tag_185:\n        /* \"#utility.yul\":4655:4660   */\n      0x00\n        /* \"#utility.yul\":4704:4707   */\n      dup3\n        /* \"#utility.yul\":4697:4701   */\n      0x1f\n        /* \"#utility.yul\":4689:4695   */\n      dup4\n        /* \"#utility.yul\":4685:4702   */\n      add\n        /* \"#utility.yul\":4681:4708   */\n      slt\n        /* \"#utility.yul\":4671:4793   */\n      tag_288\n      jumpi\n        /* \"#utility.yul\":4712:4791   */\n      tag_289\n      tag_177\n      jump\t// in\n    tag_289:\n        /* \"#utility.yul\":4671:4793   */\n    tag_288:\n        /* \"#utility.yul\":4829:4835   */\n      dup2\n        /* \"#utility.yul\":4816:4836   */\n      calldataload\n        /* \"#utility.yul\":4854:4933   */\n      tag_290\n        /* \"#utility.yul\":4929:4932   */\n      dup5\n        /* \"#utility.yul\":4921:4927   */\n      dup3\n        /* \"#utility.yul\":4914:4918   */\n      0x20\n        /* \"#utility.yul\":4906:4912   */\n      dup7\n        /* \"#utility.yul\":4902:4919   */\n      add\n        /* \"#utility.yul\":4854:4933   */\n      tag_184\n      jump\t// in\n    tag_290:\n        /* \"#utility.yul\":4845:4933   */\n      swap2\n      pop\n        /* \"#utility.yul\":4661:4939   */\n      pop\n        /* \"#utility.yul\":4599:4939   */\n      swap3\n      swap2\n      pop\n      pop\n      jump\t// out\n        /* \"#utility.yul\":4945:5454   */\n    tag_37:\n        /* \"#utility.yul\":5014:5020   */\n      0x00\n        /* \"#utility.yul\":5063:5065   */\n      0x20\n        /* \"#utility.yul\":5051:5060   */\n      dup3\n        /* \"#utility.yul\":5042:5049   */\n      dup5\n        /* \"#utility.yul\":5038:5061   */\n      sub\n        /* \"#utility.yul\":5034:5066   */\n      slt\n        /* \"#utility.yul\":5031:5150   */\n      iszero\n      tag_292\n      jumpi\n        /* \"#utility.yul\":5069:5148   */\n      tag_293\n      tag_166\n      jump\t// in\n    tag_293:\n        /* \"#utility.yul\":5031:5150   */\n    tag_292:\n        /* \"#utility.yul\":5217:5218   */\n      0x00\n        /* \"#utility.yul\":5206:5215   */\n      dup3\n        /* \"#utility.yul\":5202:5219   */\n      add\n        /* \"#utility.yul\":5189:5220   */\n      calldataload\n        /* \"#utility.yul\":5247:5265   */\n      0xffffffffffffffff\n        /* \"#utility.yul\":5239:5245   */\n      dup2\n        /* \"#utility.yul\":5236:5266   */\n      gt\n        /* \"#utility.yul\":5233:5350   */\n      iszero\n      tag_294\n      jumpi\n        /* \"#utility.yul\":5269:5348   */\n      tag_295\n      tag_167\n      jump\t// in\n    tag_295:\n        /* \"#utility.yul\":5233:5350   */\n    tag_294:\n        /* \"#utility.yul\":5374:5437   */\n      tag_296\n        /* \"#utility.yul\":5429:5436   */\n      dup5\n        /* \"#utility.yul\":5420:5426   */\n      dup3\n        /* \"#utility.yul\":5409:5418   */\n      dup6\n        /* \"#utility.yul\":5405:5427   */\n      add\n        /* \"#utility.yul\":5374:5437   */\n      tag_185\n      jump\t// in\n    tag_296:\n        /* \"#utility.yul\":5364:5437   */\n      swap2\n      pop\n        /* \"#utility.yul\":5160:5447   */\n      pop\n        /* \"#utility.yul\":4945:5454   */\n      swap3\n      swap2\n      pop\n      pop\n      jump\t// out\n        /* \"#utility.yul\":5460:5586   */\n    tag_186:\n        /* \"#utility.yul\":5497:5504   */\n      0x00\n        /* \"#utility.yul\":5537:5579   */\n      0xffffffffffffffffffffffffffffffffffffffff\n        /* \"#utility.yul\":5530:5535   */\n      dup3\n        /* \"#utility.yul\":5526:5580   */\n      and\n        /* \"#utility.yul\":5515:5580   */\n      swap1\n      pop\n        /* \"#utility.yul\":5460:5586   */\n      swap2\n      swap1\n      pop\n      jump\t// out\n        /* \"#utility.yul\":5592:5688   */\n    tag_187:\n        /* \"#utility.yul\":5629:5636   */\n      0x00\n        /* \"#utility.yul\":5658:5682   */\n      tag_299\n        /* \"#utility.yul\":5676:5681   */\n      dup3\n        /* \"#utility.yul\":5658:5682   */\n      tag_186\n      jump\t// in\n    tag_299:\n        /* \"#utility.yul\":5647:5682   */\n      swap1\n      pop\n        /* \"#utility.yul\":5592:5688   */\n      swap2\n      swap1\n      pop\n      jump\t// out\n        /* \"#utility.yul\":5694:5812   */\n    tag_188:\n        /* \"#utility.yul\":5781:5805   */\n      tag_301\n        /* \"#utility.yul\":5799:5804   */\n      dup2\n        /* \"#utility.yul\":5781:5805   */\n      tag_187\n      jump\t// in\n    tag_301:\n        /* \"#utility.yul\":5776:5779   */\n      dup3\n        /* \"#utility.yul\":5769:5806   */\n      mstore\n        /* \"#utility.yul\":5694:5812   */\n      pop\n      pop\n      jump\t// out\n        /* \"#utility.yul\":5818:6040   */\n    tag_44:\n        /* \"#utility.yul\":5911:5915   */\n      0x00\n        /* \"#utility.yul\":5949:5951   */\n      0x20\n        /* \"#utility.yul\":5938:5947   */\n      dup3\n        /* \"#utility.yul\":5934:5952   */\n      add\n        /* \"#utility.yul\":5926:5952   */\n      swap1\n      pop\n        /* \"#utility.yul\":5962:6033   */\n      tag_303\n        /* \"#utility.yul\":6030:6031   */\n      0x00\n        /* \"#utility.yul\":6019:6028   */\n      dup4\n        /* \"#utility.yul\":6015:6032   */\n      add\n        /* \"#utility.yul\":6006:6012   */\n      dup5\n        /* \"#utility.yul\":5962:6033   */\n      tag_188\n      jump\t// in\n    tag_303:\n        /* \"#utility.yul\":5818:6040   */\n      swap3\n      swap2\n      pop\n      pop\n      jump\t// out\n        /* \"#utility.yul\":6046:6168   */\n    tag_189:\n        /* \"#utility.yul\":6119:6143   */\n      tag_305\n        /* \"#utility.yul\":6137:6142   */\n      dup2\n        /* \"#utility.yul\":6119:6143   */\n      tag_187\n      jump\t// in\n    tag_305:\n        /* \"#utility.yul\":6112:6117   */\n      dup2\n        /* \"#utility.yul\":6109:6144   */\n      eq\n        /* \"#utility.yul\":6099:6162   */\n      tag_306\n      jumpi\n        /* \"#utility.yul\":6158:6159   */\n      0x00\n        /* \"#utility.yul\":6155:6156   */\n      0x00\n        /* \"#utility.yul\":6148:6160   */\n      revert\n        /* \"#utility.yul\":6099:6162   */\n    tag_306:\n        /* \"#utility.yul\":6046:6168   */\n      pop\n      jump\t// out\n        /* \"#utility.yul\":6174:6313   */\n    tag_190:\n        /* \"#utility.yul\":6220:6225   */\n      0x00\n        /* \"#utility.yul\":6258:6264   */\n      dup2\n        /* \"#utility.yul\":6245:6265   */\n      calldataload\n        /* \"#utility.yul\":6236:6265   */\n      swap1\n      pop\n        /* \"#utility.yul\":6274:6307   */\n      tag_308\n        /* \"#utility.yul\":6301:6306   */\n      dup2\n        /* \"#utility.yul\":6274:6307   */\n      tag_189\n      jump\t// in\n    tag_308:\n        /* \"#utility.yul\":6174:6313   */\n      swap3\n      swap2\n      pop\n      pop\n      jump\t// out\n        /* \"#utility.yul\":6319:6648   */\n    tag_47:\n        /* \"#utility.yul\":6378:6384   */\n      0x00\n        /* \"#utility.yul\":6427:6429   */\n      0x20\n        /* \"#utility.yul\":6415:6424   */\n      dup3\n        /* \"#utility.yul\":6406:6413   */\n      dup5\n        /* \"#utility.yul\":6402:6425   */\n      sub\n        /* \"#utility.yul\":6398:6430   */\n      slt\n        /* \"#utility.yul\":6395:6514   */\n      iszero\n      tag_310\n      jumpi\n        /* \"#utility.yul\":6433:6512   */\n      tag_311\n      tag_166\n      jump\t// in\n    tag_311:\n        /* \"#utility.yul\":6395:6514   */\n    tag_310:\n        /* \"#utility.yul\":6553:6554   */\n      0x00\n        /* \"#utility.yul\":6578:6631   */\n      tag_312\n        /* \"#utility.yul\":6623:6630   */\n      dup5\n        /* \"#utility.yul\":6614:6620   */\n      dup3\n        /* \"#utility.yul\":6603:6612   */\n      dup6\n        /* \"#utility.yul\":6599:6621   */\n      add\n        /* \"#utility.yul\":6578:6631   */\n      tag_190\n      jump\t// in\n    tag_312:\n        /* \"#utility.yul\":6568:6631   */\n      swap2\n      pop\n        /* \"#utility.yul\":6524:6641   */\n      pop\n        /* \"#utility.yul\":6319:6648   */\n      swap3\n      swap2\n      pop\n      pop\n      jump\t// out\n        /* \"#utility.yul\":6654:6744   */\n    tag_191:\n        /* \"#utility.yul\":6688:6695   */\n      0x00\n        /* \"#utility.yul\":6731:6736   */\n      dup2\n        /* \"#utility.yul\":6724:6737   */\n      iszero\n        /* \"#utility.yul\":6717:6738   */\n      iszero\n        /* \"#utility.yul\":6706:6738   */\n      swap1\n      pop\n        /* \"#utility.yul\":6654:6744   */\n      swap2\n      swap1\n      pop\n      jump\t// out\n        /* \"#utility.yul\":6750:6859   */\n    tag_192:\n        /* \"#utility.yul\":6831:6852   */\n      tag_315\n        /* \"#utility.yul\":6846:6851   */\n      dup2\n        /* \"#utility.yul\":6831:6852   */\n      tag_191\n      jump\t// in\n    tag_315:\n        /* \"#utility.yul\":6826:6829   */\n      dup3\n        /* \"#utility.yul\":6819:6853   */\n      mstore\n        /* \"#utility.yul\":6750:6859   */\n      pop\n      pop\n      jump\t// out\n        /* \"#utility.yul\":6865:7075   */\n    tag_50:\n        /* \"#utility.yul\":6952:6956   */\n      0x00\n        /* \"#utility.yul\":6990:6992   */\n      0x20\n        /* \"#utility.yul\":6979:6988   */\n      dup3\n        /* \"#utility.yul\":6975:6993   */\n      add\n        /* \"#utility.yul\":6967:6993   */\n      swap1\n      pop\n        /* \"#utility.yul\":7003:7068   */\n      tag_317\n        /* \"#utility.yul\":7065:7066   */\n      0x00\n        /* \"#utility.yul\":7054:7063   */\n      dup4\n        /* \"#utility.yul\":7050:7067   */\n      add\n        /* \"#utility.yul\":7041:7047   */\n      dup5\n        /* \"#utility.yul\":7003:7068   */\n      tag_192\n      jump\t// in\n    tag_317:\n        /* \"#utility.yul\":6865:7075   */\n      swap3\n      swap2\n      pop\n      pop\n      jump\t// out\n        /* \"#utility.yul\":7081:7141   */\n    tag_193:\n        /* \"#utility.yul\":7109:7112   */\n      0x00\n        /* \"#utility.yul\":7130:7135   */\n      dup2\n        /* \"#utility.yul\":7123:7135   */\n      swap1\n      pop\n        /* \"#utility.yul\":7081:7141   */\n      swap2\n      swap1\n      pop\n      jump\t// out\n        /* \"#utility.yul\":7147:7289   */\n    tag_194:\n        /* \"#utility.yul\":7197:7206   */\n      0x00\n        /* \"#utility.yul\":7230:7283   */\n      tag_320\n        /* \"#utility.yul\":7248:7282   */\n      tag_321\n        /* \"#utility.yul\":7257:7281   */\n      tag_322\n        /* \"#utility.yul\":7275:7280   */\n      dup5\n        /* \"#utility.yul\":7257:7281   */\n      tag_186\n      jump\t// in\n    tag_322:\n        /* \"#utility.yul\":7248:7282   */\n      tag_193\n      jump\t// in\n    tag_321:\n        /* \"#utility.yul\":7230:7283   */\n      tag_186\n      jump\t// in\n    tag_320:\n        /* \"#utility.yul\":7217:7283   */\n      swap1\n      pop\n        /* \"#utility.yul\":7147:7289   */\n      swap2\n      swap1\n      pop\n      jump\t// out\n        /* \"#utility.yul\":7295:7421   */\n    tag_195:\n        /* \"#utility.yul\":7345:7354   */\n      0x00\n        /* \"#utility.yul\":7378:7415   */\n      tag_324\n        /* \"#utility.yul\":7409:7414   */\n      dup3\n        /* \"#utility.yul\":7378:7415   */\n      tag_194\n      jump\t// in\n    tag_324:\n        /* \"#utility.yul\":7365:7415   */\n      swap1\n      pop\n        /* \"#utility.yul\":7295:7421   */\n      swap2\n      swap1\n      pop\n      jump\t// out\n        /* \"#utility.yul\":7427:7573   */\n    tag_196:\n        /* \"#utility.yul\":7497:7506   */\n      0x00\n        /* \"#utility.yul\":7530:7567   */\n      tag_326\n        /* \"#utility.yul\":7561:7566   */\n      dup3\n        /* \"#utility.yul\":7530:7567   */\n      tag_195\n      jump\t// in\n    tag_326:\n        /* \"#utility.yul\":7517:7567   */\n      swap1\n      pop\n        /* \"#utility.yul\":7427:7573   */\n      swap2\n      swap1\n      pop\n      jump\t// out\n        /* \"#utility.yul\":7579:7750   */\n    tag_197:\n        /* \"#utility.yul\":7686:7743   */\n      tag_328\n        /* \"#utility.yul\":7737:7742   */\n      dup2\n        /* \"#utility.yul\":7686:7743   */\n      tag_196\n      jump\t// in\n    tag_328:\n        /* \"#utility.yul\":7681:7684   */\n      dup3\n        /* \"#utility.yul\":7674:7744   */\n      mstore\n        /* \"#utility.yul\":7579:7750   */\n      pop\n      pop\n      jump\t// out\n        /* \"#utility.yul\":7756:8018   */\n    tag_54:\n        /* \"#utility.yul\":7869:7873   */\n      0x00\n        /* \"#utility.yul\":7907:7909   */\n      0x20\n        /* \"#utility.yul\":7896:7905   */\n      dup3\n        /* \"#utility.yul\":7892:7910   */\n      add\n        /* \"#utility.yul\":7884:7910   */\n      swap1\n      pop\n        /* \"#utility.yul\":7920:8011   */\n      tag_330\n        /* \"#utility.yul\":8008:8009   */\n      0x00\n        /* \"#utility.yul\":7997:8006   */\n      dup4\n        /* \"#utility.yul\":7993:8010   */\n      add\n        /* \"#utility.yul\":7984:7990   */\n      dup5\n        /* \"#utility.yul\":7920:8011   */\n      tag_197\n      jump\t// in\n    tag_330:\n        /* \"#utility.yul\":7756:8018   */\n      swap3\n      swap2\n      pop\n      pop\n      jump\t// out\n        /* \"#utility.yul\":8024:8196   */\n    tag_198:\n        /* \"#utility.yul\":8164:8188   */\n      0x596f75206861766520616c726561647920766f74656400000000000000000000\n        /* \"#utility.yul\":8160:8161   */\n      0x00\n        /* \"#utility.yul\":8152:8158   */\n      dup3\n        /* \"#utility.yul\":8148:8162   */\n      add\n        /* \"#utility.yul\":8141:8189   */\n      mstore\n        /* \"#utility.yul\":8024:8196   */\n      pop\n      jump\t// out\n        /* \"#utility.yul\":8202:8568   */\n    tag_199:\n        /* \"#utility.yul\":8344:8347   */\n      0x00\n        /* \"#utility.yul\":8365:8432   */\n      tag_333\n        /* \"#utility.yul\":8429:8431   */\n      0x16\n        /* \"#utility.yul\":8424:8427   */\n      dup4\n        /* \"#utility.yul\":8365:8432   */\n      tag_173\n      jump\t// in\n    tag_333:\n        /* \"#utility.yul\":8358:8432   */\n      swap2\n      pop\n        /* \"#utility.yul\":8441:8534   */\n      tag_334\n        /* \"#utility.yul\":8530:8533   */\n      dup3\n        /* \"#utility.yul\":8441:8534   */\n      tag_198\n      jump\t// in\n    tag_334:\n        /* \"#utility.yul\":8559:8561   */\n      0x20\n        /* \"#utility.yul\":8554:8557   */\n      dup3\n        /* \"#utility.yul\":8550:8562   */\n      add\n        /* \"#utility.yul\":8543:8562   */\n      swap1\n      pop\n        /* \"#utility.yul\":8202:8568   */\n      swap2\n      swap1\n      pop\n      jump\t// out\n        /* \"#utility.yul\":8574:8993   */\n    tag_61:\n        /* \"#utility.yul\":8740:8744   */\n      0x00\n        /* \"#utility.yul\":8778:8780   */\n      0x20\n        /* \"#utility.yul\":8767:8776   */\n      dup3\n        /* \"#utility.yul\":8763:8781   */\n      add\n        /* \"#utility.yul\":8755:8781   */\n      swap1\n      pop\n        /* \"#utility.yul\":8827:8836   */\n      dup2\n        /* \"#utility.yul\":8821:8825   */\n      dup2\n        /* \"#utility.yul\":8817:8837   */\n      sub\n        /* \"#utility.yul\":8813:8814   */\n      0x00\n        /* \"#utility.yul\":8802:8811   */\n      dup4\n        /* \"#utility.yul\":8798:8815   */\n      add\n        /* \"#utility.yul\":8791:8838   */\n      mstore\n        /* \"#utility.yul\":8855:8986   */\n      tag_336\n        /* \"#utility.yul\":8981:8985   */\n      dup2\n        /* \"#utility.yul\":8855:8986   */\n      tag_199\n      jump\t// in\n    tag_336:\n        /* \"#utility.yul\":8847:8986   */\n      swap1\n      pop\n        /* \"#utility.yul\":8574:8993   */\n      swap2\n      swap1\n      pop\n      jump\t// out\n        /* \"#utility.yul\":8999:9166   */\n    tag_200:\n        /* \"#utility.yul\":9139:9158   */\n      0x496e76616c69642063616e646964617465000000000000000000000000000000\n        /* \"#utility.yul\":9135:9136   */\n      0x00\n        /* \"#utility.yul\":9127:9133   */\n      dup3\n        /* \"#utility.yul\":9123:9137   */\n      add\n        /* \"#utility.yul\":9116:9159   */\n      mstore\n        /* \"#utility.yul\":8999:9166   */\n      pop\n      jump\t// out\n        /* \"#utility.yul\":9172:9538   */\n    tag_201:\n        /* \"#utility.yul\":9314:9317   */\n      0x00\n        /* \"#utility.yul\":9335:9402   */\n      tag_339\n        /* \"#utility.yul\":9399:9401   */\n      0x11\n        /* \"#utility.yul\":9394:9397   */\n      dup4\n        /* \"#utility.yul\":9335:9402   */\n      tag_173\n      jump\t// in\n    tag_339:\n        /* \"#utility.yul\":9328:9402   */\n      swap2\n      pop\n        /* \"#utility.yul\":9411:9504   */\n      tag_340\n        /* \"#utility.yul\":9500:9503   */\n      dup3\n        /* \"#utility.yul\":9411:9504   */\n      tag_200\n      jump\t// in\n    tag_340:\n        /* \"#utility.yul\":9529:9531   */\n      0x20\n        /* \"#utility.yul\":9524:9527   */\n      dup3\n        /* \"#utility.yul\":9520:9532   */\n      add\n        /* \"#utility.yul\":9513:9532   */\n      swap1\n      pop\n        /* \"#utility.yul\":9172:9538   */\n      swap2\n      swap1\n      pop\n      jump\t// out\n        /* \"#utility.yul\":9544:9963   */\n    tag_65:\n        /* \"#utility.yul\":9710:9714   */\n      0x00\n        /* \"#utility.yul\":9748:9750   */\n      0x20\n        /* \"#utility.yul\":9737:9746   */\n      dup3\n        /* \"#utility.yul\":9733:9751   */\n      add\n        /* \"#utility.yul\":9725:9751   */\n      swap1\n      pop\n        /* \"#utility.yul\":9797:9806   */\n      dup2\n        /* \"#utility.yul\":9791:9795   */\n      dup2\n        /* \"#utility.yul\":9787:9807   */\n      sub\n        /* \"#utility.yul\":9783:9784   */\n      0x00\n        /* \"#utility.yul\":9772:9781   */\n      dup4\n        /* \"#utility.yul\":9768:9785   */\n      add\n        /* \"#utility.yul\":9761:9808   */\n      mstore\n        /* \"#utility.yul\":9825:9956   */\n      tag_342\n        /* \"#utility.yul\":9951:9955   */\n      dup2\n        /* \"#utility.yul\":9825:9956   */\n      tag_201\n      jump\t// in\n    tag_342:\n        /* \"#utility.yul\":9817:9956   */\n      swap1\n      pop\n        /* \"#utility.yul\":9544:9963   */\n      swap2\n      swap1\n      pop\n      jump\t// out\n        /* \"#utility.yul\":9969:10055   */\n    tag_202:\n        /* \"#utility.yul\":10004:10011   */\n      0x00\n        /* \"#utility.yul\":10044:10048   */\n      0xff\n        /* \"#utility.yul\":10037:10042   */\n      dup3\n        /* \"#utility.yul\":10033:10049   */\n      and\n        /* \"#utility.yul\":10022:10049   */\n      swap1\n      pop\n        /* \"#utility.yul\":9969:10055   */\n      swap2\n      swap1\n      pop\n      jump\t// out\n        /* \"#utility.yul\":10061:10179   */\n    tag_203:\n        /* \"#utility.yul\":10132:10154   */\n      tag_345\n        /* \"#utility.yul\":10148:10153   */\n      dup2\n        /* \"#utility.yul\":10132:10154   */\n      tag_202\n      jump\t// in\n    tag_345:\n        /* \"#utility.yul\":10125:10130   */\n      dup2\n        /* \"#utility.yul\":10122:10155   */\n      eq\n        /* \"#utility.yul\":10112:10173   */\n      tag_346\n      jumpi\n        /* \"#utility.yul\":10169:10170   */\n      0x00\n        /* \"#utility.yul\":10166:10167   */\n      0x00\n        /* \"#utility.yul\":10159:10171   */\n      revert\n        /* \"#utility.yul\":10112:10173   */\n    tag_346:\n        /* \"#utility.yul\":10061:10179   */\n      pop\n      jump\t// out\n        /* \"#utility.yul\":10185:10324   */\n    tag_204:\n        /* \"#utility.yul\":10240:10245   */\n      0x00\n        /* \"#utility.yul\":10271:10277   */\n      dup2\n        /* \"#utility.yul\":10265:10278   */\n      mload\n        /* \"#utility.yul\":10256:10278   */\n      swap1\n      pop\n        /* \"#utility.yul\":10287:10318   */\n      tag_348\n        /* \"#utility.yul\":10312:10317   */\n      dup2\n        /* \"#utility.yul\":10287:10318   */\n      tag_203\n      jump\t// in\n    tag_348:\n        /* \"#utility.yul\":10185:10324   */\n      swap3\n      swap2\n      pop\n      pop\n      jump\t// out\n        /* \"#utility.yul\":10330:10677   */\n    tag_69:\n        /* \"#utility.yul\":10398:10404   */\n      0x00\n        /* \"#utility.yul\":10447:10449   */\n      0x20\n        /* \"#utility.yul\":10435:10444   */\n      dup3\n        /* \"#utility.yul\":10426:10433   */\n      dup5\n        /* \"#utility.yul\":10422:10445   */\n      sub\n        /* \"#utility.yul\":10418:10450   */\n      slt\n        /* \"#utility.yul\":10415:10534   */\n      iszero\n      tag_350\n      jumpi\n        /* \"#utility.yul\":10453:10532   */\n      tag_351\n      tag_166\n      jump\t// in\n    tag_351:\n        /* \"#utility.yul\":10415:10534   */\n    tag_350:\n        /* \"#utility.yul\":10573:10574   */\n      0x00\n        /* \"#utility.yul\":10598:10660   */\n      tag_352\n        /* \"#utility.yul\":10652:10659   */\n      dup5\n        /* \"#utility.yul\":10643:10649   */\n      dup3\n        /* \"#utility.yul\":10632:10641   */\n      dup6\n        /* \"#utility.yul\":10628:10650   */\n      add\n        /* \"#utility.yul\":10598:10660   */\n      tag_204\n      jump\t// in\n    tag_352:\n        /* \"#utility.yul\":10588:10660   */\n      swap2\n      pop\n        /* \"#utility.yul\":10544:10670   */\n      pop\n        /* \"#utility.yul\":10330:10677   */\n      swap3\n      swap2\n      pop\n      pop\n      jump\t// out\n        /* \"#utility.yul\":10683:10863   */\n    tag_205:\n        /* \"#utility.yul\":10731:10808   */\n      0x4e487b7100000000000000000000000000000000000000000000000000000000\n        /* \"#utility.yul\":10728:10729   */\n      0x00\n        /* \"#utility.yul\":10721:10809   */\n      mstore\n        /* \"#utility.yul\":10828:10832   */\n      0x11\n        /* \"#utility.yul\":10825:10826   */\n      0x04\n        /* \"#utility.yul\":10818:10833   */\n      mstore\n        /* \"#utility.yul\":10852:10856   */\n      0x24\n        /* \"#utility.yul\":10849:10850   */\n      0x00\n        /* \"#utility.yul\":10842:10857   */\n      revert\n        /* \"#utility.yul\":10869:10971   */\n    tag_206:\n        /* \"#utility.yul\":10911:10919   */\n      0x00\n        /* \"#utility.yul\":10958:10963   */\n      dup2\n        /* \"#utility.yul\":10955:10956   */\n      0x01\n        /* \"#utility.yul\":10951:10964   */\n      shr\n        /* \"#utility.yul\":10930:10964   */\n      swap1\n      pop\n        /* \"#utility.yul\":10869:10971   */\n      swap2\n      swap1\n      pop\n      jump\t// out\n        /* \"#utility.yul\":10977:11825   */\n    tag_207:\n        /* \"#utility.yul\":11038:11043   */\n      0x00\n        /* \"#utility.yul\":11045:11049   */\n      0x00\n        /* \"#utility.yul\":11069:11075   */\n      dup3\n        /* \"#utility.yul\":11060:11075   */\n      swap2\n      pop\n        /* \"#utility.yul\":11093:11098   */\n      dup4\n        /* \"#utility.yul\":11084:11098   */\n      swap1\n      pop\n        /* \"#utility.yul\":11107:11819   */\n    tag_356:\n        /* \"#utility.yul\":11128:11129   */\n      0x01\n        /* \"#utility.yul\":11118:11126   */\n      dup6\n        /* \"#utility.yul\":11115:11130   */\n      gt\n        /* \"#utility.yul\":11107:11819   */\n      iszero\n      tag_358\n      jumpi\n        /* \"#utility.yul\":11223:11227   */\n      dup1\n        /* \"#utility.yul\":11218:11221   */\n      dup7\n        /* \"#utility.yul\":11214:11228   */\n      div\n        /* \"#utility.yul\":11208:11212   */\n      dup2\n        /* \"#utility.yul\":11205:11229   */\n      gt\n        /* \"#utility.yul\":11202:11252   */\n      iszero\n      tag_359\n      jumpi\n        /* \"#utility.yul\":11232:11250   */\n      tag_360\n      tag_205\n      jump\t// in\n    tag_360:\n        /* \"#utility.yul\":11202:11252   */\n    tag_359:\n        /* \"#utility.yul\":11282:11283   */\n      0x01\n        /* \"#utility.yul\":11272:11280   */\n      dup6\n        /* \"#utility.yul\":11268:11284   */\n      and\n        /* \"#utility.yul\":11265:11716   */\n      iszero\n      tag_361\n      jumpi\n        /* \"#utility.yul\":11697:11701   */\n      dup1\n        /* \"#utility.yul\":11690:11695   */\n      dup3\n        /* \"#utility.yul\":11686:11702   */\n      mul\n        /* \"#utility.yul\":11677:11702   */\n      swap2\n      pop\n        /* \"#utility.yul\":11265:11716   */\n    tag_361:\n        /* \"#utility.yul\":11747:11751   */\n      dup1\n        /* \"#utility.yul\":11741:11745   */\n      dup2\n        /* \"#utility.yul\":11737:11752   */\n      mul\n        /* \"#utility.yul\":11729:11752   */\n      swap1\n      pop\n        /* \"#utility.yul\":11777:11809   */\n      tag_362\n        /* \"#utility.yul\":11800:11808   */\n      dup6\n        /* \"#utility.yul\":11777:11809   */\n      tag_206\n      jump\t// in\n    tag_362:\n        /* \"#utility.yul\":11765:11809   */\n      swap5\n      pop\n        /* \"#utility.yul\":11107:11819   */\n      jump(tag_356)\n    tag_358:\n        /* \"#utility.yul\":10977:11825   */\n      swap5\n      pop\n      swap5\n      swap3\n      pop\n      pop\n      pop\n      jump\t// out\n        /* \"#utility.yul\":11831:12904   */\n    tag_208:\n        /* \"#utility.yul\":11885:11890   */\n      0x00\n        /* \"#utility.yul\":12076:12084   */\n      dup3\n        /* \"#utility.yul\":12066:12106   */\n      tag_364\n      jumpi\n        /* \"#utility.yul\":12097:12098   */\n      0x01\n        /* \"#utility.yul\":12088:12098   */\n      swap1\n      pop\n        /* \"#utility.yul\":12099:12104   */\n      jump(tag_363)\n        /* \"#utility.yul\":12066:12106   */\n    tag_364:\n        /* \"#utility.yul\":12125:12129   */\n      dup2\n        /* \"#utility.yul\":12115:12151   */\n      tag_365\n      jumpi\n        /* \"#utility.yul\":12142:12143   */\n      0x00\n        /* \"#utility.yul\":12133:12143   */\n      swap1\n      pop\n        /* \"#utility.yul\":12144:12149   */\n      jump(tag_363)\n        /* \"#utility.yul\":12115:12151   */\n    tag_365:\n        /* \"#utility.yul\":12211:12215   */\n      dup2\n        /* \"#utility.yul\":12259:12260   */\n      0x01\n        /* \"#utility.yul\":12254:12281   */\n      dup2\n      eq\n      tag_367\n      jumpi\n        /* \"#utility.yul\":12295:12296   */\n      0x02\n        /* \"#utility.yul\":12290:12481   */\n      dup2\n      eq\n      tag_368\n      jumpi\n        /* \"#utility.yul\":12204:12481   */\n      jump(tag_366)\n        /* \"#utility.yul\":12254:12281   */\n    tag_367:\n        /* \"#utility.yul\":12272:12273   */\n      0x01\n        /* \"#utility.yul\":12263:12273   */\n      swap2\n      pop\n        /* \"#utility.yul\":12274:12279   */\n      pop\n      jump(tag_363)\n        /* \"#utility.yul\":12290:12481   */\n    tag_368:\n        /* \"#utility.yul\":12335:12338   */\n      0xff\n        /* \"#utility.yul\":12325:12333   */\n      dup5\n        /* \"#utility.yul\":12322:12339   */\n      gt\n        /* \"#utility.yul\":12319:12362   */\n      iszero\n      tag_369\n      jumpi\n        /* \"#utility.yul\":12342:12360   */\n      tag_370\n      tag_205\n      jump\t// in\n    tag_370:\n        /* \"#utility.yul\":12319:12362   */\n    tag_369:\n        /* \"#utility.yul\":12391:12399   */\n      dup4\n        /* \"#utility.yul\":12388:12389   */\n      0x02\n        /* \"#utility.yul\":12384:12400   */\n      exp\n        /* \"#utility.yul\":12375:12400   */\n      swap2\n      pop\n        /* \"#utility.yul\":12426:12429   */\n      dup5\n        /* \"#utility.yul\":12419:12424   */\n      dup3\n        /* \"#utility.yul\":12416:12430   */\n      gt\n        /* \"#utility.yul\":12413:12453   */\n      iszero\n      tag_371\n      jumpi\n        /* \"#utility.yul\":12433:12451   */\n      tag_372\n      tag_205\n      jump\t// in\n    tag_372:\n        /* \"#utility.yul\":12413:12453   */\n    tag_371:\n        /* \"#utility.yul\":12466:12471   */\n      pop\n      jump(tag_363)\n        /* \"#utility.yul\":12204:12481   */\n    tag_366:\n      pop\n        /* \"#utility.yul\":12590:12592   */\n      0x20\n        /* \"#utility.yul\":12580:12588   */\n      dup4\n        /* \"#utility.yul\":12577:12593   */\n      lt\n        /* \"#utility.yul\":12571:12574   */\n      0x0133\n        /* \"#utility.yul\":12565:12569   */\n      dup4\n        /* \"#utility.yul\":12562:12575   */\n      lt\n        /* \"#utility.yul\":12558:12594   */\n      and\n        /* \"#utility.yul\":12540:12542   */\n      0x4e\n        /* \"#utility.yul\":12530:12538   */\n      dup5\n        /* \"#utility.yul\":12527:12543   */\n      lt\n        /* \"#utility.yul\":12522:12524   */\n      0x0b\n        /* \"#utility.yul\":12516:12520   */\n      dup5\n        /* \"#utility.yul\":12513:12525   */\n      lt\n        /* \"#utility.yul\":12509:12544   */\n      and\n        /* \"#utility.yul\":12493:12604   */\n      or\n        /* \"#utility.yul\":12490:12736   */\n      iszero\n      tag_373\n      jumpi\n        /* \"#utility.yul\":12646:12654   */\n      dup3\n        /* \"#utility.yul\":12640:12644   */\n      dup3\n        /* \"#utility.yul\":12636:12655   */\n      exp\n        /* \"#utility.yul\":12627:12655   */\n      swap1\n      pop\n        /* \"#utility.yul\":12681:12684   */\n      dup4\n        /* \"#utility.yul\":12674:12679   */\n      dup2\n        /* \"#utility.yul\":12671:12685   */\n      gt\n        /* \"#utility.yul\":12668:12708   */\n      iszero\n      tag_374\n      jumpi\n        /* \"#utility.yul\":12688:12706   */\n      tag_375\n      tag_205\n      jump\t// in\n    tag_375:\n        /* \"#utility.yul\":12668:12708   */\n    tag_374:\n        /* \"#utility.yul\":12721:12726   */\n      jump(tag_363)\n        /* \"#utility.yul\":12490:12736   */\n    tag_373:\n        /* \"#utility.yul\":12761:12803   */\n      tag_376\n        /* \"#utility.yul\":12799:12802   */\n      dup5\n        /* \"#utility.yul\":12789:12797   */\n      dup5\n        /* \"#utility.yul\":12783:12787   */\n      dup5\n        /* \"#utility.yul\":12780:12781   */\n      0x01\n        /* \"#utility.yul\":12761:12803   */\n      tag_207\n      jump\t// in\n    tag_376:\n        /* \"#utility.yul\":12746:12803   */\n      swap3\n      pop\n      swap1\n      pop\n        /* \"#utility.yul\":12835:12839   */\n      dup2\n        /* \"#utility.yul\":12830:12833   */\n      dup5\n        /* \"#utility.yul\":12826:12840   */\n      div\n        /* \"#utility.yul\":12819:12824   */\n      dup2\n        /* \"#utility.yul\":12816:12841   */\n      gt\n        /* \"#utility.yul\":12813:12864   */\n      iszero\n      tag_377\n      jumpi\n        /* \"#utility.yul\":12844:12862   */\n      tag_378\n      tag_205\n      jump\t// in\n    tag_378:\n        /* \"#utility.yul\":12813:12864   */\n    tag_377:\n        /* \"#utility.yul\":12893:12897   */\n      dup2\n        /* \"#utility.yul\":12886:12891   */\n      dup2\n        /* \"#utility.yul\":12882:12898   */\n      mul\n        /* \"#utility.yul\":12873:12898   */\n      swap1\n      pop\n        /* \"#utility.yul\":11831:12904   */\n    tag_363:\n      swap4\n      swap3\n      pop\n      pop\n      pop\n      jump\t// out\n        /* \"#utility.yul\":12910:13191   */\n    tag_71:\n        /* \"#utility.yul\":12968:12973   */\n      0x00\n        /* \"#utility.yul\":12992:13015   */\n      tag_380\n        /* \"#utility.yul\":13010:13014   */\n      dup3\n        /* \"#utility.yul\":12992:13015   */\n      tag_168\n      jump\t// in\n    tag_380:\n        /* \"#utility.yul\":12984:13015   */\n      swap2\n      pop\n        /* \"#utility.yul\":13036:13061   */\n      tag_381\n        /* \"#utility.yul\":13052:13060   */\n      dup4\n        /* \"#utility.yul\":13036:13061   */\n      tag_202\n      jump\t// in\n    tag_381:\n        /* \"#utility.yul\":13024:13061   */\n      swap3\n      pop\n        /* \"#utility.yul\":13080:13184   */\n      tag_382\n        /* \"#utility.yul\":13117:13183   */\n      0xffffffffffffffffffffffffffffffffffffffffffffffffffffffffffffffff\n        /* \"#utility.yul\":13107:13115   */\n      dup5\n        /* \"#utility.yul\":13101:13105   */\n      dup5\n        /* \"#utility.yul\":13080:13184   */\n      tag_208\n      jump\t// in\n    tag_382:\n        /* \"#utility.yul\":13071:13184   */\n      swap1\n      pop\n        /* \"#utility.yul\":12910:13191   */\n      swap3\n      swap2\n      pop\n      pop\n      jump\t// out\n        /* \"#utility.yul\":13197:13607   */\n    tag_73:\n        /* \"#utility.yul\":13237:13244   */\n      0x00\n        /* \"#utility.yul\":13260:13280   */\n      tag_384\n        /* \"#utility.yul\":13278:13279   */\n      dup3\n        /* \"#utility.yul\":13260:13280   */\n      tag_168\n      jump\t// in\n    tag_384:\n        /* \"#utility.yul\":13255:13280   */\n      swap2\n      pop\n        /* \"#utility.yul\":13294:13314   */\n      tag_385\n        /* \"#utility.yul\":13312:13313   */\n      dup4\n        /* \"#utility.yul\":13294:13314   */\n      tag_168\n      jump\t// in\n    tag_385:\n        /* \"#utility.yul\":13289:13314   */\n      swap3\n      pop\n        /* \"#utility.yul\":13349:13350   */\n      dup3\n        /* \"#utility.yul\":13346:13347   */\n      dup3\n        /* \"#utility.yul\":13342:13351   */\n      mul\n        /* \"#utility.yul\":13371:13401   */\n      tag_386\n        /* \"#utility.yul\":13389:13400   */\n      dup2\n        /* \"#utility.yul\":13371:13401   */\n      tag_168\n      jump\t// in\n    tag_386:\n        /* \"#utility.yul\":13360:13401   */\n      swap2\n      pop\n        /* \"#utility.yul\":13550:13551   */\n      dup3\n        /* \"#utility.yul\":13541:13548   */\n      dup3\n        /* \"#utility.yul\":13537:13552   */\n      div\n        /* \"#utility.yul\":13534:13535   */\n      dup5\n        /* \"#utility.yul\":13531:13553   */\n      eq\n        /* \"#utility.yul\":13511:13512   */\n      dup4\n        /* \"#utility.yul\":13504:13513   */\n      iszero\n        /* \"#utility.yul\":13484:13567   */\n      or\n        /* \"#utility.yul\":13461:13600   */\n      tag_387\n      jumpi\n        /* \"#utility.yul\":13580:13598   */\n      tag_388\n      tag_205\n      jump\t// in\n    tag_388:\n        /* \"#utility.yul\":13461:13600   */\n    tag_387:\n        /* \"#utility.yul\":13245:13607   */\n      pop\n        /* \"#utility.yul\":13197:13607   */\n      swap3\n      swap2\n      pop\n      pop\n      jump\t// out\n        /* \"#utility.yul\":13613:13756   */\n    tag_209:\n        /* \"#utility.yul\":13670:13675   */\n      0x00\n        /* \"#utility.yul\":13701:13707   */\n      dup2\n        /* \"#utility.yul\":13695:13708   */\n      mload\n        /* \"#utility.yul\":13686:13708   */\n      swap1\n      pop\n        /* \"#utility.yul\":13717:13750   */\n      tag_390\n        /* \"#utility.yul\":13744:13749   */\n      dup2\n        /* \"#utility.yul\":13717:13750   */\n      tag_169\n      jump\t// in\n    tag_390:\n        /* \"#utility.yul\":13613:13756   */\n      swap3\n      swap2\n      pop\n      pop\n      jump\t// out\n        /* \"#utility.yul\":13762:14113   */\n    tag_78:\n        /* \"#utility.yul\":13832:13838   */\n      0x00\n        /* \"#utility.yul\":13881:13883   */\n      0x20\n        /* \"#utility.yul\":13869:13878   */\n      dup3\n        /* \"#utility.yul\":13860:13867   */\n      dup5\n        /* \"#utility.yul\":13856:13879   */\n      sub\n        /* \"#utility.yul\":13852:13884   */\n      slt\n        /* \"#utility.yul\":13849:13968   */\n      iszero\n      tag_392\n      jumpi\n        /* \"#utility.yul\":13887:13966   */\n      tag_393\n      tag_166\n      jump\t// in\n    tag_393:\n        /* \"#utility.yul\":13849:13968   */\n    tag_392:\n        /* \"#utility.yul\":14007:14008   */\n      0x00\n        /* \"#utility.yul\":14032:14096   */\n      tag_394\n        /* \"#utility.yul\":14088:14095   */\n      dup5\n        /* \"#utility.yul\":14079:14085   */\n      dup3\n        /* \"#utility.yul\":14068:14077   */\n      dup6\n        /* \"#utility.yul\":14064:14086   */\n      add\n        /* \"#utility.yul\":14032:14096   */\n      tag_209\n      jump\t// in\n    tag_394:\n        /* \"#utility.yul\":14022:14096   */\n      swap2\n      pop\n        /* \"#utility.yul\":13978:14106   */\n      pop\n        /* \"#utility.yul\":13762:14113   */\n      swap3\n      swap2\n      pop\n      pop\n      jump\t// out\n        /* \"#utility.yul\":14119:14294   */\n    tag_210:\n        /* \"#utility.yul\":14259:14286   */\n      0x4e6f7420656e6f75676820746f6b656e7320746f20766f746500000000000000\n        /* \"#utility.yul\":14255:14256   */\n      0x00\n        /* \"#utility.yul\":14247:14253   */\n      dup3\n        /* \"#utility.yul\":14243:14257   */\n      add\n        /* \"#utility.yul\":14236:14287   */\n      mstore\n        /* \"#utility.yul\":14119:14294   */\n      pop\n      jump\t// out\n        /* \"#utility.yul\":14300:14666   */\n    tag_211:\n        /* \"#utility.yul\":14442:14445   */\n      0x00\n        /* \"#utility.yul\":14463:14530   */\n      tag_397\n        /* \"#utility.yul\":14527:14529   */\n      0x19\n        /* \"#utility.yul\":14522:14525   */\n      dup4\n        /* \"#utility.yul\":14463:14530   */\n      tag_173\n      jump\t// in\n    tag_397:\n        /* \"#utility.yul\":14456:14530   */\n      swap2\n      pop\n        /* \"#utility.yul\":14539:14632   */\n      tag_398\n        /* \"#utility.yul\":14628:14631   */\n      dup3\n        /* \"#utility.yul\":14539:14632   */\n      tag_210\n      jump\t// in\n    tag_398:\n        /* \"#utility.yul\":14657:14659   */\n      0x20\n        /* \"#utility.yul\":14652:14655   */\n      dup3\n        /* \"#utility.yul\":14648:14660   */\n      add\n        /* \"#utility.yul\":14641:14660   */\n      swap1\n      pop\n        /* \"#utility.yul\":14300:14666   */\n      swap2\n      swap1\n      pop\n      jump\t// out\n        /* \"#utility.yul\":14672:15091   */\n    tag_81:\n        /* \"#utility.yul\":14838:14842   */\n      0x00\n        /* \"#utility.yul\":14876:14878   */\n      0x20\n        /* \"#utility.yul\":14865:14874   */\n      dup3\n        /* \"#utility.yul\":14861:14879   */\n      add\n        /* \"#utility.yul\":14853:14879   */\n      swap1\n      pop\n        /* \"#utility.yul\":14925:14934   */\n      dup2\n        /* \"#utility.yul\":14919:14923   */\n      dup2\n        /* \"#utility.yul\":14915:14935   */\n      sub\n        /* \"#utility.yul\":14911:14912   */\n      0x00\n        /* \"#utility.yul\":14900:14909   */\n      dup4\n        /* \"#utility.yul\":14896:14913   */\n      add\n        /* \"#utility.yul\":14889:14936   */\n      mstore\n        /* \"#utility.yul\":14953:15084   */\n      tag_400\n        /* \"#utility.yul\":15079:15083   */\n      dup2\n        /* \"#utility.yul\":14953:15084   */\n      tag_211\n      jump\t// in\n    tag_400:\n        /* \"#utility.yul\":14945:15084   */\n      swap1\n      pop\n        /* \"#utility.yul\":14672:15091   */\n      swap2\n      swap1\n      pop\n      jump\t// out\n        /* \"#utility.yul\":15097:15429   */\n    tag_83:\n        /* \"#utility.yul\":15218:15222   */\n      0x00\n        /* \"#utility.yul\":15256:15258   */\n      0x40\n        /* \"#utility.yul\":15245:15254   */\n      dup3\n        /* \"#utility.yul\":15241:15259   */\n      add\n        /* \"#utility.yul\":15233:15259   */\n      swap1\n      pop\n        /* \"#utility.yul\":15269:15340   */\n      tag_402\n        /* \"#utility.yul\":15337:15338   */\n      0x00\n        /* \"#utility.yul\":15326:15335   */\n      dup4\n        /* \"#utility.yul\":15322:15339   */\n      add\n        /* \"#utility.yul\":15313:15319   */\n      dup6\n        /* \"#utility.yul\":15269:15340   */\n      tag_188\n      jump\t// in\n    tag_402:\n        /* \"#utility.yul\":15350:15422   */\n      tag_403\n        /* \"#utility.yul\":15418:15420   */\n      0x20\n        /* \"#utility.yul\":15407:15416   */\n      dup4\n        /* \"#utility.yul\":15403:15421   */\n      add\n        /* \"#utility.yul\":15394:15400   */\n      dup5\n        /* \"#utility.yul\":15350:15422   */\n      tag_188\n      jump\t// in\n    tag_403:\n        /* \"#utility.yul\":15097:15429   */\n      swap4\n      swap3\n      pop\n      pop\n      pop\n      jump\t// out\n        /* \"#utility.yul\":15435:15605   */\n    tag_212:\n        /* \"#utility.yul\":15575:15597   */\n      0x417070726f766520746f6b656e73206669727374000000000000000000000000\n        /* \"#utility.yul\":15571:15572   */\n      0x00\n        /* \"#utility.yul\":15563:15569   */\n      dup3\n        /* \"#utility.yul\":15559:15573   */\n      add\n        /* \"#utility.yul\":15552:15598   */\n      mstore\n        /* \"#utility.yul\":15435:15605   */\n      pop\n      jump\t// out\n        /* \"#utility.yul\":15611:15977   */\n    tag_213:\n        /* \"#utility.yul\":15753:15756   */\n      0x00\n        /* \"#utility.yul\":15774:15841   */\n      tag_406\n        /* \"#utility.yul\":15838:15840   */\n      0x14\n        /* \"#utility.yul\":15833:15836   */\n      dup4\n        /* \"#utility.yul\":15774:15841   */\n      tag_173\n      jump\t// in\n    tag_406:\n        /* \"#utility.yul\":15767:15841   */\n      swap2\n      pop\n        /* \"#utility.yul\":15850:15943   */\n      tag_407\n        /* \"#utility.yul\":15939:15942   */\n      dup3\n        /* \"#utility.yul\":15850:15943   */\n      tag_212\n      jump\t// in\n    tag_407:\n        /* \"#utility.yul\":15968:15970   */\n      0x20\n        /* \"#utility.yul\":15963:15966   */\n      dup3\n        /* \"#utility.yul\":15959:15971   */\n      add\n        /* \"#utility.yul\":15952:15971   */\n      swap1\n      pop\n        /* \"#utility.yul\":15611:15977   */\n      swap2\n      swap1\n      pop\n      jump\t// out\n        /* \"#utility.yul\":15983:16402   */\n    tag_89:\n        /* \"#utility.yul\":16149:16153   */\n      0x00\n        /* \"#utility.yul\":16187:16189   */\n      0x20\n        /* \"#utility.yul\":16176:16185   */\n      dup3\n        /* \"#utility.yul\":16172:16190   */\n      add\n        /* \"#utility.yul\":16164:16190   */\n      swap1\n      pop\n        /* \"#utility.yul\":16236:16245   */\n      dup2\n        /* \"#utility.yul\":16230:16234   */\n      dup2\n        /* \"#utility.yul\":16226:16246   */\n      sub\n        /* \"#utility.yul\":16222:16223   */\n      0x00\n        /* \"#utility.yul\":16211:16220   */\n      dup4\n        /* \"#utility.yul\":16207:16224   */\n      add\n        /* \"#utility.yul\":16200:16247   */\n      mstore\n        /* \"#utility.yul\":16264:16395   */\n      tag_409\n        /* \"#utility.yul\":16390:16394   */\n      dup2\n        /* \"#utility.yul\":16264:16395   */\n      tag_213\n      jump\t// in\n    tag_409:\n        /* \"#utility.yul\":16256:16395   */\n      swap1\n      pop\n        /* \"#utility.yul\":15983:16402   */\n      swap2\n      swap1\n      pop\n      jump\t// out\n        /* \"#utility.yul\":16408:16850   */\n    tag_91:\n        /* \"#utility.yul\":16557:16561   */\n      0x00\n        /* \"#utility.yul\":16595:16597   */\n      0x60\n        /* \"#utility.yul\":16584:16593   */\n      dup3\n        /* \"#utility.yul\":16580:16598   */\n      add\n        /* \"#utility.yul\":16572:16598   */\n      swap1\n      pop\n        /* \"#utility.yul\":16608:16679   */\n      tag_411\n        /* \"#utility.yul\":16676:16677   */\n      0x00\n        /* \"#utility.yul\":16665:16674   */\n      dup4\n        /* \"#utility.yul\":16661:16678   */\n      add\n        /* \"#utility.yul\":16652:16658   */\n      dup7\n        /* \"#utility.yul\":16608:16679   */\n      tag_188\n      jump\t// in\n    tag_411:\n        /* \"#utility.yul\":16689:16761   */\n      tag_412\n        /* \"#utility.yul\":16757:16759   */\n      0x20\n        /* \"#utility.yul\":16746:16755   */\n      dup4\n        /* \"#utility.yul\":16742:16760   */\n      add\n        /* \"#utility.yul\":16733:16739   */\n      dup6\n        /* \"#utility.yul\":16689:16761   */\n      tag_188\n      jump\t// in\n    tag_412:\n        /* \"#utility.yul\":16771:16843   */\n      tag_413\n        /* \"#utility.yul\":16839:16841   */\n      0x40\n        /* \"#utility.yul\":16828:16837   */\n      dup4\n        /* \"#utility.yul\":16824:16842   */\n      add\n        /* \"#utility.yul\":16815:16821   */\n      dup5\n        /* \"#utility.yul\":16771:16843   */\n      tag_171\n      jump\t// in\n    tag_413:\n        /* \"#utility.yul\":16408:16850   */\n      swap5\n      swap4\n      pop\n      pop\n      pop\n      pop\n      jump\t// out\n        /* \"#utility.yul\":16856:16972   */\n    tag_214:\n        /* \"#utility.yul\":16926:16947   */\n      tag_415\n        /* \"#utility.yul\":16941:16946   */\n      dup2\n        /* \"#utility.yul\":16926:16947   */\n      tag_191\n      jump\t// in\n    tag_415:\n        /* \"#utility.yul\":16919:16924   */\n      dup2\n        /* \"#utility.yul\":16916:16948   */\n      eq\n        /* \"#utility.yul\":16906:16966   */\n      tag_416\n      jumpi\n        /* \"#utility.yul\":16962:16963   */\n      0x00\n        /* \"#utility.yul\":16959:16960   */\n      0x00\n        /* \"#utility.yul\":16952:16964   */\n      revert\n        /* \"#utility.yul\":16906:16966   */\n    tag_416:\n        /* \"#utility.yul\":16856:16972   */\n      pop\n      jump\t// out\n        /* \"#utility.yul\":16978:17115   */\n    tag_215:\n        /* \"#utility.yul\":17032:17037   */\n      0x00\n        /* \"#utility.yul\":17063:17069   */\n      dup2\n        /* \"#utility.yul\":17057:17070   */\n      mload\n        /* \"#utility.yul\":17048:17070   */\n      swap1\n      pop\n        /* \"#utility.yul\":17079:17109   */\n      tag_418\n        /* \"#utility.yul\":17103:17108   */\n      dup2\n        /* \"#utility.yul\":17079:17109   */\n      tag_214\n      jump\t// in\n    tag_418:\n        /* \"#utility.yul\":16978:17115   */\n      swap3\n      swap2\n      pop\n      pop\n      jump\t// out\n        /* \"#utility.yul\":17121:17466   */\n    tag_95:\n        /* \"#utility.yul\":17188:17194   */\n      0x00\n        /* \"#utility.yul\":17237:17239   */\n      0x20\n        /* \"#utility.yul\":17225:17234   */\n      dup3\n        /* \"#utility.yul\":17216:17223   */\n      dup5\n        /* \"#utility.yul\":17212:17235   */\n      sub\n        /* \"#utility.yul\":17208:17240   */\n      slt\n        /* \"#utility.yul\":17205:17324   */\n      iszero\n      tag_420\n      jumpi\n        /* \"#utility.yul\":17243:17322   */\n      tag_421\n      tag_166\n      jump\t// in\n    tag_421:\n        /* \"#utility.yul\":17205:17324   */\n    tag_420:\n        /* \"#utility.yul\":17363:17364   */\n      0x00\n        /* \"#utility.yul\":17388:17449   */\n      tag_422\n        /* \"#utility.yul\":17441:17448   */\n      dup5\n        /* \"#utility.yul\":17432:17438   */\n      dup3\n        /* \"#utility.yul\":17421:17430   */\n      dup6\n        /* \"#utility.yul\":17417:17439   */\n      add\n        /* \"#utility.yul\":17388:17449   */\n      tag_215\n      jump\t// in\n    tag_422:\n        /* \"#utility.yul\":17378:17449   */\n      swap2\n      pop\n        /* \"#utility.yul\":17334:17459   */\n      pop\n        /* \"#utility.yul\":17121:17466   */\n      swap3\n      swap2\n      pop\n      pop\n      jump\t// out\n        /* \"#utility.yul\":17472:17637   */\n    tag_216:\n        /* \"#utility.yul\":17612:17629   */\n      0x5472616e73666572206661696c65640000000000000000000000000000000000\n        /* \"#utility.yul\":17608:17609   */\n      0x00\n        /* \"#utility.yul\":17600:17606   */\n      dup3\n        /* \"#utility.yul\":17596:17610   */\n      add\n        /* \"#utility.yul\":17589:17630   */\n      mstore\n        /* \"#utility.yul\":17472:17637   */\n      pop\n      jump\t// out\n        /* \"#utility.yul\":17643:18009   */\n    tag_217:\n        /* \"#utility.yul\":17785:17788   */\n      0x00\n        /* \"#utility.yul\":17806:17873   */\n      tag_425\n        /* \"#utility.yul\":17870:17872   */\n      0x0f\n        /* \"#utility.yul\":17865:17868   */\n      dup4\n        /* \"#utility.yul\":17806:17873   */\n      tag_173\n      jump\t// in\n    tag_425:\n        /* \"#utility.yul\":17799:17873   */\n      swap2\n      pop\n        /* \"#utility.yul\":17882:17975   */\n      tag_426\n        /* \"#utility.yul\":17971:17974   */\n      dup3\n        /* \"#utility.yul\":17882:17975   */\n      tag_216\n      jump\t// in\n    tag_426:\n        /* \"#utility.yul\":18000:18002   */\n      0x20\n        /* \"#utility.yul\":17995:17998   */\n      dup3\n        /* \"#utility.yul\":17991:18003   */\n      add\n        /* \"#utility.yul\":17984:18003   */\n      swap1\n      pop\n        /* \"#utility.yul\":17643:18009   */\n      swap2\n      swap1\n      pop\n      jump\t// out\n        /* \"#utility.yul\":18015:18434   */\n    tag_98:\n        /* \"#utility.yul\":18181:18185   */\n      0x00\n        /* \"#utility.yul\":18219:18221   */\n      0x20\n        /* \"#utility.yul\":18208:18217   */\n      dup3\n        /* \"#utility.yul\":18204:18222   */\n      add\n        /* \"#utility.yul\":18196:18222   */\n      swap1\n      pop\n        /* \"#utility.yul\":18268:18277   */\n      dup2\n        /* \"#utility.yul\":18262:18266   */\n      dup2\n        /* \"#utility.yul\":18258:18278   */\n      sub\n        /* \"#utility.yul\":18254:18255   */\n      0x00\n        /* \"#utility.yul\":18243:18252   */\n      dup4\n        /* \"#utility.yul\":18239:18256   */\n      add\n        /* \"#utility.yul\":18232:18279   */\n      mstore\n        /* \"#utility.yul\":18296:18427   */\n      tag_428\n        /* \"#utility.yul\":18422:18426   */\n      dup2\n        /* \"#utility.yul\":18296:18427   */\n      tag_217\n      jump\t// in\n    tag_428:\n        /* \"#utility.yul\":18288:18427   */\n      swap1\n      pop\n        /* \"#utility.yul\":18015:18434   */\n      swap2\n      swap1\n      pop\n      jump\t// out\n        /* \"#utility.yul\":18440:18631   */\n    tag_100:\n        /* \"#utility.yul\":18480:18483   */\n      0x00\n        /* \"#utility.yul\":18499:18519   */\n      tag_430\n        /* \"#utility.yul\":18517:18518   */\n      dup3\n        /* \"#utility.yul\":18499:18519   */\n      tag_168\n      jump\t// in\n    tag_430:\n        /* \"#utility.yul\":18494:18519   */\n      swap2\n      pop\n        /* \"#utility.yul\":18533:18553   */\n      tag_431\n        /* \"#utility.yul\":18551:18552   */\n      dup4\n        /* \"#utility.yul\":18533:18553   */\n      tag_168\n      jump\t// in\n    tag_431:\n        /* \"#utility.yul\":18528:18553   */\n      swap3\n      pop\n        /* \"#utility.yul\":18576:18577   */\n      dup3\n        /* \"#utility.yul\":18573:18574   */\n      dup3\n        /* \"#utility.yul\":18569:18578   */\n      add\n        /* \"#utility.yul\":18562:18578   */\n      swap1\n      pop\n        /* \"#utility.yul\":18597:18600   */\n      dup1\n        /* \"#utility.yul\":18594:18595   */\n      dup3\n        /* \"#utility.yul\":18591:18601   */\n      gt\n        /* \"#utility.yul\":18588:18624   */\n      iszero\n      tag_432\n      jumpi\n        /* \"#utility.yul\":18604:18622   */\n      tag_433\n      tag_205\n      jump\t// in\n    tag_433:\n        /* \"#utility.yul\":18588:18624   */\n    tag_432:\n        /* \"#utility.yul\":18440:18631   */\n      swap3\n      swap2\n      pop\n      pop\n      jump\t// out\n        /* \"#utility.yul\":18637:18816   */\n    tag_218:\n        /* \"#utility.yul\":18777:18808   */\n      0x4e6f7420656e6f75676820746f6b656e7320696e20636f6e7472616374000000\n        /* \"#utility.yul\":18773:18774   */\n      0x00\n        /* \"#utility.yul\":18765:18771   */\n      dup3\n        /* \"#utility.yul\":18761:18775   */\n      add\n        /* \"#utility.yul\":18754:18809   */\n      mstore\n        /* \"#utility.yul\":18637:18816   */\n      pop\n      jump\t// out\n        /* \"#utility.yul\":18822:19188   */\n    tag_219:\n        /* \"#utility.yul\":18964:18967   */\n      0x00\n        /* \"#utility.yul\":18985:19052   */\n      tag_436\n        /* \"#utility.yul\":19049:19051   */\n      0x1d\n        /* \"#utility.yul\":19044:19047   */\n      dup4\n        /* \"#utility.yul\":18985:19052   */\n      tag_173\n      jump\t// in\n    tag_436:\n        /* \"#utility.yul\":18978:19052   */\n      swap2\n      pop\n        /* \"#utility.yul\":19061:19154   */\n      tag_437\n        /* \"#utility.yul\":19150:19153   */\n      dup3\n        /* \"#utility.yul\":19061:19154   */\n      tag_218\n      jump\t// in\n    tag_437:\n        /* \"#utility.yul\":19179:19181   */\n      0x20\n        /* \"#utility.yul\":19174:19177   */\n      dup3\n        /* \"#utility.yul\":19170:19182   */\n      add\n        /* \"#utility.yul\":19163:19182   */\n      swap1\n      pop\n        /* \"#utility.yul\":18822:19188   */\n      swap2\n      swap1\n      pop\n      jump\t// out\n        /* \"#utility.yul\":19194:19613   */\n    tag_111:\n        /* \"#utility.yul\":19360:19364   */\n      0x00\n        /* \"#utility.yul\":19398:19400   */\n      0x20\n        /* \"#utility.yul\":19387:19396   */\n      dup3\n        /* \"#utility.yul\":19383:19401   */\n      add\n        /* \"#utility.yul\":19375:19401   */\n      swap1\n      pop\n        /* \"#utility.yul\":19447:19456   */\n      dup2\n        /* \"#utility.yul\":19441:19445   */\n      dup2\n        /* \"#utility.yul\":19437:19457   */\n      sub\n        /* \"#utility.yul\":19433:19434   */\n      0x00\n        /* \"#utility.yul\":19422:19431   */\n      dup4\n        /* \"#utility.yul\":19418:19435   */\n      add\n        /* \"#utility.yul\":19411:19458   */\n      mstore\n        /* \"#utility.yul\":19475:19606   */\n      tag_439\n        /* \"#utility.yul\":19601:19605   */\n      dup2\n        /* \"#utility.yul\":19475:19606   */\n      tag_219\n      jump\t// in\n    tag_439:\n        /* \"#utility.yul\":19467:19606   */\n      swap1\n      pop\n        /* \"#utility.yul\":19194:19613   */\n      swap2\n      swap1\n      pop\n      jump\t// out\n        /* \"#utility.yul\":19619:19951   */\n    tag_113:\n        /* \"#utility.yul\":19740:19744   */\n      0x00\n        /* \"#utility.yul\":19778:19780   */\n      0x40\n        /* \"#utility.yul\":19767:19776   */\n      dup3\n        /* \"#utility.yul\":19763:19781   */\n      add\n        /* \"#utility.yul\":19755:19781   */\n      swap1\n      pop\n        /* \"#utility.yul\":19791:19862   */\n      tag_441\n        /* \"#utility.yul\":19859:19860   */\n      0x00\n        /* \"#utility.yul\":19848:19857   */\n      dup4\n        /* \"#utility.yul\":19844:19861   */\n      add\n        /* \"#utility.yul\":19835:19841   */\n      dup6\n        /* \"#utility.yul\":19791:19862   */\n      tag_188\n      jump\t// in\n    tag_441:\n        /* \"#utility.yul\":19872:19944   */\n      tag_442\n        /* \"#utility.yul\":19940:19942   */\n      0x20\n        /* \"#utility.yul\":19929:19938   */\n      dup4\n        /* \"#utility.yul\":19925:19943   */\n      add\n        /* \"#utility.yul\":19916:19922   */\n      dup5\n        /* \"#utility.yul\":19872:19944   */\n      tag_171\n      jump\t// in\n    tag_442:\n        /* \"#utility.yul\":19619:19951   */\n      swap4\n      swap3\n      pop\n      pop\n      pop\n      jump\t// out\n        /* \"#utility.yul\":19957:20137   */\n    tag_220:\n        /* \"#utility.yul\":20005:20082   */\n      0x4e487b7100000000000000000000000000000000000000000000000000000000\n        /* \"#utility.yul\":20002:20003   */\n      0x00\n        /* \"#utility.yul\":19995:20083   */\n      mstore\n        /* \"#utility.yul\":20102:20106   */\n      0x22\n        /* \"#utility.yul\":20099:20100   */\n      0x04\n        /* \"#utility.yul\":20092:20107   */\n      mstore\n        /* \"#utility.yul\":20126:20130   */\n      0x24\n        /* \"#utility.yul\":20123:20124   */\n      0x00\n        /* \"#utility.yul\":20116:20131   */\n      revert\n        /* \"#utility.yul\":20143:20463   */\n    tag_120:\n        /* \"#utility.yul\":20187:20193   */\n      0x00\n        /* \"#utility.yul\":20224:20225   */\n      0x02\n        /* \"#utility.yul\":20218:20222   */\n      dup3\n        /* \"#utility.yul\":20214:20226   */\n      div\n        /* \"#utility.yul\":20204:20226   */\n      swap1\n      pop\n        /* \"#utility.yul\":20271:20272   */\n      0x01\n        /* \"#utility.yul\":20265:20269   */\n      dup3\n        /* \"#utility.yul\":20261:20273   */\n      and\n        /* \"#utility.yul\":20292:20310   */\n      dup1\n        /* \"#utility.yul\":20282:20363   */\n      tag_445\n      jumpi\n        /* \"#utility.yul\":20348:20352   */\n      0x7f\n        /* \"#utility.yul\":20340:20346   */\n      dup3\n        /* \"#utility.yul\":20336:20353   */\n      and\n        /* \"#utility.yul\":20326:20353   */\n      swap2\n      pop\n        /* \"#utility.yul\":20282:20363   */\n    tag_445:\n        /* \"#utility.yul\":20410:20412   */\n      0x20\n        /* \"#utility.yul\":20402:20408   */\n      dup3\n        /* \"#utility.yul\":20399:20413   */\n      lt\n        /* \"#utility.yul\":20379:20397   */\n      dup2\n        /* \"#utility.yul\":20376:20414   */\n      sub\n        /* \"#utility.yul\":20373:20457   */\n      tag_446\n      jumpi\n        /* \"#utility.yul\":20429:20447   */\n      tag_447\n      tag_220\n      jump\t// in\n    tag_447:\n        /* \"#utility.yul\":20373:20457   */\n    tag_446:\n        /* \"#utility.yul\":20194:20463   */\n      pop\n        /* \"#utility.yul\":20143:20463   */\n      swap2\n      swap1\n      pop\n      jump\t// out\n        /* \"#utility.yul\":20469:20702   */\n    tag_160:\n        /* \"#utility.yul\":20508:20511   */\n      0x00\n        /* \"#utility.yul\":20531:20555   */\n      tag_449\n        /* \"#utility.yul\":20549:20554   */\n      dup3\n        /* \"#utility.yul\":20531:20555   */\n      tag_168\n      jump\t// in\n    tag_449:\n        /* \"#utility.yul\":20522:20555   */\n      swap2\n      pop\n        /* \"#utility.yul\":20577:20643   */\n      0xffffffffffffffffffffffffffffffffffffffffffffffffffffffffffffffff\n        /* \"#utility.yul\":20570:20575   */\n      dup3\n        /* \"#utility.yul\":20567:20644   */\n      sub\n        /* \"#utility.yul\":20564:20667   */\n      tag_450\n      jumpi\n        /* \"#utility.yul\":20647:20665   */\n      tag_451\n      tag_205\n      jump\t// in\n    tag_451:\n        /* \"#utility.yul\":20564:20667   */\n    tag_450:\n        /* \"#utility.yul\":20694:20695   */\n      0x01\n        /* \"#utility.yul\":20687:20692   */\n      dup3\n        /* \"#utility.yul\":20683:20696   */\n      add\n        /* \"#utility.yul\":20676:20696   */\n      swap1\n      pop\n        /* \"#utility.yul\":20469:20702   */\n      swap2\n      swap1\n      pop\n      jump\t// out\n        /* \"#utility.yul\":20708:20849   */\n    tag_221:\n        /* \"#utility.yul\":20757:20761   */\n      0x00\n        /* \"#utility.yul\":20780:20783   */\n      dup2\n        /* \"#utility.yul\":20772:20783   */\n      swap1\n      pop\n        /* \"#utility.yul\":20803:20806   */\n      dup2\n        /* \"#utility.yul\":20800:20801   */\n      0x00\n        /* \"#utility.yul\":20793:20807   */\n      mstore\n        /* \"#utility.yul\":20837:20841   */\n      0x20\n        /* \"#utility.yul\":20834:20835   */\n      0x00\n        /* \"#utility.yul\":20824:20842   */\n      keccak256\n        /* \"#utility.yul\":20816:20842   */\n      swap1\n      pop\n        /* \"#utility.yul\":20708:20849   */\n      swap2\n      swap1\n      pop\n      jump\t// out\n        /* \"#utility.yul\":20855:20948   */\n    tag_222:\n        /* \"#utility.yul\":20892:20898   */\n      0x00\n        /* \"#utility.yul\":20939:20941   */\n      0x20\n        /* \"#utility.yul\":20934:20936   */\n      0x1f\n        /* \"#utility.yul\":20927:20932   */\n      dup4\n        /* \"#utility.yul\":20923:20937   */\n      add\n        /* \"#utility.yul\":20919:20942   */\n      div\n        /* \"#utility.yul\":20909:20942   */\n      swap1\n      pop\n        /* \"#utility.yul\":20855:20948   */\n      swap2\n      swap1\n      pop\n      jump\t// out\n        /* \"#utility.yul\":20954:21061   */\n    tag_223:\n        /* \"#utility.yul\":20998:21006   */\n      0x00\n        /* \"#utility.yul\":21048:21053   */\n      dup3\n        /* \"#utility.yul\":21042:21046   */\n      dup3\n        /* \"#utility.yul\":21038:21054   */\n      shl\n        /* \"#utility.yul\":21017:21054   */\n      swap1\n      pop\n        /* \"#utility.yul\":20954:21061   */\n      swap3\n      swap2\n      pop\n      pop\n      jump\t// out\n        /* \"#utility.yul\":21067:21460   */\n    tag_224:\n        /* \"#utility.yul\":21136:21142   */\n      0x00\n        /* \"#utility.yul\":21186:21187   */\n      0x08\n        /* \"#utility.yul\":21174:21184   */\n      dup4\n        /* \"#utility.yul\":21170:21188   */\n      mul\n        /* \"#utility.yul\":21209:21306   */\n      tag_456\n        /* \"#utility.yul\":21239:21305   */\n      0xffffffffffffffffffffffffffffffffffffffffffffffffffffffffffffffff\n        /* \"#utility.yul\":21228:21237   */\n      dup3\n        /* \"#utility.yul\":21209:21306   */\n      tag_223\n      jump\t// in\n    tag_456:\n        /* \"#utility.yul\":21327:21366   */\n      tag_457\n        /* \"#utility.yul\":21357:21365   */\n      dup7\n        /* \"#utility.yul\":21346:21355   */\n      dup4\n        /* \"#utility.yul\":21327:21366   */\n      tag_223\n      jump\t// in\n    tag_457:\n        /* \"#utility.yul\":21315:21366   */\n      swap6\n      pop\n        /* \"#utility.yul\":21399:21403   */\n      dup1\n        /* \"#utility.yul\":21395:21404   */\n      not\n        /* \"#utility.yul\":21388:21393   */\n      dup5\n        /* \"#utility.yul\":21384:21405   */\n      and\n        /* \"#utility.yul\":21375:21405   */\n      swap4\n      pop\n        /* \"#utility.yul\":21448:21452   */\n      dup1\n        /* \"#utility.yul\":21438:21446   */\n      dup7\n        /* \"#utility.yul\":21434:21453   */\n      and\n        /* \"#utility.yul\":21427:21432   */\n      dup5\n        /* \"#utility.yul\":21424:21454   */\n      or\n        /* \"#utility.yul\":21414:21454   */\n      swap3\n      pop\n        /* \"#utility.yul\":21143:21460   */\n      pop\n      pop\n        /* \"#utility.yul\":21067:21460   */\n      swap4\n      swap3\n      pop\n      pop\n      pop\n      jump\t// out\n        /* \"#utility.yul\":21466:21608   */\n    tag_225:\n        /* \"#utility.yul\":21516:21525   */\n      0x00\n        /* \"#utility.yul\":21549:21602   */\n      tag_459\n        /* \"#utility.yul\":21567:21601   */\n      tag_460\n        /* \"#utility.yul\":21576:21600   */\n      tag_461\n        /* \"#utility.yul\":21594:21599   */\n      dup5\n        /* \"#utility.yul\":21576:21600   */\n      tag_168\n      jump\t// in\n    tag_461:\n        /* \"#utility.yul\":21567:21601   */\n      tag_193\n      jump\t// in\n    tag_460:\n        /* \"#utility.yul\":21549:21602   */\n      tag_168\n      jump\t// in\n    tag_459:\n        /* \"#utility.yul\":21536:21602   */\n      swap1\n      pop\n        /* \"#utility.yul\":21466:21608   */\n      swap2\n      swap1\n      pop\n      jump\t// out\n        /* \"#utility.yul\":21614:21689   */\n    tag_226:\n        /* \"#utility.yul\":21657:21660   */\n      0x00\n        /* \"#utility.yul\":21678:21683   */\n      dup2\n        /* \"#utility.yul\":21671:21683   */\n      swap1\n      pop\n        /* \"#utility.yul\":21614:21689   */\n      swap2\n      swap1\n      pop\n      jump\t// out\n        /* \"#utility.yul\":21695:21964   */\n    tag_227:\n        /* \"#utility.yul\":21805:21844   */\n      tag_464\n        /* \"#utility.yul\":21836:21843   */\n      dup4\n        /* \"#utility.yul\":21805:21844   */\n      tag_225\n      jump\t// in\n    tag_464:\n        /* \"#utility.yul\":21866:21957   */\n      tag_465\n        /* \"#utility.yul\":21915:21956   */\n      tag_466\n        /* \"#utility.yul\":21939:21955   */\n      dup3\n        /* \"#utility.yul\":21915:21956   */\n      tag_226\n      jump\t// in\n    tag_466:\n        /* \"#utility.yul\":21907:21913   */\n      dup5\n        /* \"#utility.yul\":21900:21904   */\n      dup5\n        /* \"#utility.yul\":21894:21905   */\n      sload\n        /* \"#utility.yul\":21866:21957   */\n      tag_224\n      jump\t// in\n    tag_465:\n        /* \"#utility.yul\":21860:21864   */\n      dup3\n        /* \"#utility.yul\":21853:21958   */\n      sstore\n        /* \"#utility.yul\":21771:21964   */\n      pop\n        /* \"#utility.yul\":21695:21964   */\n      pop\n      pop\n      pop\n      jump\t// out\n        /* \"#utility.yul\":21970:22043   */\n    tag_228:\n        /* \"#utility.yul\":22015:22018   */\n      0x00\n        /* \"#utility.yul\":22036:22037   */\n      0x00\n        /* \"#utility.yul\":22029:22037   */\n      swap1\n      pop\n        /* \"#utility.yul\":21970:22043   */\n      swap1\n      jump\t// out\n        /* \"#utility.yul\":22049:22238   */\n    tag_229:\n        /* \"#utility.yul\":22126:22158   */\n      tag_469\n      tag_228\n      jump\t// in\n    tag_469:\n        /* \"#utility.yul\":22167:22232   */\n      tag_470\n        /* \"#utility.yul\":22225:22231   */\n      dup2\n        /* \"#utility.yul\":22217:22223   */\n      dup5\n        /* \"#utility.yul\":22211:22215   */\n      dup5\n        /* \"#utility.yul\":22167:22232   */\n      tag_227\n      jump\t// in\n    tag_470:\n        /* \"#utility.yul\":22102:22238   */\n      pop\n        /* \"#utility.yul\":22049:22238   */\n      pop\n      pop\n      jump\t// out\n        /* \"#utility.yul\":22244:22430   */\n    tag_230:\n        /* \"#utility.yul\":22304:22424   */\n    tag_472:\n        /* \"#utility.yul\":22321:22324   */\n      dup2\n        /* \"#utility.yul\":22314:22319   */\n      dup2\n        /* \"#utility.yul\":22311:22325   */\n      lt\n        /* \"#utility.yul\":22304:22424   */\n      iszero\n      tag_474\n      jumpi\n        /* \"#utility.yul\":22375:22414   */\n      tag_475\n        /* \"#utility.yul\":22412:22413   */\n      0x00\n        /* \"#utility.yul\":22405:22410   */\n      dup3\n        /* \"#utility.yul\":22375:22414   */\n      tag_229\n      jump\t// in\n    tag_475:\n        /* \"#utility.yul\":22348:22349   */\n      0x01\n        /* \"#utility.yul\":22341:22346   */\n      dup2\n        /* \"#utility.yul\":22337:22350   */\n      add\n        /* \"#utility.yul\":22328:22350   */\n      swap1\n      pop\n        /* \"#utility.yul\":22304:22424   */\n      jump(tag_472)\n    tag_474:\n        /* \"#utility.yul\":22244:22430   */\n      pop\n      pop\n      jump\t// out\n        /* \"#utility.yul\":22436:22979   */\n    tag_231:\n        /* \"#utility.yul\":22537:22539   */\n      0x1f\n        /* \"#utility.yul\":22532:22535   */\n      dup3\n        /* \"#utility.yul\":22529:22540   */\n      gt\n        /* \"#utility.yul\":22526:22972   */\n      iszero\n      tag_477\n      jumpi\n        /* \"#utility.yul\":22571:22609   */\n      tag_478\n        /* \"#utility.yul\":22603:22608   */\n      dup2\n        /* \"#utility.yul\":22571:22609   */\n      tag_221\n      jump\t// in\n    tag_478:\n        /* \"#utility.yul\":22655:22684   */\n      tag_479\n        /* \"#utility.yul\":22673:22683   */\n      dup5\n        /* \"#utility.yul\":22655:22684   */\n      tag_222\n      jump\t// in\n    tag_479:\n        /* \"#utility.yul\":22645:22653   */\n      dup2\n        /* \"#utility.yul\":22641:22685   */\n      add\n        /* \"#utility.yul\":22838:22840   */\n      0x20\n        /* \"#utility.yul\":22826:22836   */\n      dup6\n        /* \"#utility.yul\":22823:22841   */\n      lt\n        /* \"#utility.yul\":22820:22869   */\n      iszero\n      tag_480\n      jumpi\n        /* \"#utility.yul\":22859:22867   */\n      dup2\n        /* \"#utility.yul\":22844:22867   */\n      swap1\n      pop\n        /* \"#utility.yul\":22820:22869   */\n    tag_480:\n        /* \"#utility.yul\":22882:22962   */\n      tag_481\n        /* \"#utility.yul\":22938:22960   */\n      tag_482\n        /* \"#utility.yul\":22956:22959   */\n      dup6\n        /* \"#utility.yul\":22938:22960   */\n      tag_222\n      jump\t// in\n    tag_482:\n        /* \"#utility.yul\":22928:22936   */\n      dup4\n        /* \"#utility.yul\":22924:22961   */\n      add\n        /* \"#utility.yul\":22911:22922   */\n      dup3\n        /* \"#utility.yul\":22882:22962   */\n      tag_230\n      jump\t// in\n    tag_481:\n        /* \"#utility.yul\":22541:22972   */\n      pop\n      pop\n        /* \"#utility.yul\":22526:22972   */\n    tag_477:\n        /* \"#utility.yul\":22436:22979   */\n      pop\n      pop\n      pop\n      jump\t// out\n        /* \"#utility.yul\":22985:23102   */\n    tag_232:\n        /* \"#utility.yul\":23039:23047   */\n      0x00\n        /* \"#utility.yul\":23089:23094   */\n      dup3\n        /* \"#utility.yul\":23083:23087   */\n      dup3\n        /* \"#utility.yul\":23079:23095   */\n      shr\n        /* \"#utility.yul\":23058:23095   */\n      swap1\n      pop\n        /* \"#utility.yul\":22985:23102   */\n      swap3\n      swap2\n      pop\n      pop\n      jump\t// out\n        /* \"#utility.yul\":23108:23277   */\n    tag_233:\n        /* \"#utility.yul\":23152:23158   */\n      0x00\n        /* \"#utility.yul\":23185:23236   */\n      tag_485\n        /* \"#utility.yul\":23233:23234   */\n      0x00\n        /* \"#utility.yul\":23229:23235   */\n      not\n        /* \"#utility.yul\":23221:23226   */\n      dup5\n        /* \"#utility.yul\":23218:23219   */\n      0x08\n        /* \"#utility.yul\":23214:23227   */\n      mul\n        /* \"#utility.yul\":23185:23236   */\n      tag_232\n      jump\t// in\n    tag_485:\n        /* \"#utility.yul\":23181:23237   */\n      not\n        /* \"#utility.yul\":23266:23270   */\n      dup1\n        /* \"#utility.yul\":23260:23264   */\n      dup4\n        /* \"#utility.yul\":23256:23271   */\n      and\n        /* \"#utility.yul\":23246:23271   */\n      swap2\n      pop\n        /* \"#utility.yul\":23159:23277   */\n      pop\n        /* \"#utility.yul\":23108:23277   */\n      swap3\n      swap2\n      pop\n      pop\n      jump\t// out\n        /* \"#utility.yul\":23282:23577   */\n    tag_234:\n        /* \"#utility.yul\":23358:23362   */\n      0x00\n        /* \"#utility.yul\":23504:23533   */\n      tag_487\n        /* \"#utility.yul\":23529:23532   */\n      dup4\n        /* \"#utility.yul\":23523:23527   */\n      dup4\n        /* \"#utility.yul\":23504:23533   */\n      tag_233\n      jump\t// in\n    tag_487:\n        /* \"#utility.yul\":23496:23533   */\n      swap2\n      pop\n        /* \"#utility.yul\":23566:23569   */\n      dup3\n        /* \"#utility.yul\":23563:23564   */\n      0x02\n        /* \"#utility.yul\":23559:23570   */\n      mul\n        /* \"#utility.yul\":23553:23557   */\n      dup3\n        /* \"#utility.yul\":23550:23571   */\n      or\n        /* \"#utility.yul\":23542:23571   */\n      swap1\n      pop\n        /* \"#utility.yul\":23282:23577   */\n      swap3\n      swap2\n      pop\n      pop\n      jump\t// out\n        /* \"#utility.yul\":23582:24977   */\n    tag_162:\n        /* \"#utility.yul\":23699:23736   */\n      tag_489\n        /* \"#utility.yul\":23732:23735   */\n      dup3\n        /* \"#utility.yul\":23699:23736   */\n      tag_172\n      jump\t// in\n    tag_489:\n        /* \"#utility.yul\":23801:23819   */\n      0xffffffffffffffff\n        /* \"#utility.yul\":23793:23799   */\n      dup2\n        /* \"#utility.yul\":23790:23820   */\n      gt\n        /* \"#utility.yul\":23787:23843   */\n      iszero\n      tag_490\n      jumpi\n        /* \"#utility.yul\":23823:23841   */\n      tag_491\n      tag_179\n      jump\t// in\n    tag_491:\n        /* \"#utility.yul\":23787:23843   */\n    tag_490:\n        /* \"#utility.yul\":23867:23905   */\n      tag_492\n        /* \"#utility.yul\":23899:23903   */\n      dup3\n        /* \"#utility.yul\":23893:23904   */\n      sload\n        /* \"#utility.yul\":23867:23905   */\n      tag_120\n      jump\t// in\n    tag_492:\n        /* \"#utility.yul\":23952:24019   */\n      tag_493\n        /* \"#utility.yul\":24012:24018   */\n      dup3\n        /* \"#utility.yul\":24004:24010   */\n      dup3\n        /* \"#utility.yul\":23998:24002   */\n      dup6\n        /* \"#utility.yul\":23952:24019   */\n      tag_231\n      jump\t// in\n    tag_493:\n        /* \"#utility.yul\":24046:24047   */\n      0x00\n        /* \"#utility.yul\":24070:24074   */\n      0x20\n        /* \"#utility.yul\":24057:24074   */\n      swap1\n      pop\n        /* \"#utility.yul\":24102:24104   */\n      0x1f\n        /* \"#utility.yul\":24094:24100   */\n      dup4\n        /* \"#utility.yul\":24091:24105   */\n      gt\n        /* \"#utility.yul\":24119:24120   */\n      0x01\n        /* \"#utility.yul\":24114:24732   */\n      dup2\n      eq\n      tag_495\n      jumpi\n        /* \"#utility.yul\":24776:24777   */\n      0x00\n        /* \"#utility.yul\":24793:24799   */\n      dup5\n        /* \"#utility.yul\":24790:24867   */\n      iszero\n      tag_496\n      jumpi\n        /* \"#utility.yul\":24842:24851   */\n      dup3\n        /* \"#utility.yul\":24837:24840   */\n      dup8\n        /* \"#utility.yul\":24833:24852   */\n      add\n        /* \"#utility.yul\":24827:24853   */\n      mload\n        /* \"#utility.yul\":24818:24853   */\n      swap1\n      pop\n        /* \"#utility.yul\":24790:24867   */\n    tag_496:\n        /* \"#utility.yul\":24893:24960   */\n      tag_497\n        /* \"#utility.yul\":24953:24959   */\n      dup6\n        /* \"#utility.yul\":24946:24951   */\n      dup3\n        /* \"#utility.yul\":24893:24960   */\n      tag_234\n      jump\t// in\n    tag_497:\n        /* \"#utility.yul\":24887:24891   */\n      dup7\n        /* \"#utility.yul\":24880:24961   */\n      sstore\n        /* \"#utility.yul\":24749:24971   */\n      pop\n        /* \"#utility.yul\":24084:24971   */\n      jump(tag_494)\n        /* \"#utility.yul\":24114:24732   */\n    tag_495:\n        /* \"#utility.yul\":24166:24170   */\n      0x1f\n        /* \"#utility.yul\":24162:24171   */\n      not\n        /* \"#utility.yul\":24154:24160   */\n      dup5\n        /* \"#utility.yul\":24150:24172   */\n      and\n        /* \"#utility.yul\":24200:24237   */\n      tag_498\n        /* \"#utility.yul\":24232:24236   */\n      dup7\n        /* \"#utility.yul\":24200:24237   */\n      tag_221\n      jump\t// in\n    tag_498:\n        /* \"#utility.yul\":24259:24260   */\n      0x00\n        /* \"#utility.yul\":24273:24481   */\n    tag_499:\n        /* \"#utility.yul\":24287:24294   */\n      dup3\n        /* \"#utility.yul\":24284:24285   */\n      dup2\n        /* \"#utility.yul\":24281:24295   */\n      lt\n        /* \"#utility.yul\":24273:24481   */\n      iszero\n      tag_501\n      jumpi\n        /* \"#utility.yul\":24366:24375   */\n      dup5\n        /* \"#utility.yul\":24361:24364   */\n      dup10\n        /* \"#utility.yul\":24357:24376   */\n      add\n        /* \"#utility.yul\":24351:24377   */\n      mload\n        /* \"#utility.yul\":24343:24349   */\n      dup3\n        /* \"#utility.yul\":24336:24378   */\n      sstore\n        /* \"#utility.yul\":24417:24418   */\n      0x01\n        /* \"#utility.yul\":24409:24415   */\n      dup3\n        /* \"#utility.yul\":24405:24419   */\n      add\n        /* \"#utility.yul\":24395:24419   */\n      swap2\n      pop\n        /* \"#utility.yul\":24464:24466   */\n      0x20\n        /* \"#utility.yul\":24453:24462   */\n      dup6\n        /* \"#utility.yul\":24449:24467   */\n      add\n        /* \"#utility.yul\":24436:24467   */\n      swap5\n      pop\n        /* \"#utility.yul\":24310:24314   */\n      0x20\n        /* \"#utility.yul\":24307:24308   */\n      dup2\n        /* \"#utility.yul\":24303:24315   */\n      add\n        /* \"#utility.yul\":24298:24315   */\n      swap1\n      pop\n        /* \"#utility.yul\":24273:24481   */\n      jump(tag_499)\n    tag_501:\n        /* \"#utility.yul\":24509:24515   */\n      dup7\n        /* \"#utility.yul\":24500:24507   */\n      dup4\n        /* \"#utility.yul\":24497:24516   */\n      lt\n        /* \"#utility.yul\":24494:24673   */\n      iszero\n      tag_502\n      jumpi\n        /* \"#utility.yul\":24567:24576   */\n      dup5\n        /* \"#utility.yul\":24562:24565   */\n      dup10\n        /* \"#utility.yul\":24558:24577   */\n      add\n        /* \"#utility.yul\":24552:24578   */\n      mload\n        /* \"#utility.yul\":24610:24658   */\n      tag_503\n        /* \"#utility.yul\":24652:24656   */\n      0x1f\n        /* \"#utility.yul\":24644:24650   */\n      dup10\n        /* \"#utility.yul\":24640:24657   */\n      and\n        /* \"#utility.yul\":24629:24638   */\n      dup3\n        /* \"#utility.yul\":24610:24658   */\n      tag_233\n      jump\t// in\n    tag_503:\n        /* \"#utility.yul\":24602:24608   */\n      dup4\n        /* \"#utility.yul\":24595:24659   */\n      sstore\n        /* \"#utility.yul\":24517:24673   */\n      pop\n        /* \"#utility.yul\":24494:24673   */\n    tag_502:\n        /* \"#utility.yul\":24719:24720   */\n      0x01\n        /* \"#utility.yul\":24715:24716   */\n      0x02\n        /* \"#utility.yul\":24707:24713   */\n      dup9\n        /* \"#utility.yul\":24703:24717   */\n      mul\n        /* \"#utility.yul\":24699:24721   */\n      add\n        /* \"#utility.yul\":24693:24697   */\n      dup9\n        /* \"#utility.yul\":24686:24722   */\n      sstore\n        /* \"#utility.yul\":24121:24732   */\n      pop\n      pop\n      pop\n        /* \"#utility.yul\":24084:24971   */\n    tag_494:\n      pop\n        /* \"#utility.yul\":23674:24977   */\n      pop\n      pop\n      pop\n        /* \"#utility.yul\":23582:24977   */\n      pop\n      pop\n      jump\t// out\n\n    auxdata: 0xa26469706673582212208881e119e4ce12748622e6ccc255ca82c19e64587ac06cbb2aa615464bd3eeb764736f6c634300081e0033\n}\n",
				"bytecode": {
					"linkReferences": {},
					"object": "608060405234801561000f575f5ffd5b506040516121ce3803806121ce83398181016040528101906100319190610315565b805f73ffffffffffffffffffffffffffffffffffffffff168173ffffffffffffffffffffffffffffffffffffffff16036100a2575f6040517f1e4fbdf70000000000000000000000000000000000000000000000000000000081526004016100999190610362565b60405180910390fd5b6100b18161018160201b60201c565b508160015f6101000a81548173ffffffffffffffffffffffffffffffffffffffff021916908373ffffffffffffffffffffffffffffffffffffffff1602179055506101366040518060400160405280600b81526020017f43616e646964617465203100000000000000000000000000000000000000000081525061024260201b60201c565b61017a6040518060400160405280600b81526020017f43616e646964617465203200000000000000000000000000000000000000000081525061024260201b60201c565b50506106fb565b5f5f5f9054906101000a900473ffffffffffffffffffffffffffffffffffffffff169050815f5f6101000a81548173ffffffffffffffffffffffffffffffffffffffff021916908373ffffffffffffffffffffffffffffffffffffffff1602179055508173ffffffffffffffffffffffffffffffffffffffff168173ffffffffffffffffffffffffffffffffffffffff167f8be0079c531659141344cd1fd0a4f28419497f9722a3daafe3b4186f6b6457e060405160405180910390a35050565b60045f815480929190610254906103b1565b9190505550604051806060016040528060045481526020018281526020015f81525060025f60045481526020019081526020015f205f820151815f015560208201518160010190816102a6919061062c565b506040820151816002015590505050565b5f5ffd5b5f73ffffffffffffffffffffffffffffffffffffffff82169050919050565b5f6102e4826102bb565b9050919050565b6102f4816102da565b81146102fe575f5ffd5b50565b5f8151905061030f816102eb565b92915050565b5f5f6040838503121561032b5761032a6102b7565b5b5f61033885828601610301565b925050602061034985828601610301565b9150509250929050565b61035c816102da565b82525050565b5f6020820190506103755f830184610353565b92915050565b7f4e487b71000000000000000000000000000000000000000000000000000000005f52601160045260245ffd5b5f819050919050565b5f6103bb826103a8565b91507fffffffffffffffffffffffffffffffffffffffffffffffffffffffffffffffff82036103ed576103ec61037b565b5b600182019050919050565b5f81519050919050565b7f4e487b71000000000000000000000000000000000000000000000000000000005f52604160045260245ffd5b7f4e487b71000000000000000000000000000000000000000000000000000000005f52602260045260245ffd5b5f600282049050600182168061047357607f821691505b6020821081036104865761048561042f565b5b50919050565b5f819050815f5260205f209050919050565b5f6020601f8301049050919050565b5f82821b905092915050565b5f600883026104e87fffffffffffffffffffffffffffffffffffffffffffffffffffffffffffffffff826104ad565b6104f286836104ad565b95508019841693508086168417925050509392505050565b5f819050919050565b5f61052d610528610523846103a8565b61050a565b6103a8565b9050919050565b5f819050919050565b61054683610513565b61055a61055282610534565b8484546104b9565b825550505050565b5f5f905090565b610571610562565b61057c81848461053d565b505050565b5b8181101561059f576105945f82610569565b600181019050610582565b5050565b601f8211156105e4576105b58161048c565b6105be8461049e565b810160208510156105cd578190505b6105e16105d98561049e565b830182610581565b50505b505050565b5f82821c905092915050565b5f6106045f19846008026105e9565b1980831691505092915050565b5f61061c83836105f5565b9150826002028217905092915050565b610635826103f8565b67ffffffffffffffff81111561064e5761064d610402565b5b610658825461045c565b6106638282856105a3565b5f60209050601f831160018114610694575f8415610682578287015190505b61068c8582610611565b8655506106f3565b601f1984166106a28661048c565b5f5b828110156106c9578489015182556001820191506020850194506020810190506106a4565b868310156106e657848901516106e2601f8916826105f5565b8355505b6001600288020188555050505b505050505050565b611ac6806107085f395ff3fe608060405234801561000f575f5ffd5b50600436106100a7575f3560e01c8063462e91ec1161006f578063462e91ec14610165578063715018a6146101815780638da5cb5b1461018b578063a3ec138d146101a9578063b0340123146101d9578063f2fde38b146101f7576100a7565b80630121b93f146100ab5780632d35a8a2146100c7578063315a095d146100e55780633477ee2e1461010157806335b8e82014610133575b5f5ffd5b6100c560048036038101906100c09190610dbe565b610213565b005b6100cf6106f8565b6040516100dc9190610df8565b60405180910390f35b6100ff60048036038101906100fa9190610dbe565b6106fe565b005b61011b60048036038101906101169190610dbe565b6108c4565b60405161012a93929190610e81565b60405180910390f35b61014d60048036038101906101489190610dbe565b610970565b60405161015c93929190610e81565b60405180910390f35b61017f600480360381019061017a9190610fe9565b610aa2565b005b610189610ab6565b005b610193610ac9565b6040516101a0919061106f565b60405180910390f35b6101c360048036038101906101be91906110b2565b610af0565b6040516101d091906110f7565b60405180910390f35b6101e1610b0d565b6040516101ee919061116b565b60405180910390f35b610211600480360381019061020c91906110b2565b610b32565b005b60035f3373ffffffffffffffffffffffffffffffffffffffff1673ffffffffffffffffffffffffffffffffffffffff1681526020019081526020015f205f9054906101000a900460ff161561029d576040517f08c379a0000000000000000000000000000000000000000000000000000000008152600401610294906111ce565b60405180910390fd5b5f811180156102ae57506004548111155b6102ed576040517f08c379a00000000000000000000000000000000000000000000000000000000081526004016102e490611236565b60405180910390fd5b5f60015f9054906101000a900473ffffffffffffffffffffffffffffffffffffffff1673ffffffffffffffffffffffffffffffffffffffff1663313ce5676040518163ffffffff1660e01b8152600401602060405180830381865afa158015610358573d5f5f3e3d5ffd5b505050506040513d601f19601f8201168201806040525081019061037c919061128a565b600a6103889190611411565b6001610394919061145b565b90508060015f9054906101000a900473ffffffffffffffffffffffffffffffffffffffff1673ffffffffffffffffffffffffffffffffffffffff166370a08231336040518263ffffffff1660e01b81526004016103f1919061106f565b602060405180830381865afa15801561040c573d5f5f3e3d5ffd5b505050506040513d601f19601f8201168201806040525081019061043091906114b0565b1015610471576040517f08c379a000000000000000000000000000000000000000000000000000000000815260040161046890611525565b60405180910390fd5b8060015f9054906101000a900473ffffffffffffffffffffffffffffffffffffffff1673ffffffffffffffffffffffffffffffffffffffff1663dd62ed3e33306040518363ffffffff1660e01b81526004016104ce929190611543565b602060405180830381865afa1580156104e9573d5f5f3e3d5ffd5b505050506040513d601f19601f8201168201806040525081019061050d91906114b0565b101561054e576040517f08c379a0000000000000000000000000000000000000000000000000000000008152600401610545906115b4565b60405180910390fd5b5f60015f9054906101000a900473ffffffffffffffffffffffffffffffffffffffff1673ffffffffffffffffffffffffffffffffffffffff166323b872dd3330856040518463ffffffff1660e01b81526004016105ad939291906115d2565b6020604051808303815f875af11580156105c9573d5f5f3e3d5ffd5b505050506040513d601f19601f820116820180604052508101906105ed9190611631565b90508061062f576040517f08c379a0000000000000000000000000000000000000000000000000000000008152600401610626906116a6565b60405180910390fd5b600160035f3373ffffffffffffffffffffffffffffffffffffffff1673ffffffffffffffffffffffffffffffffffffffff1681526020019081526020015f205f6101000a81548160ff021916908315150217905550600160025f8581526020019081526020015f206002015f8282546106a891906116c4565b925050819055503373ffffffffffffffffffffffffffffffffffffffff16837f030b0f8dcd86a031eddb071f91882edeac8173663ba775713b677b42b51be44b60405160405180910390a3505050565b60045481565b610706610bb6565b8060015f9054906101000a900473ffffffffffffffffffffffffffffffffffffffff1673ffffffffffffffffffffffffffffffffffffffff166370a08231306040518263ffffffff1660e01b8152600401610761919061106f565b602060405180830381865afa15801561077c573d5f5f3e3d5ffd5b505050506040513d601f19601f820116820180604052508101906107a091906114b0565b10156107e1576040517f08c379a00000000000000000000000000000000000000000000000000000000081526004016107d890611741565b60405180910390fd5b5f60015f9054906101000a900473ffffffffffffffffffffffffffffffffffffffff1673ffffffffffffffffffffffffffffffffffffffff1663a9059cbb33846040518363ffffffff1660e01b815260040161083e92919061175f565b6020604051808303815f875af115801561085a573d5f5f3e3d5ffd5b505050506040513d601f19601f8201168201806040525081019061087e9190611631565b9050806108c0576040517f08c379a00000000000000000000000000000000000000000000000000000000081526004016108b7906116a6565b60405180910390fd5b5050565b6002602052805f5260405f205f91509050805f0154908060010180546108e9906117b3565b80601f0160208091040260200160405190810160405280929190818152602001828054610915906117b3565b80156109605780601f1061093757610100808354040283529160200191610960565b820191905f5260205f20905b81548152906001019060200180831161094357829003601f168201915b5050505050908060020154905083565b5f60605f5f8411801561098557506004548411155b6109c4576040517f08c379a00000000000000000000000000000000000000000000000000000000081526004016109bb90611236565b60405180910390fd5b5f60025f8681526020019081526020015f206040518060600160405290815f82015481526020016001820180546109fa906117b3565b80601f0160208091040260200160405190810160405280929190818152602001828054610a26906117b3565b8015610a715780601f10610a4857610100808354040283529160200191610a71565b820191905f5260205f20905b815481529060010190602001808311610a5457829003601f168201915b505050505081526020016002820154815250509050805f015181602001518260400151935093509350509193909250565b610aaa610bb6565b610ab381610c3d565b50565b610abe610bb6565b610ac75f610cb2565b565b5f5f5f9054906101000a900473ffffffffffffffffffffffffffffffffffffffff16905090565b6003602052805f5260405f205f915054906101000a900460ff1681565b60015f9054906101000a900473ffffffffffffffffffffffffffffffffffffffff1681565b610b3a610bb6565b5f73ffffffffffffffffffffffffffffffffffffffff168173ffffffffffffffffffffffffffffffffffffffff1603610baa575f6040517f1e4fbdf7000000000000000000000000000000000000000000000000000000008152600401610ba1919061106f565b60405180910390fd5b610bb381610cb2565b50565b610bbe610d73565b73ffffffffffffffffffffffffffffffffffffffff16610bdc610ac9565b73ffffffffffffffffffffffffffffffffffffffff1614610c3b57610bff610d73565b6040517f118cdaa7000000000000000000000000000000000000000000000000000000008152600401610c32919061106f565b60405180910390fd5b565b60045f815480929190610c4f906117e3565b9190505550604051806060016040528060045481526020018281526020015f81525060025f60045481526020019081526020015f205f820151815f01556020820151816001019081610ca191906119c1565b506040820151816002015590505050565b5f5f5f9054906101000a900473ffffffffffffffffffffffffffffffffffffffff169050815f5f6101000a81548173ffffffffffffffffffffffffffffffffffffffff021916908373ffffffffffffffffffffffffffffffffffffffff1602179055508173ffffffffffffffffffffffffffffffffffffffff168173ffffffffffffffffffffffffffffffffffffffff167f8be0079c531659141344cd1fd0a4f28419497f9722a3daafe3b4186f6b6457e060405160405180910390a35050565b5f33905090565b5f604051905090565b5f5ffd5b5f5ffd5b5f819050919050565b610d9d81610d8b565b8114610da7575f5ffd5b50565b5f81359050610db881610d94565b92915050565b5f60208284031215610dd357610dd2610d83565b5b5f610de084828501610daa565b91505092915050565b610df281610d8b565b82525050565b5f602082019050610e0b5f830184610de9565b92915050565b5f81519050919050565b5f82825260208201905092915050565b8281835e5f83830152505050565b5f601f19601f8301169050919050565b5f610e5382610e11565b610e5d8185610e1b565b9350610e6d818560208601610e2b565b610e7681610e39565b840191505092915050565b5f606082019050610e945f830186610de9565b8181036020830152610ea68185610e49565b9050610eb56040830184610de9565b949350505050565b5f5ffd5b5f5ffd5b7f4e487b71000000000000000000000000000000000000000000000000000000005f52604160045260245ffd5b610efb82610e39565b810181811067ffffffffffffffff82111715610f1a57610f19610ec5565b5b80604052505050565b5f610f2c610d7a565b9050610f388282610ef2565b919050565b5f67ffffffffffffffff821115610f5757610f56610ec5565b5b610f6082610e39565b9050602081019050919050565b828183375f83830152505050565b5f610f8d610f8884610f3d565b610f23565b905082815260208101848484011115610fa957610fa8610ec1565b5b610fb4848285610f6d565b509392505050565b5f82601f830112610fd057610fcf610ebd565b5b8135610fe0848260208601610f7b565b91505092915050565b5f60208284031215610ffe57610ffd610d83565b5b5f82013567ffffffffffffffff81111561101b5761101a610d87565b5b61102784828501610fbc565b91505092915050565b5f73ffffffffffffffffffffffffffffffffffffffff82169050919050565b5f61105982611030565b9050919050565b6110698161104f565b82525050565b5f6020820190506110825f830184611060565b92915050565b6110918161104f565b811461109b575f5ffd5b50565b5f813590506110ac81611088565b92915050565b5f602082840312156110c7576110c6610d83565b5b5f6110d48482850161109e565b91505092915050565b5f8115159050919050565b6110f1816110dd565b82525050565b5f60208201905061110a5f8301846110e8565b92915050565b5f819050919050565b5f61113361112e61112984611030565b611110565b611030565b9050919050565b5f61114482611119565b9050919050565b5f6111558261113a565b9050919050565b6111658161114b565b82525050565b5f60208201905061117e5f83018461115c565b92915050565b7f596f75206861766520616c726561647920766f746564000000000000000000005f82015250565b5f6111b8601683610e1b565b91506111c382611184565b602082019050919050565b5f6020820190508181035f8301526111e5816111ac565b9050919050565b7f496e76616c69642063616e6469646174650000000000000000000000000000005f82015250565b5f611220601183610e1b565b915061122b826111ec565b602082019050919050565b5f6020820190508181035f83015261124d81611214565b9050919050565b5f60ff82169050919050565b61126981611254565b8114611273575f5ffd5b50565b5f8151905061128481611260565b92915050565b5f6020828403121561129f5761129e610d83565b5b5f6112ac84828501611276565b91505092915050565b7f4e487b71000000000000000000000000000000000000000000000000000000005f52601160045260245ffd5b5f8160011c9050919050565b5f5f8291508390505b600185111561133757808604811115611313576113126112b5565b5b60018516156113225780820291505b8081029050611330856112e2565b94506112f7565b94509492505050565b5f8261134f576001905061140a565b8161135c575f905061140a565b8160018114611372576002811461137c576113ab565b600191505061140a565b60ff84111561138e5761138d6112b5565b5b8360020a9150848211156113a5576113a46112b5565b5b5061140a565b5060208310610133831016604e8410600b84101617156113e05782820a9050838111156113db576113da6112b5565b5b61140a565b6113ed84848460016112ee565b92509050818404811115611404576114036112b5565b5b81810290505b9392505050565b5f61141b82610d8b565b915061142683611254565b92506114537fffffffffffffffffffffffffffffffffffffffffffffffffffffffffffffffff8484611340565b905092915050565b5f61146582610d8b565b915061147083610d8b565b925082820261147e81610d8b565b91508282048414831517611495576114946112b5565b5b5092915050565b5f815190506114aa81610d94565b92915050565b5f602082840312156114c5576114c4610d83565b5b5f6114d28482850161149c565b91505092915050565b7f4e6f7420656e6f75676820746f6b656e7320746f20766f7465000000000000005f82015250565b5f61150f601983610e1b565b915061151a826114db565b602082019050919050565b5f6020820190508181035f83015261153c81611503565b9050919050565b5f6040820190506115565f830185611060565b6115636020830184611060565b9392505050565b7f417070726f766520746f6b656e732066697273740000000000000000000000005f82015250565b5f61159e601483610e1b565b91506115a98261156a565b602082019050919050565b5f6020820190508181035f8301526115cb81611592565b9050919050565b5f6060820190506115e55f830186611060565b6115f26020830185611060565b6115ff6040830184610de9565b949350505050565b611610816110dd565b811461161a575f5ffd5b50565b5f8151905061162b81611607565b92915050565b5f6020828403121561164657611645610d83565b5b5f6116538482850161161d565b91505092915050565b7f5472616e73666572206661696c656400000000000000000000000000000000005f82015250565b5f611690600f83610e1b565b915061169b8261165c565b602082019050919050565b5f6020820190508181035f8301526116bd81611684565b9050919050565b5f6116ce82610d8b565b91506116d983610d8b565b92508282019050808211156116f1576116f06112b5565b5b92915050565b7f4e6f7420656e6f75676820746f6b656e7320696e20636f6e74726163740000005f82015250565b5f61172b601d83610e1b565b9150611736826116f7565b602082019050919050565b5f6020820190508181035f8301526117588161171f565b9050919050565b5f6040820190506117725f830185611060565b61177f6020830184610de9565b9392505050565b7f4e487b71000000000000000000000000000000000000000000000000000000005f52602260045260245ffd5b5f60028204905060018216806117ca57607f821691505b6020821081036117dd576117dc611786565b5b50919050565b5f6117ed82610d8b565b91507fffffffffffffffffffffffffffffffffffffffffffffffffffffffffffffffff820361181f5761181e6112b5565b5b600182019050919050565b5f819050815f5260205f209050919050565b5f6020601f8301049050919050565b5f82821b905092915050565b5f600883026118867fffffffffffffffffffffffffffffffffffffffffffffffffffffffffffffffff8261184b565b611890868361184b565b95508019841693508086168417925050509392505050565b5f6118c26118bd6118b884610d8b565b611110565b610d8b565b9050919050565b5f819050919050565b6118db836118a8565b6118ef6118e7826118c9565b848454611857565b825550505050565b5f5f905090565b6119066118f7565b6119118184846118d2565b505050565b5b81811015611934576119295f826118fe565b600181019050611917565b5050565b601f8211156119795761194a8161182a565b6119538461183c565b81016020851015611962578190505b61197661196e8561183c565b830182611916565b50505b505050565b5f82821c905092915050565b5f6119995f198460080261197e565b1980831691505092915050565b5f6119b1838361198a565b9150826002028217905092915050565b6119ca82610e11565b67ffffffffffffffff8111156119e3576119e2610ec5565b5b6119ed82546117b3565b6119f8828285611938565b5f60209050601f831160018114611a29575f8415611a17578287015190505b611a2185826119a6565b865550611a88565b601f198416611a378661182a565b5f5b82811015611a5e57848901518255600182019150602085019450602081019050611a39565b86831015611a7b5784890151611a77601f89168261198a565b8355505b6001600288020188555050505b50505050505056fea26469706673582212208881e119e4ce12748622e6ccc255ca82c19e64587ac06cbb2aa615464bd3eeb764736f6c634300081e0033",
					"opcodes": "PUSH1 0x80 PUSH1 0x40 MSTORE CALLVALUE DUP1 ISZERO PUSH2 0xF JUMPI PUSH0 PUSH0 REVERT JUMPDEST POP PUSH1 0x40 MLOAD PUSH2 0x21CE CODESIZE SUB DUP1 PUSH2 0x21CE DUP4 CODECOPY DUP2 DUP2 ADD PUSH1 0x40 MSTORE DUP2 ADD SWAP1 PUSH2 0x31 SWAP2 SWAP1 PUSH2 0x315 JUMP JUMPDEST DUP1 PUSH0 PUSH20 0xFFFFFFFFFFFFFFFFFFFFFFFFFFFFFFFFFFFFFFFF AND DUP2 PUSH20 0xFFFFFFFFFFFFFFFFFFFFFFFFFFFFFFFFFFFFFFFF AND SUB PUSH2 0xA2 JUMPI PUSH0 PUSH1 0x40 MLOAD PUSH32 0x1E4FBDF700000000000000000000000000000000000000000000000000000000 DUP2 MSTORE PUSH1 0x4 ADD PUSH2 0x99 SWAP2 SWAP1 PUSH2 0x362 JUMP JUMPDEST PUSH1 0x40 MLOAD DUP1 SWAP2 SUB SWAP1 REVERT JUMPDEST PUSH2 0xB1 DUP2 PUSH2 0x181 PUSH1 0x20 SHL PUSH1 0x20 SHR JUMP JUMPDEST POP DUP2 PUSH1 0x1 PUSH0 PUSH2 0x100 EXP DUP2 SLOAD DUP2 PUSH20 0xFFFFFFFFFFFFFFFFFFFFFFFFFFFFFFFFFFFFFFFF MUL NOT AND SWAP1 DUP4 PUSH20 0xFFFFFFFFFFFFFFFFFFFFFFFFFFFFFFFFFFFFFFFF AND MUL OR SWAP1 SSTORE POP PUSH2 0x136 PUSH1 0x40 MLOAD DUP1 PUSH1 0x40 ADD PUSH1 0x40 MSTORE DUP1 PUSH1 0xB DUP2 MSTORE PUSH1 0x20 ADD PUSH32 0x43616E6469646174652031000000000000000000000000000000000000000000 DUP2 MSTORE POP PUSH2 0x242 PUSH1 0x20 SHL PUSH1 0x20 SHR JUMP JUMPDEST PUSH2 0x17A PUSH1 0x40 MLOAD DUP1 PUSH1 0x40 ADD PUSH1 0x40 MSTORE DUP1 PUSH1 0xB DUP2 MSTORE PUSH1 0x20 ADD PUSH32 0x43616E6469646174652032000000000000000000000000000000000000000000 DUP2 MSTORE POP PUSH2 0x242 PUSH1 0x20 SHL PUSH1 0x20 SHR JUMP JUMPDEST POP POP PUSH2 0x6FB JUMP JUMPDEST PUSH0 PUSH0 PUSH0 SWAP1 SLOAD SWAP1 PUSH2 0x100 EXP SWAP1 DIV PUSH20 0xFFFFFFFFFFFFFFFFFFFFFFFFFFFFFFFFFFFFFFFF AND SWAP1 POP DUP2 PUSH0 PUSH0 PUSH2 0x100 EXP DUP2 SLOAD DUP2 PUSH20 0xFFFFFFFFFFFFFFFFFFFFFFFFFFFFFFFFFFFFFFFF MUL NOT AND SWAP1 DUP4 PUSH20 0xFFFFFFFFFFFFFFFFFFFFFFFFFFFFFFFFFFFFFFFF AND MUL OR SWAP1 SSTORE POP DUP2 PUSH20 0xFFFFFFFFFFFFFFFFFFFFFFFFFFFFFFFFFFFFFFFF AND DUP2 PUSH20 0xFFFFFFFFFFFFFFFFFFFFFFFFFFFFFFFFFFFFFFFF AND PUSH32 0x8BE0079C531659141344CD1FD0A4F28419497F9722A3DAAFE3B4186F6B6457E0 PUSH1 0x40 MLOAD PUSH1 0x40 MLOAD DUP1 SWAP2 SUB SWAP1 LOG3 POP POP JUMP JUMPDEST PUSH1 0x4 PUSH0 DUP2 SLOAD DUP1 SWAP3 SWAP2 SWAP1 PUSH2 0x254 SWAP1 PUSH2 0x3B1 JUMP JUMPDEST SWAP2 SWAP1 POP SSTORE POP PUSH1 0x40 MLOAD DUP1 PUSH1 0x60 ADD PUSH1 0x40 MSTORE DUP1 PUSH1 0x4 SLOAD DUP2 MSTORE PUSH1 0x20 ADD DUP3 DUP2 MSTORE PUSH1 0x20 ADD PUSH0 DUP2 MSTORE POP PUSH1 0x2 PUSH0 PUSH1 0x4 SLOAD DUP2 MSTORE PUSH1 0x20 ADD SWAP1 DUP2 MSTORE PUSH1 0x20 ADD PUSH0 KECCAK256 PUSH0 DUP3 ADD MLOAD DUP2 PUSH0 ADD SSTORE PUSH1 0x20 DUP3 ADD MLOAD DUP2 PUSH1 0x1 ADD SWAP1 DUP2 PUSH2 0x2A6 SWAP2 SWAP1 PUSH2 0x62C JUMP JUMPDEST POP PUSH1 0x40 DUP3 ADD MLOAD DUP2 PUSH1 0x2 ADD SSTORE SWAP1 POP POP POP JUMP JUMPDEST PUSH0 PUSH0 REVERT JUMPDEST PUSH0 PUSH20 0xFFFFFFFFFFFFFFFFFFFFFFFFFFFFFFFFFFFFFFFF DUP3 AND SWAP1 POP SWAP2 SWAP1 POP JUMP JUMPDEST PUSH0 PUSH2 0x2E4 DUP3 PUSH2 0x2BB JUMP JUMPDEST SWAP1 POP SWAP2 SWAP1 POP JUMP JUMPDEST PUSH2 0x2F4 DUP2 PUSH2 0x2DA JUMP JUMPDEST DUP2 EQ PUSH2 0x2FE JUMPI PUSH0 PUSH0 REVERT JUMPDEST POP JUMP JUMPDEST PUSH0 DUP2 MLOAD SWAP1 POP PUSH2 0x30F DUP2 PUSH2 0x2EB JUMP JUMPDEST SWAP3 SWAP2 POP POP JUMP JUMPDEST PUSH0 PUSH0 PUSH1 0x40 DUP4 DUP6 SUB SLT ISZERO PUSH2 0x32B JUMPI PUSH2 0x32A PUSH2 0x2B7 JUMP JUMPDEST JUMPDEST PUSH0 PUSH2 0x338 DUP6 DUP3 DUP7 ADD PUSH2 0x301 JUMP JUMPDEST SWAP3 POP POP PUSH1 0x20 PUSH2 0x349 DUP6 DUP3 DUP7 ADD PUSH2 0x301 JUMP JUMPDEST SWAP2 POP POP SWAP3 POP SWAP3 SWAP1 POP JUMP JUMPDEST PUSH2 0x35C DUP2 PUSH2 0x2DA JUMP JUMPDEST DUP3 MSTORE POP POP JUMP JUMPDEST PUSH0 PUSH1 0x20 DUP3 ADD SWAP1 POP PUSH2 0x375 PUSH0 DUP4 ADD DUP5 PUSH2 0x353 JUMP JUMPDEST SWAP3 SWAP2 POP POP JUMP JUMPDEST PUSH32 0x4E487B7100000000000000000000000000000000000000000000000000000000 PUSH0 MSTORE PUSH1 0x11 PUSH1 0x4 MSTORE PUSH1 0x24 PUSH0 REVERT JUMPDEST PUSH0 DUP2 SWAP1 POP SWAP2 SWAP1 POP JUMP JUMPDEST PUSH0 PUSH2 0x3BB DUP3 PUSH2 0x3A8 JUMP JUMPDEST SWAP2 POP PUSH32 0xFFFFFFFFFFFFFFFFFFFFFFFFFFFFFFFFFFFFFFFFFFFFFFFFFFFFFFFFFFFFFFFF DUP3 SUB PUSH2 0x3ED JUMPI PUSH2 0x3EC PUSH2 0x37B JUMP JUMPDEST JUMPDEST PUSH1 0x1 DUP3 ADD SWAP1 POP SWAP2 SWAP1 POP JUMP JUMPDEST PUSH0 DUP2 MLOAD SWAP1 POP SWAP2 SWAP1 POP JUMP JUMPDEST PUSH32 0x4E487B7100000000000000000000000000000000000000000000000000000000 PUSH0 MSTORE PUSH1 0x41 PUSH1 0x4 MSTORE PUSH1 0x24 PUSH0 REVERT JUMPDEST PUSH32 0x4E487B7100000000000000000000000000000000000000000000000000000000 PUSH0 MSTORE PUSH1 0x22 PUSH1 0x4 MSTORE PUSH1 0x24 PUSH0 REVERT JUMPDEST PUSH0 PUSH1 0x2 DUP3 DIV SWAP1 POP PUSH1 0x1 DUP3 AND DUP1 PUSH2 0x473 JUMPI PUSH1 0x7F DUP3 AND SWAP2 POP JUMPDEST PUSH1 0x20 DUP3 LT DUP2 SUB PUSH2 0x486 JUMPI PUSH2 0x485 PUSH2 0x42F JUMP JUMPDEST JUMPDEST POP SWAP2 SWAP1 POP JUMP JUMPDEST PUSH0 DUP2 SWAP1 POP DUP2 PUSH0 MSTORE PUSH1 0x20 PUSH0 KECCAK256 SWAP1 POP SWAP2 SWAP1 POP JUMP JUMPDEST PUSH0 PUSH1 0x20 PUSH1 0x1F DUP4 ADD DIV SWAP1 POP SWAP2 SWAP1 POP JUMP JUMPDEST PUSH0 DUP3 DUP3 SHL SWAP1 POP SWAP3 SWAP2 POP POP JUMP JUMPDEST PUSH0 PUSH1 0x8 DUP4 MUL PUSH2 0x4E8 PUSH32 0xFFFFFFFFFFFFFFFFFFFFFFFFFFFFFFFFFFFFFFFFFFFFFFFFFFFFFFFFFFFFFFFF DUP3 PUSH2 0x4AD JUMP JUMPDEST PUSH2 0x4F2 DUP7 DUP4 PUSH2 0x4AD JUMP JUMPDEST SWAP6 POP DUP1 NOT DUP5 AND SWAP4 POP DUP1 DUP7 AND DUP5 OR SWAP3 POP POP POP SWAP4 SWAP3 POP POP POP JUMP JUMPDEST PUSH0 DUP2 SWAP1 POP SWAP2 SWAP1 POP JUMP JUMPDEST PUSH0 PUSH2 0x52D PUSH2 0x528 PUSH2 0x523 DUP5 PUSH2 0x3A8 JUMP JUMPDEST PUSH2 0x50A JUMP JUMPDEST PUSH2 0x3A8 JUMP JUMPDEST SWAP1 POP SWAP2 SWAP1 POP JUMP JUMPDEST PUSH0 DUP2 SWAP1 POP SWAP2 SWAP1 POP JUMP JUMPDEST PUSH2 0x546 DUP4 PUSH2 0x513 JUMP JUMPDEST PUSH2 0x55A PUSH2 0x552 DUP3 PUSH2 0x534 JUMP JUMPDEST DUP5 DUP5 SLOAD PUSH2 0x4B9 JUMP JUMPDEST DUP3 SSTORE POP POP POP POP JUMP JUMPDEST PUSH0 PUSH0 SWAP1 POP SWAP1 JUMP JUMPDEST PUSH2 0x571 PUSH2 0x562 JUMP JUMPDEST PUSH2 0x57C DUP2 DUP5 DUP5 PUSH2 0x53D JUMP JUMPDEST POP POP POP JUMP JUMPDEST JUMPDEST DUP2 DUP2 LT ISZERO PUSH2 0x59F JUMPI PUSH2 0x594 PUSH0 DUP3 PUSH2 0x569 JUMP JUMPDEST PUSH1 0x1 DUP2 ADD SWAP1 POP PUSH2 0x582 JUMP JUMPDEST POP POP JUMP JUMPDEST PUSH1 0x1F DUP3 GT ISZERO PUSH2 0x5E4 JUMPI PUSH2 0x5B5 DUP2 PUSH2 0x48C JUMP JUMPDEST PUSH2 0x5BE DUP5 PUSH2 0x49E JUMP JUMPDEST DUP2 ADD PUSH1 0x20 DUP6 LT ISZERO PUSH2 0x5CD JUMPI DUP2 SWAP1 POP JUMPDEST PUSH2 0x5E1 PUSH2 0x5D9 DUP6 PUSH2 0x49E JUMP JUMPDEST DUP4 ADD DUP3 PUSH2 0x581 JUMP JUMPDEST POP POP JUMPDEST POP POP POP JUMP JUMPDEST PUSH0 DUP3 DUP3 SHR SWAP1 POP SWAP3 SWAP2 POP POP JUMP JUMPDEST PUSH0 PUSH2 0x604 PUSH0 NOT DUP5 PUSH1 0x8 MUL PUSH2 0x5E9 JUMP JUMPDEST NOT DUP1 DUP4 AND SWAP2 POP POP SWAP3 SWAP2 POP POP JUMP JUMPDEST PUSH0 PUSH2 0x61C DUP4 DUP4 PUSH2 0x5F5 JUMP JUMPDEST SWAP2 POP DUP3 PUSH1 0x2 MUL DUP3 OR SWAP1 POP SWAP3 SWAP2 POP POP JUMP JUMPDEST PUSH2 0x635 DUP3 PUSH2 0x3F8 JUMP JUMPDEST PUSH8 0xFFFFFFFFFFFFFFFF DUP2 GT ISZERO PUSH2 0x64E JUMPI PUSH2 0x64D PUSH2 0x402 JUMP JUMPDEST JUMPDEST PUSH2 0x658 DUP3 SLOAD PUSH2 0x45C JUMP JUMPDEST PUSH2 0x663 DUP3 DUP3 DUP6 PUSH2 0x5A3 JUMP JUMPDEST PUSH0 PUSH1 0x20 SWAP1 POP PUSH1 0x1F DUP4 GT PUSH1 0x1 DUP2 EQ PUSH2 0x694 JUMPI PUSH0 DUP5 ISZERO PUSH2 0x682 JUMPI DUP3 DUP8 ADD MLOAD SWAP1 POP JUMPDEST PUSH2 0x68C DUP6 DUP3 PUSH2 0x611 JUMP JUMPDEST DUP7 SSTORE POP PUSH2 0x6F3 JUMP JUMPDEST PUSH1 0x1F NOT DUP5 AND PUSH2 0x6A2 DUP7 PUSH2 0x48C JUMP JUMPDEST PUSH0 JUMPDEST DUP3 DUP2 LT ISZERO PUSH2 0x6C9 JUMPI DUP5 DUP10 ADD MLOAD DUP3 SSTORE PUSH1 0x1 DUP3 ADD SWAP2 POP PUSH1 0x20 DUP6 ADD SWAP5 POP PUSH1 0x20 DUP2 ADD SWAP1 POP PUSH2 0x6A4 JUMP JUMPDEST DUP7 DUP4 LT ISZERO PUSH2 0x6E6 JUMPI DUP5 DUP10 ADD MLOAD PUSH2 0x6E2 PUSH1 0x1F DUP10 AND DUP3 PUSH2 0x5F5 JUMP JUMPDEST DUP4 SSTORE POP JUMPDEST PUSH1 0x1 PUSH1 0x2 DUP9 MUL ADD DUP9 SSTORE POP POP POP JUMPDEST POP POP POP POP POP POP JUMP JUMPDEST PUSH2 0x1AC6 DUP1 PUSH2 0x708 PUSH0 CODECOPY PUSH0 RETURN INVALID PUSH1 0x80 PUSH1 0x40 MSTORE CALLVALUE DUP1 ISZERO PUSH2 0xF JUMPI PUSH0 PUSH0 REVERT JUMPDEST POP PUSH1 0x4 CALLDATASIZE LT PUSH2 0xA7 JUMPI PUSH0 CALLDATALOAD PUSH1 0xE0 SHR DUP1 PUSH4 0x462E91EC GT PUSH2 0x6F JUMPI DUP1 PUSH4 0x462E91EC EQ PUSH2 0x165 JUMPI DUP1 PUSH4 0x715018A6 EQ PUSH2 0x181 JUMPI DUP1 PUSH4 0x8DA5CB5B EQ PUSH2 0x18B JUMPI DUP1 PUSH4 0xA3EC138D EQ PUSH2 0x1A9 JUMPI DUP1 PUSH4 0xB0340123 EQ PUSH2 0x1D9 JUMPI DUP1 PUSH4 0xF2FDE38B EQ PUSH2 0x1F7 JUMPI PUSH2 0xA7 JUMP JUMPDEST DUP1 PUSH4 0x121B93F EQ PUSH2 0xAB JUMPI DUP1 PUSH4 0x2D35A8A2 EQ PUSH2 0xC7 JUMPI DUP1 PUSH4 0x315A095D EQ PUSH2 0xE5 JUMPI DUP1 PUSH4 0x3477EE2E EQ PUSH2 0x101 JUMPI DUP1 PUSH4 0x35B8E820 EQ PUSH2 0x133 JUMPI JUMPDEST PUSH0 PUSH0 REVERT JUMPDEST PUSH2 0xC5 PUSH1 0x4 DUP1 CALLDATASIZE SUB DUP2 ADD SWAP1 PUSH2 0xC0 SWAP2 SWAP1 PUSH2 0xDBE JUMP JUMPDEST PUSH2 0x213 JUMP JUMPDEST STOP JUMPDEST PUSH2 0xCF PUSH2 0x6F8 JUMP JUMPDEST PUSH1 0x40 MLOAD PUSH2 0xDC SWAP2 SWAP1 PUSH2 0xDF8 JUMP JUMPDEST PUSH1 0x40 MLOAD DUP1 SWAP2 SUB SWAP1 RETURN JUMPDEST PUSH2 0xFF PUSH1 0x4 DUP1 CALLDATASIZE SUB DUP2 ADD SWAP1 PUSH2 0xFA SWAP2 SWAP1 PUSH2 0xDBE JUMP JUMPDEST PUSH2 0x6FE JUMP JUMPDEST STOP JUMPDEST PUSH2 0x11B PUSH1 0x4 DUP1 CALLDATASIZE SUB DUP2 ADD SWAP1 PUSH2 0x116 SWAP2 SWAP1 PUSH2 0xDBE JUMP JUMPDEST PUSH2 0x8C4 JUMP JUMPDEST PUSH1 0x40 MLOAD PUSH2 0x12A SWAP4 SWAP3 SWAP2 SWAP1 PUSH2 0xE81 JUMP JUMPDEST PUSH1 0x40 MLOAD DUP1 SWAP2 SUB SWAP1 RETURN JUMPDEST PUSH2 0x14D PUSH1 0x4 DUP1 CALLDATASIZE SUB DUP2 ADD SWAP1 PUSH2 0x148 SWAP2 SWAP1 PUSH2 0xDBE JUMP JUMPDEST PUSH2 0x970 JUMP JUMPDEST PUSH1 0x40 MLOAD PUSH2 0x15C SWAP4 SWAP3 SWAP2 SWAP1 PUSH2 0xE81 JUMP JUMPDEST PUSH1 0x40 MLOAD DUP1 SWAP2 SUB SWAP1 RETURN JUMPDEST PUSH2 0x17F PUSH1 0x4 DUP1 CALLDATASIZE SUB DUP2 ADD SWAP1 PUSH2 0x17A SWAP2 SWAP1 PUSH2 0xFE9 JUMP JUMPDEST PUSH2 0xAA2 JUMP JUMPDEST STOP JUMPDEST PUSH2 0x189 PUSH2 0xAB6 JUMP JUMPDEST STOP JUMPDEST PUSH2 0x193 PUSH2 0xAC9 JUMP JUMPDEST PUSH1 0x40 MLOAD PUSH2 0x1A0 SWAP2 SWAP1 PUSH2 0x106F JUMP JUMPDEST PUSH1 0x40 MLOAD DUP1 SWAP2 SUB SWAP1 RETURN JUMPDEST PUSH2 0x1C3 PUSH1 0x4 DUP1 CALLDATASIZE SUB DUP2 ADD SWAP1 PUSH2 0x1BE SWAP2 SWAP1 PUSH2 0x10B2 JUMP JUMPDEST PUSH2 0xAF0 JUMP JUMPDEST PUSH1 0x40 MLOAD PUSH2 0x1D0 SWAP2 SWAP1 PUSH2 0x10F7 JUMP JUMPDEST PUSH1 0x40 MLOAD DUP1 SWAP2 SUB SWAP1 RETURN JUMPDEST PUSH2 0x1E1 PUSH2 0xB0D JUMP JUMPDEST PUSH1 0x40 MLOAD PUSH2 0x1EE SWAP2 SWAP1 PUSH2 0x116B JUMP JUMPDEST PUSH1 0x40 MLOAD DUP1 SWAP2 SUB SWAP1 RETURN JUMPDEST PUSH2 0x211 PUSH1 0x4 DUP1 CALLDATASIZE SUB DUP2 ADD SWAP1 PUSH2 0x20C SWAP2 SWAP1 PUSH2 0x10B2 JUMP JUMPDEST PUSH2 0xB32 JUMP JUMPDEST STOP JUMPDEST PUSH1 0x3 PUSH0 CALLER PUSH20 0xFFFFFFFFFFFFFFFFFFFFFFFFFFFFFFFFFFFFFFFF AND PUSH20 0xFFFFFFFFFFFFFFFFFFFFFFFFFFFFFFFFFFFFFFFF AND DUP2 MSTORE PUSH1 0x20 ADD SWAP1 DUP2 MSTORE PUSH1 0x20 ADD PUSH0 KECCAK256 PUSH0 SWAP1 SLOAD SWAP1 PUSH2 0x100 EXP SWAP1 DIV PUSH1 0xFF AND ISZERO PUSH2 0x29D JUMPI PUSH1 0x40 MLOAD PUSH32 0x8C379A000000000000000000000000000000000000000000000000000000000 DUP2 MSTORE PUSH1 0x4 ADD PUSH2 0x294 SWAP1 PUSH2 0x11CE JUMP JUMPDEST PUSH1 0x40 MLOAD DUP1 SWAP2 SUB SWAP1 REVERT JUMPDEST PUSH0 DUP2 GT DUP1 ISZERO PUSH2 0x2AE JUMPI POP PUSH1 0x4 SLOAD DUP2 GT ISZERO JUMPDEST PUSH2 0x2ED JUMPI PUSH1 0x40 MLOAD PUSH32 0x8C379A000000000000000000000000000000000000000000000000000000000 DUP2 MSTORE PUSH1 0x4 ADD PUSH2 0x2E4 SWAP1 PUSH2 0x1236 JUMP JUMPDEST PUSH1 0x40 MLOAD DUP1 SWAP2 SUB SWAP1 REVERT JUMPDEST PUSH0 PUSH1 0x1 PUSH0 SWAP1 SLOAD SWAP1 PUSH2 0x100 EXP SWAP1 DIV PUSH20 0xFFFFFFFFFFFFFFFFFFFFFFFFFFFFFFFFFFFFFFFF AND PUSH20 0xFFFFFFFFFFFFFFFFFFFFFFFFFFFFFFFFFFFFFFFF AND PUSH4 0x313CE567 PUSH1 0x40 MLOAD DUP2 PUSH4 0xFFFFFFFF AND PUSH1 0xE0 SHL DUP2 MSTORE PUSH1 0x4 ADD PUSH1 0x20 PUSH1 0x40 MLOAD DUP1 DUP4 SUB DUP2 DUP7 GAS STATICCALL ISZERO DUP1 ISZERO PUSH2 0x358 JUMPI RETURNDATASIZE PUSH0 PUSH0 RETURNDATACOPY RETURNDATASIZE PUSH0 REVERT JUMPDEST POP POP POP POP PUSH1 0x40 MLOAD RETURNDATASIZE PUSH1 0x1F NOT PUSH1 0x1F DUP3 ADD AND DUP3 ADD DUP1 PUSH1 0x40 MSTORE POP DUP2 ADD SWAP1 PUSH2 0x37C SWAP2 SWAP1 PUSH2 0x128A JUMP JUMPDEST PUSH1 0xA PUSH2 0x388 SWAP2 SWAP1 PUSH2 0x1411 JUMP JUMPDEST PUSH1 0x1 PUSH2 0x394 SWAP2 SWAP1 PUSH2 0x145B JUMP JUMPDEST SWAP1 POP DUP1 PUSH1 0x1 PUSH0 SWAP1 SLOAD SWAP1 PUSH2 0x100 EXP SWAP1 DIV PUSH20 0xFFFFFFFFFFFFFFFFFFFFFFFFFFFFFFFFFFFFFFFF AND PUSH20 0xFFFFFFFFFFFFFFFFFFFFFFFFFFFFFFFFFFFFFFFF AND PUSH4 0x70A08231 CALLER PUSH1 0x40 MLOAD DUP3 PUSH4 0xFFFFFFFF AND PUSH1 0xE0 SHL DUP2 MSTORE PUSH1 0x4 ADD PUSH2 0x3F1 SWAP2 SWAP1 PUSH2 0x106F JUMP JUMPDEST PUSH1 0x20 PUSH1 0x40 MLOAD DUP1 DUP4 SUB DUP2 DUP7 GAS STATICCALL ISZERO DUP1 ISZERO PUSH2 0x40C JUMPI RETURNDATASIZE PUSH0 PUSH0 RETURNDATACOPY RETURNDATASIZE PUSH0 REVERT JUMPDEST POP POP POP POP PUSH1 0x40 MLOAD RETURNDATASIZE PUSH1 0x1F NOT PUSH1 0x1F DUP3 ADD AND DUP3 ADD DUP1 PUSH1 0x40 MSTORE POP DUP2 ADD SWAP1 PUSH2 0x430 SWAP2 SWAP1 PUSH2 0x14B0 JUMP JUMPDEST LT ISZERO PUSH2 0x471 JUMPI PUSH1 0x40 MLOAD PUSH32 0x8C379A000000000000000000000000000000000000000000000000000000000 DUP2 MSTORE PUSH1 0x4 ADD PUSH2 0x468 SWAP1 PUSH2 0x1525 JUMP JUMPDEST PUSH1 0x40 MLOAD DUP1 SWAP2 SUB SWAP1 REVERT JUMPDEST DUP1 PUSH1 0x1 PUSH0 SWAP1 SLOAD SWAP1 PUSH2 0x100 EXP SWAP1 DIV PUSH20 0xFFFFFFFFFFFFFFFFFFFFFFFFFFFFFFFFFFFFFFFF AND PUSH20 0xFFFFFFFFFFFFFFFFFFFFFFFFFFFFFFFFFFFFFFFF AND PUSH4 0xDD62ED3E CALLER ADDRESS PUSH1 0x40 MLOAD DUP4 PUSH4 0xFFFFFFFF AND PUSH1 0xE0 SHL DUP2 MSTORE PUSH1 0x4 ADD PUSH2 0x4CE SWAP3 SWAP2 SWAP1 PUSH2 0x1543 JUMP JUMPDEST PUSH1 0x20 PUSH1 0x40 MLOAD DUP1 DUP4 SUB DUP2 DUP7 GAS STATICCALL ISZERO DUP1 ISZERO PUSH2 0x4E9 JUMPI RETURNDATASIZE PUSH0 PUSH0 RETURNDATACOPY RETURNDATASIZE PUSH0 REVERT JUMPDEST POP POP POP POP PUSH1 0x40 MLOAD RETURNDATASIZE PUSH1 0x1F NOT PUSH1 0x1F DUP3 ADD AND DUP3 ADD DUP1 PUSH1 0x40 MSTORE POP DUP2 ADD SWAP1 PUSH2 0x50D SWAP2 SWAP1 PUSH2 0x14B0 JUMP JUMPDEST LT ISZERO PUSH2 0x54E JUMPI PUSH1 0x40 MLOAD PUSH32 0x8C379A000000000000000000000000000000000000000000000000000000000 DUP2 MSTORE PUSH1 0x4 ADD PUSH2 0x545 SWAP1 PUSH2 0x15B4 JUMP JUMPDEST PUSH1 0x40 MLOAD DUP1 SWAP2 SUB SWAP1 REVERT JUMPDEST PUSH0 PUSH1 0x1 PUSH0 SWAP1 SLOAD SWAP1 PUSH2 0x100 EXP SWAP1 DIV PUSH20 0xFFFFFFFFFFFFFFFFFFFFFFFFFFFFFFFFFFFFFFFF AND PUSH20 0xFFFFFFFFFFFFFFFFFFFFFFFFFFFFFFFFFFFFFFFF AND PUSH4 0x23B872DD CALLER ADDRESS DUP6 PUSH1 0x40 MLOAD DUP5 PUSH4 0xFFFFFFFF AND PUSH1 0xE0 SHL DUP2 MSTORE PUSH1 0x4 ADD PUSH2 0x5AD SWAP4 SWAP3 SWAP2 SWAP1 PUSH2 0x15D2 JUMP JUMPDEST PUSH1 0x20 PUSH1 0x40 MLOAD DUP1 DUP4 SUB DUP2 PUSH0 DUP8 GAS CALL ISZERO DUP1 ISZERO PUSH2 0x5C9 JUMPI RETURNDATASIZE PUSH0 PUSH0 RETURNDATACOPY RETURNDATASIZE PUSH0 REVERT JUMPDEST POP POP POP POP PUSH1 0x40 MLOAD RETURNDATASIZE PUSH1 0x1F NOT PUSH1 0x1F DUP3 ADD AND DUP3 ADD DUP1 PUSH1 0x40 MSTORE POP DUP2 ADD SWAP1 PUSH2 0x5ED SWAP2 SWAP1 PUSH2 0x1631 JUMP JUMPDEST SWAP1 POP DUP1 PUSH2 0x62F JUMPI PUSH1 0x40 MLOAD PUSH32 0x8C379A000000000000000000000000000000000000000000000000000000000 DUP2 MSTORE PUSH1 0x4 ADD PUSH2 0x626 SWAP1 PUSH2 0x16A6 JUMP JUMPDEST PUSH1 0x40 MLOAD DUP1 SWAP2 SUB SWAP1 REVERT JUMPDEST PUSH1 0x1 PUSH1 0x3 PUSH0 CALLER PUSH20 0xFFFFFFFFFFFFFFFFFFFFFFFFFFFFFFFFFFFFFFFF AND PUSH20 0xFFFFFFFFFFFFFFFFFFFFFFFFFFFFFFFFFFFFFFFF AND DUP2 MSTORE PUSH1 0x20 ADD SWAP1 DUP2 MSTORE PUSH1 0x20 ADD PUSH0 KECCAK256 PUSH0 PUSH2 0x100 EXP DUP2 SLOAD DUP2 PUSH1 0xFF MUL NOT AND SWAP1 DUP4 ISZERO ISZERO MUL OR SWAP1 SSTORE POP PUSH1 0x1 PUSH1 0x2 PUSH0 DUP6 DUP2 MSTORE PUSH1 0x20 ADD SWAP1 DUP2 MSTORE PUSH1 0x20 ADD PUSH0 KECCAK256 PUSH1 0x2 ADD PUSH0 DUP3 DUP3 SLOAD PUSH2 0x6A8 SWAP2 SWAP1 PUSH2 0x16C4 JUMP JUMPDEST SWAP3 POP POP DUP2 SWAP1 SSTORE POP CALLER PUSH20 0xFFFFFFFFFFFFFFFFFFFFFFFFFFFFFFFFFFFFFFFF AND DUP4 PUSH32 0x30B0F8DCD86A031EDDB071F91882EDEAC8173663BA775713B677B42B51BE44B PUSH1 0x40 MLOAD PUSH1 0x40 MLOAD DUP1 SWAP2 SUB SWAP1 LOG3 POP POP POP JUMP JUMPDEST PUSH1 0x4 SLOAD DUP2 JUMP JUMPDEST PUSH2 0x706 PUSH2 0xBB6 JUMP JUMPDEST DUP1 PUSH1 0x1 PUSH0 SWAP1 SLOAD SWAP1 PUSH2 0x100 EXP SWAP1 DIV PUSH20 0xFFFFFFFFFFFFFFFFFFFFFFFFFFFFFFFFFFFFFFFF AND PUSH20 0xFFFFFFFFFFFFFFFFFFFFFFFFFFFFFFFFFFFFFFFF AND PUSH4 0x70A08231 ADDRESS PUSH1 0x40 MLOAD DUP3 PUSH4 0xFFFFFFFF AND PUSH1 0xE0 SHL DUP2 MSTORE PUSH1 0x4 ADD PUSH2 0x761 SWAP2 SWAP1 PUSH2 0x106F JUMP JUMPDEST PUSH1 0x20 PUSH1 0x40 MLOAD DUP1 DUP4 SUB DUP2 DUP7 GAS STATICCALL ISZERO DUP1 ISZERO PUSH2 0x77C JUMPI RETURNDATASIZE PUSH0 PUSH0 RETURNDATACOPY RETURNDATASIZE PUSH0 REVERT JUMPDEST POP POP POP POP PUSH1 0x40 MLOAD RETURNDATASIZE PUSH1 0x1F NOT PUSH1 0x1F DUP3 ADD AND DUP3 ADD DUP1 PUSH1 0x40 MSTORE POP DUP2 ADD SWAP1 PUSH2 0x7A0 SWAP2 SWAP1 PUSH2 0x14B0 JUMP JUMPDEST LT ISZERO PUSH2 0x7E1 JUMPI PUSH1 0x40 MLOAD PUSH32 0x8C379A000000000000000000000000000000000000000000000000000000000 DUP2 MSTORE PUSH1 0x4 ADD PUSH2 0x7D8 SWAP1 PUSH2 0x1741 JUMP JUMPDEST PUSH1 0x40 MLOAD DUP1 SWAP2 SUB SWAP1 REVERT JUMPDEST PUSH0 PUSH1 0x1 PUSH0 SWAP1 SLOAD SWAP1 PUSH2 0x100 EXP SWAP1 DIV PUSH20 0xFFFFFFFFFFFFFFFFFFFFFFFFFFFFFFFFFFFFFFFF AND PUSH20 0xFFFFFFFFFFFFFFFFFFFFFFFFFFFFFFFFFFFFFFFF AND PUSH4 0xA9059CBB CALLER DUP5 PUSH1 0x40 MLOAD DUP4 PUSH4 0xFFFFFFFF AND PUSH1 0xE0 SHL DUP2 MSTORE PUSH1 0x4 ADD PUSH2 0x83E SWAP3 SWAP2 SWAP1 PUSH2 0x175F JUMP JUMPDEST PUSH1 0x20 PUSH1 0x40 MLOAD DUP1 DUP4 SUB DUP2 PUSH0 DUP8 GAS CALL ISZERO DUP1 ISZERO PUSH2 0x85A JUMPI RETURNDATASIZE PUSH0 PUSH0 RETURNDATACOPY RETURNDATASIZE PUSH0 REVERT JUMPDEST POP POP POP POP PUSH1 0x40 MLOAD RETURNDATASIZE PUSH1 0x1F NOT PUSH1 0x1F DUP3 ADD AND DUP3 ADD DUP1 PUSH1 0x40 MSTORE POP DUP2 ADD SWAP1 PUSH2 0x87E SWAP2 SWAP1 PUSH2 0x1631 JUMP JUMPDEST SWAP1 POP DUP1 PUSH2 0x8C0 JUMPI PUSH1 0x40 MLOAD PUSH32 0x8C379A000000000000000000000000000000000000000000000000000000000 DUP2 MSTORE PUSH1 0x4 ADD PUSH2 0x8B7 SWAP1 PUSH2 0x16A6 JUMP JUMPDEST PUSH1 0x40 MLOAD DUP1 SWAP2 SUB SWAP1 REVERT JUMPDEST POP POP JUMP JUMPDEST PUSH1 0x2 PUSH1 0x20 MSTORE DUP1 PUSH0 MSTORE PUSH1 0x40 PUSH0 KECCAK256 PUSH0 SWAP2 POP SWAP1 POP DUP1 PUSH0 ADD SLOAD SWAP1 DUP1 PUSH1 0x1 ADD DUP1 SLOAD PUSH2 0x8E9 SWAP1 PUSH2 0x17B3 JUMP JUMPDEST DUP1 PUSH1 0x1F ADD PUSH1 0x20 DUP1 SWAP2 DIV MUL PUSH1 0x20 ADD PUSH1 0x40 MLOAD SWAP1 DUP2 ADD PUSH1 0x40 MSTORE DUP1 SWAP3 SWAP2 SWAP1 DUP2 DUP2 MSTORE PUSH1 0x20 ADD DUP3 DUP1 SLOAD PUSH2 0x915 SWAP1 PUSH2 0x17B3 JUMP JUMPDEST DUP1 ISZERO PUSH2 0x960 JUMPI DUP1 PUSH1 0x1F LT PUSH2 0x937 JUMPI PUSH2 0x100 DUP1 DUP4 SLOAD DIV MUL DUP4 MSTORE SWAP2 PUSH1 0x20 ADD SWAP2 PUSH2 0x960 JUMP JUMPDEST DUP3 ADD SWAP2 SWAP1 PUSH0 MSTORE PUSH1 0x20 PUSH0 KECCAK256 SWAP1 JUMPDEST DUP2 SLOAD DUP2 MSTORE SWAP1 PUSH1 0x1 ADD SWAP1 PUSH1 0x20 ADD DUP1 DUP4 GT PUSH2 0x943 JUMPI DUP3 SWAP1 SUB PUSH1 0x1F AND DUP3 ADD SWAP2 JUMPDEST POP POP POP POP POP SWAP1 DUP1 PUSH1 0x2 ADD SLOAD SWAP1 POP DUP4 JUMP JUMPDEST PUSH0 PUSH1 0x60 PUSH0 PUSH0 DUP5 GT DUP1 ISZERO PUSH2 0x985 JUMPI POP PUSH1 0x4 SLOAD DUP5 GT ISZERO JUMPDEST PUSH2 0x9C4 JUMPI PUSH1 0x40 MLOAD PUSH32 0x8C379A000000000000000000000000000000000000000000000000000000000 DUP2 MSTORE PUSH1 0x4 ADD PUSH2 0x9BB SWAP1 PUSH2 0x1236 JUMP JUMPDEST PUSH1 0x40 MLOAD DUP1 SWAP2 SUB SWAP1 REVERT JUMPDEST PUSH0 PUSH1 0x2 PUSH0 DUP7 DUP2 MSTORE PUSH1 0x20 ADD SWAP1 DUP2 MSTORE PUSH1 0x20 ADD PUSH0 KECCAK256 PUSH1 0x40 MLOAD DUP1 PUSH1 0x60 ADD PUSH1 0x40 MSTORE SWAP1 DUP2 PUSH0 DUP3 ADD SLOAD DUP2 MSTORE PUSH1 0x20 ADD PUSH1 0x1 DUP3 ADD DUP1 SLOAD PUSH2 0x9FA SWAP1 PUSH2 0x17B3 JUMP JUMPDEST DUP1 PUSH1 0x1F ADD PUSH1 0x20 DUP1 SWAP2 DIV MUL PUSH1 0x20 ADD PUSH1 0x40 MLOAD SWAP1 DUP2 ADD PUSH1 0x40 MSTORE DUP1 SWAP3 SWAP2 SWAP1 DUP2 DUP2 MSTORE PUSH1 0x20 ADD DUP3 DUP1 SLOAD PUSH2 0xA26 SWAP1 PUSH2 0x17B3 JUMP JUMPDEST DUP1 ISZERO PUSH2 0xA71 JUMPI DUP1 PUSH1 0x1F LT PUSH2 0xA48 JUMPI PUSH2 0x100 DUP1 DUP4 SLOAD DIV MUL DUP4 MSTORE SWAP2 PUSH1 0x20 ADD SWAP2 PUSH2 0xA71 JUMP JUMPDEST DUP3 ADD SWAP2 SWAP1 PUSH0 MSTORE PUSH1 0x20 PUSH0 KECCAK256 SWAP1 JUMPDEST DUP2 SLOAD DUP2 MSTORE SWAP1 PUSH1 0x1 ADD SWAP1 PUSH1 0x20 ADD DUP1 DUP4 GT PUSH2 0xA54 JUMPI DUP3 SWAP1 SUB PUSH1 0x1F AND DUP3 ADD SWAP2 JUMPDEST POP POP POP POP POP DUP2 MSTORE PUSH1 0x20 ADD PUSH1 0x2 DUP3 ADD SLOAD DUP2 MSTORE POP POP SWAP1 POP DUP1 PUSH0 ADD MLOAD DUP2 PUSH1 0x20 ADD MLOAD DUP3 PUSH1 0x40 ADD MLOAD SWAP4 POP SWAP4 POP SWAP4 POP POP SWAP2 SWAP4 SWAP1 SWAP3 POP JUMP JUMPDEST PUSH2 0xAAA PUSH2 0xBB6 JUMP JUMPDEST PUSH2 0xAB3 DUP2 PUSH2 0xC3D JUMP JUMPDEST POP JUMP JUMPDEST PUSH2 0xABE PUSH2 0xBB6 JUMP JUMPDEST PUSH2 0xAC7 PUSH0 PUSH2 0xCB2 JUMP JUMPDEST JUMP JUMPDEST PUSH0 PUSH0 PUSH0 SWAP1 SLOAD SWAP1 PUSH2 0x100 EXP SWAP1 DIV PUSH20 0xFFFFFFFFFFFFFFFFFFFFFFFFFFFFFFFFFFFFFFFF AND SWAP1 POP SWAP1 JUMP JUMPDEST PUSH1 0x3 PUSH1 0x20 MSTORE DUP1 PUSH0 MSTORE PUSH1 0x40 PUSH0 KECCAK256 PUSH0 SWAP2 POP SLOAD SWAP1 PUSH2 0x100 EXP SWAP1 DIV PUSH1 0xFF AND DUP2 JUMP JUMPDEST PUSH1 0x1 PUSH0 SWAP1 SLOAD SWAP1 PUSH2 0x100 EXP SWAP1 DIV PUSH20 0xFFFFFFFFFFFFFFFFFFFFFFFFFFFFFFFFFFFFFFFF AND DUP2 JUMP JUMPDEST PUSH2 0xB3A PUSH2 0xBB6 JUMP JUMPDEST PUSH0 PUSH20 0xFFFFFFFFFFFFFFFFFFFFFFFFFFFFFFFFFFFFFFFF AND DUP2 PUSH20 0xFFFFFFFFFFFFFFFFFFFFFFFFFFFFFFFFFFFFFFFF AND SUB PUSH2 0xBAA JUMPI PUSH0 PUSH1 0x40 MLOAD PUSH32 0x1E4FBDF700000000000000000000000000000000000000000000000000000000 DUP2 MSTORE PUSH1 0x4 ADD PUSH2 0xBA1 SWAP2 SWAP1 PUSH2 0x106F JUMP JUMPDEST PUSH1 0x40 MLOAD DUP1 SWAP2 SUB SWAP1 REVERT JUMPDEST PUSH2 0xBB3 DUP2 PUSH2 0xCB2 JUMP JUMPDEST POP JUMP JUMPDEST PUSH2 0xBBE PUSH2 0xD73 JUMP JUMPDEST PUSH20 0xFFFFFFFFFFFFFFFFFFFFFFFFFFFFFFFFFFFFFFFF AND PUSH2 0xBDC PUSH2 0xAC9 JUMP JUMPDEST PUSH20 0xFFFFFFFFFFFFFFFFFFFFFFFFFFFFFFFFFFFFFFFF AND EQ PUSH2 0xC3B JUMPI PUSH2 0xBFF PUSH2 0xD73 JUMP JUMPDEST PUSH1 0x40 MLOAD PUSH32 0x118CDAA700000000000000000000000000000000000000000000000000000000 DUP2 MSTORE PUSH1 0x4 ADD PUSH2 0xC32 SWAP2 SWAP1 PUSH2 0x106F JUMP JUMPDEST PUSH1 0x40 MLOAD DUP1 SWAP2 SUB SWAP1 REVERT JUMPDEST JUMP JUMPDEST PUSH1 0x4 PUSH0 DUP2 SLOAD DUP1 SWAP3 SWAP2 SWAP1 PUSH2 0xC4F SWAP1 PUSH2 0x17E3 JUMP JUMPDEST SWAP2 SWAP1 POP SSTORE POP PUSH1 0x40 MLOAD DUP1 PUSH1 0x60 ADD PUSH1 0x40 MSTORE DUP1 PUSH1 0x4 SLOAD DUP2 MSTORE PUSH1 0x20 ADD DUP3 DUP2 MSTORE PUSH1 0x20 ADD PUSH0 DUP2 MSTORE POP PUSH1 0x2 PUSH0 PUSH1 0x4 SLOAD DUP2 MSTORE PUSH1 0x20 ADD SWAP1 DUP2 MSTORE PUSH1 0x20 ADD PUSH0 KECCAK256 PUSH0 DUP3 ADD MLOAD DUP2 PUSH0 ADD SSTORE PUSH1 0x20 DUP3 ADD MLOAD DUP2 PUSH1 0x1 ADD SWAP1 DUP2 PUSH2 0xCA1 SWAP2 SWAP1 PUSH2 0x19C1 JUMP JUMPDEST POP PUSH1 0x40 DUP3 ADD MLOAD DUP2 PUSH1 0x2 ADD SSTORE SWAP1 POP POP POP JUMP JUMPDEST PUSH0 PUSH0 PUSH0 SWAP1 SLOAD SWAP1 PUSH2 0x100 EXP SWAP1 DIV PUSH20 0xFFFFFFFFFFFFFFFFFFFFFFFFFFFFFFFFFFFFFFFF AND SWAP1 POP DUP2 PUSH0 PUSH0 PUSH2 0x100 EXP DUP2 SLOAD DUP2 PUSH20 0xFFFFFFFFFFFFFFFFFFFFFFFFFFFFFFFFFFFFFFFF MUL NOT AND SWAP1 DUP4 PUSH20 0xFFFFFFFFFFFFFFFFFFFFFFFFFFFFFFFFFFFFFFFF AND MUL OR SWAP1 SSTORE POP DUP2 PUSH20 0xFFFFFFFFFFFFFFFFFFFFFFFFFFFFFFFFFFFFFFFF AND DUP2 PUSH20 0xFFFFFFFFFFFFFFFFFFFFFFFFFFFFFFFFFFFFFFFF AND PUSH32 0x8BE0079C531659141344CD1FD0A4F28419497F9722A3DAAFE3B4186F6B6457E0 PUSH1 0x40 MLOAD PUSH1 0x40 MLOAD DUP1 SWAP2 SUB SWAP1 LOG3 POP POP JUMP JUMPDEST PUSH0 CALLER SWAP1 POP SWAP1 JUMP JUMPDEST PUSH0 PUSH1 0x40 MLOAD SWAP1 POP SWAP1 JUMP JUMPDEST PUSH0 PUSH0 REVERT JUMPDEST PUSH0 PUSH0 REVERT JUMPDEST PUSH0 DUP2 SWAP1 POP SWAP2 SWAP1 POP JUMP JUMPDEST PUSH2 0xD9D DUP2 PUSH2 0xD8B JUMP JUMPDEST DUP2 EQ PUSH2 0xDA7 JUMPI PUSH0 PUSH0 REVERT JUMPDEST POP JUMP JUMPDEST PUSH0 DUP2 CALLDATALOAD SWAP1 POP PUSH2 0xDB8 DUP2 PUSH2 0xD94 JUMP JUMPDEST SWAP3 SWAP2 POP POP JUMP JUMPDEST PUSH0 PUSH1 0x20 DUP3 DUP5 SUB SLT ISZERO PUSH2 0xDD3 JUMPI PUSH2 0xDD2 PUSH2 0xD83 JUMP JUMPDEST JUMPDEST PUSH0 PUSH2 0xDE0 DUP5 DUP3 DUP6 ADD PUSH2 0xDAA JUMP JUMPDEST SWAP2 POP POP SWAP3 SWAP2 POP POP JUMP JUMPDEST PUSH2 0xDF2 DUP2 PUSH2 0xD8B JUMP JUMPDEST DUP3 MSTORE POP POP JUMP JUMPDEST PUSH0 PUSH1 0x20 DUP3 ADD SWAP1 POP PUSH2 0xE0B PUSH0 DUP4 ADD DUP5 PUSH2 0xDE9 JUMP JUMPDEST SWAP3 SWAP2 POP POP JUMP JUMPDEST PUSH0 DUP2 MLOAD SWAP1 POP SWAP2 SWAP1 POP JUMP JUMPDEST PUSH0 DUP3 DUP3 MSTORE PUSH1 0x20 DUP3 ADD SWAP1 POP SWAP3 SWAP2 POP POP JUMP JUMPDEST DUP3 DUP2 DUP4 MCOPY PUSH0 DUP4 DUP4 ADD MSTORE POP POP POP JUMP JUMPDEST PUSH0 PUSH1 0x1F NOT PUSH1 0x1F DUP4 ADD AND SWAP1 POP SWAP2 SWAP1 POP JUMP JUMPDEST PUSH0 PUSH2 0xE53 DUP3 PUSH2 0xE11 JUMP JUMPDEST PUSH2 0xE5D DUP2 DUP6 PUSH2 0xE1B JUMP JUMPDEST SWAP4 POP PUSH2 0xE6D DUP2 DUP6 PUSH1 0x20 DUP7 ADD PUSH2 0xE2B JUMP JUMPDEST PUSH2 0xE76 DUP2 PUSH2 0xE39 JUMP JUMPDEST DUP5 ADD SWAP2 POP POP SWAP3 SWAP2 POP POP JUMP JUMPDEST PUSH0 PUSH1 0x60 DUP3 ADD SWAP1 POP PUSH2 0xE94 PUSH0 DUP4 ADD DUP7 PUSH2 0xDE9 JUMP JUMPDEST DUP2 DUP2 SUB PUSH1 0x20 DUP4 ADD MSTORE PUSH2 0xEA6 DUP2 DUP6 PUSH2 0xE49 JUMP JUMPDEST SWAP1 POP PUSH2 0xEB5 PUSH1 0x40 DUP4 ADD DUP5 PUSH2 0xDE9 JUMP JUMPDEST SWAP5 SWAP4 POP POP POP POP JUMP JUMPDEST PUSH0 PUSH0 REVERT JUMPDEST PUSH0 PUSH0 REVERT JUMPDEST PUSH32 0x4E487B7100000000000000000000000000000000000000000000000000000000 PUSH0 MSTORE PUSH1 0x41 PUSH1 0x4 MSTORE PUSH1 0x24 PUSH0 REVERT JUMPDEST PUSH2 0xEFB DUP3 PUSH2 0xE39 JUMP JUMPDEST DUP2 ADD DUP2 DUP2 LT PUSH8 0xFFFFFFFFFFFFFFFF DUP3 GT OR ISZERO PUSH2 0xF1A JUMPI PUSH2 0xF19 PUSH2 0xEC5 JUMP JUMPDEST JUMPDEST DUP1 PUSH1 0x40 MSTORE POP POP POP JUMP JUMPDEST PUSH0 PUSH2 0xF2C PUSH2 0xD7A JUMP JUMPDEST SWAP1 POP PUSH2 0xF38 DUP3 DUP3 PUSH2 0xEF2 JUMP JUMPDEST SWAP2 SWAP1 POP JUMP JUMPDEST PUSH0 PUSH8 0xFFFFFFFFFFFFFFFF DUP3 GT ISZERO PUSH2 0xF57 JUMPI PUSH2 0xF56 PUSH2 0xEC5 JUMP JUMPDEST JUMPDEST PUSH2 0xF60 DUP3 PUSH2 0xE39 JUMP JUMPDEST SWAP1 POP PUSH1 0x20 DUP2 ADD SWAP1 POP SWAP2 SWAP1 POP JUMP JUMPDEST DUP3 DUP2 DUP4 CALLDATACOPY PUSH0 DUP4 DUP4 ADD MSTORE POP POP POP JUMP JUMPDEST PUSH0 PUSH2 0xF8D PUSH2 0xF88 DUP5 PUSH2 0xF3D JUMP JUMPDEST PUSH2 0xF23 JUMP JUMPDEST SWAP1 POP DUP3 DUP2 MSTORE PUSH1 0x20 DUP2 ADD DUP5 DUP5 DUP5 ADD GT ISZERO PUSH2 0xFA9 JUMPI PUSH2 0xFA8 PUSH2 0xEC1 JUMP JUMPDEST JUMPDEST PUSH2 0xFB4 DUP5 DUP3 DUP6 PUSH2 0xF6D JUMP JUMPDEST POP SWAP4 SWAP3 POP POP POP JUMP JUMPDEST PUSH0 DUP3 PUSH1 0x1F DUP4 ADD SLT PUSH2 0xFD0 JUMPI PUSH2 0xFCF PUSH2 0xEBD JUMP JUMPDEST JUMPDEST DUP2 CALLDATALOAD PUSH2 0xFE0 DUP5 DUP3 PUSH1 0x20 DUP7 ADD PUSH2 0xF7B JUMP JUMPDEST SWAP2 POP POP SWAP3 SWAP2 POP POP JUMP JUMPDEST PUSH0 PUSH1 0x20 DUP3 DUP5 SUB SLT ISZERO PUSH2 0xFFE JUMPI PUSH2 0xFFD PUSH2 0xD83 JUMP JUMPDEST JUMPDEST PUSH0 DUP3 ADD CALLDATALOAD PUSH8 0xFFFFFFFFFFFFFFFF DUP2 GT ISZERO PUSH2 0x101B JUMPI PUSH2 0x101A PUSH2 0xD87 JUMP JUMPDEST JUMPDEST PUSH2 0x1027 DUP5 DUP3 DUP6 ADD PUSH2 0xFBC JUMP JUMPDEST SWAP2 POP POP SWAP3 SWAP2 POP POP JUMP JUMPDEST PUSH0 PUSH20 0xFFFFFFFFFFFFFFFFFFFFFFFFFFFFFFFFFFFFFFFF DUP3 AND SWAP1 POP SWAP2 SWAP1 POP JUMP JUMPDEST PUSH0 PUSH2 0x1059 DUP3 PUSH2 0x1030 JUMP JUMPDEST SWAP1 POP SWAP2 SWAP1 POP JUMP JUMPDEST PUSH2 0x1069 DUP2 PUSH2 0x104F JUMP JUMPDEST DUP3 MSTORE POP POP JUMP JUMPDEST PUSH0 PUSH1 0x20 DUP3 ADD SWAP1 POP PUSH2 0x1082 PUSH0 DUP4 ADD DUP5 PUSH2 0x1060 JUMP JUMPDEST SWAP3 SWAP2 POP POP JUMP JUMPDEST PUSH2 0x1091 DUP2 PUSH2 0x104F JUMP JUMPDEST DUP2 EQ PUSH2 0x109B JUMPI PUSH0 PUSH0 REVERT JUMPDEST POP JUMP JUMPDEST PUSH0 DUP2 CALLDATALOAD SWAP1 POP PUSH2 0x10AC DUP2 PUSH2 0x1088 JUMP JUMPDEST SWAP3 SWAP2 POP POP JUMP JUMPDEST PUSH0 PUSH1 0x20 DUP3 DUP5 SUB SLT ISZERO PUSH2 0x10C7 JUMPI PUSH2 0x10C6 PUSH2 0xD83 JUMP JUMPDEST JUMPDEST PUSH0 PUSH2 0x10D4 DUP5 DUP3 DUP6 ADD PUSH2 0x109E JUMP JUMPDEST SWAP2 POP POP SWAP3 SWAP2 POP POP JUMP JUMPDEST PUSH0 DUP2 ISZERO ISZERO SWAP1 POP SWAP2 SWAP1 POP JUMP JUMPDEST PUSH2 0x10F1 DUP2 PUSH2 0x10DD JUMP JUMPDEST DUP3 MSTORE POP POP JUMP JUMPDEST PUSH0 PUSH1 0x20 DUP3 ADD SWAP1 POP PUSH2 0x110A PUSH0 DUP4 ADD DUP5 PUSH2 0x10E8 JUMP JUMPDEST SWAP3 SWAP2 POP POP JUMP JUMPDEST PUSH0 DUP2 SWAP1 POP SWAP2 SWAP1 POP JUMP JUMPDEST PUSH0 PUSH2 0x1133 PUSH2 0x112E PUSH2 0x1129 DUP5 PUSH2 0x1030 JUMP JUMPDEST PUSH2 0x1110 JUMP JUMPDEST PUSH2 0x1030 JUMP JUMPDEST SWAP1 POP SWAP2 SWAP1 POP JUMP JUMPDEST PUSH0 PUSH2 0x1144 DUP3 PUSH2 0x1119 JUMP JUMPDEST SWAP1 POP SWAP2 SWAP1 POP JUMP JUMPDEST PUSH0 PUSH2 0x1155 DUP3 PUSH2 0x113A JUMP JUMPDEST SWAP1 POP SWAP2 SWAP1 POP JUMP JUMPDEST PUSH2 0x1165 DUP2 PUSH2 0x114B JUMP JUMPDEST DUP3 MSTORE POP POP JUMP JUMPDEST PUSH0 PUSH1 0x20 DUP3 ADD SWAP1 POP PUSH2 0x117E PUSH0 DUP4 ADD DUP5 PUSH2 0x115C JUMP JUMPDEST SWAP3 SWAP2 POP POP JUMP JUMPDEST PUSH32 0x596F75206861766520616C726561647920766F74656400000000000000000000 PUSH0 DUP3 ADD MSTORE POP JUMP JUMPDEST PUSH0 PUSH2 0x11B8 PUSH1 0x16 DUP4 PUSH2 0xE1B JUMP JUMPDEST SWAP2 POP PUSH2 0x11C3 DUP3 PUSH2 0x1184 JUMP JUMPDEST PUSH1 0x20 DUP3 ADD SWAP1 POP SWAP2 SWAP1 POP JUMP JUMPDEST PUSH0 PUSH1 0x20 DUP3 ADD SWAP1 POP DUP2 DUP2 SUB PUSH0 DUP4 ADD MSTORE PUSH2 0x11E5 DUP2 PUSH2 0x11AC JUMP JUMPDEST SWAP1 POP SWAP2 SWAP1 POP JUMP JUMPDEST PUSH32 0x496E76616C69642063616E646964617465000000000000000000000000000000 PUSH0 DUP3 ADD MSTORE POP JUMP JUMPDEST PUSH0 PUSH2 0x1220 PUSH1 0x11 DUP4 PUSH2 0xE1B JUMP JUMPDEST SWAP2 POP PUSH2 0x122B DUP3 PUSH2 0x11EC JUMP JUMPDEST PUSH1 0x20 DUP3 ADD SWAP1 POP SWAP2 SWAP1 POP JUMP JUMPDEST PUSH0 PUSH1 0x20 DUP3 ADD SWAP1 POP DUP2 DUP2 SUB PUSH0 DUP4 ADD MSTORE PUSH2 0x124D DUP2 PUSH2 0x1214 JUMP JUMPDEST SWAP1 POP SWAP2 SWAP1 POP JUMP JUMPDEST PUSH0 PUSH1 0xFF DUP3 AND SWAP1 POP SWAP2 SWAP1 POP JUMP JUMPDEST PUSH2 0x1269 DUP2 PUSH2 0x1254 JUMP JUMPDEST DUP2 EQ PUSH2 0x1273 JUMPI PUSH0 PUSH0 REVERT JUMPDEST POP JUMP JUMPDEST PUSH0 DUP2 MLOAD SWAP1 POP PUSH2 0x1284 DUP2 PUSH2 0x1260 JUMP JUMPDEST SWAP3 SWAP2 POP POP JUMP JUMPDEST PUSH0 PUSH1 0x20 DUP3 DUP5 SUB SLT ISZERO PUSH2 0x129F JUMPI PUSH2 0x129E PUSH2 0xD83 JUMP JUMPDEST JUMPDEST PUSH0 PUSH2 0x12AC DUP5 DUP3 DUP6 ADD PUSH2 0x1276 JUMP JUMPDEST SWAP2 POP POP SWAP3 SWAP2 POP POP JUMP JUMPDEST PUSH32 0x4E487B7100000000000000000000000000000000000000000000000000000000 PUSH0 MSTORE PUSH1 0x11 PUSH1 0x4 MSTORE PUSH1 0x24 PUSH0 REVERT JUMPDEST PUSH0 DUP2 PUSH1 0x1 SHR SWAP1 POP SWAP2 SWAP1 POP JUMP JUMPDEST PUSH0 PUSH0 DUP3 SWAP2 POP DUP4 SWAP1 POP JUMPDEST PUSH1 0x1 DUP6 GT ISZERO PUSH2 0x1337 JUMPI DUP1 DUP7 DIV DUP2 GT ISZERO PUSH2 0x1313 JUMPI PUSH2 0x1312 PUSH2 0x12B5 JUMP JUMPDEST JUMPDEST PUSH1 0x1 DUP6 AND ISZERO PUSH2 0x1322 JUMPI DUP1 DUP3 MUL SWAP2 POP JUMPDEST DUP1 DUP2 MUL SWAP1 POP PUSH2 0x1330 DUP6 PUSH2 0x12E2 JUMP JUMPDEST SWAP5 POP PUSH2 0x12F7 JUMP JUMPDEST SWAP5 POP SWAP5 SWAP3 POP POP POP JUMP JUMPDEST PUSH0 DUP3 PUSH2 0x134F JUMPI PUSH1 0x1 SWAP1 POP PUSH2 0x140A JUMP JUMPDEST DUP2 PUSH2 0x135C JUMPI PUSH0 SWAP1 POP PUSH2 0x140A JUMP JUMPDEST DUP2 PUSH1 0x1 DUP2 EQ PUSH2 0x1372 JUMPI PUSH1 0x2 DUP2 EQ PUSH2 0x137C JUMPI PUSH2 0x13AB JUMP JUMPDEST PUSH1 0x1 SWAP2 POP POP PUSH2 0x140A JUMP JUMPDEST PUSH1 0xFF DUP5 GT ISZERO PUSH2 0x138E JUMPI PUSH2 0x138D PUSH2 0x12B5 JUMP JUMPDEST JUMPDEST DUP4 PUSH1 0x2 EXP SWAP2 POP DUP5 DUP3 GT ISZERO PUSH2 0x13A5 JUMPI PUSH2 0x13A4 PUSH2 0x12B5 JUMP JUMPDEST JUMPDEST POP PUSH2 0x140A JUMP JUMPDEST POP PUSH1 0x20 DUP4 LT PUSH2 0x133 DUP4 LT AND PUSH1 0x4E DUP5 LT PUSH1 0xB DUP5 LT AND OR ISZERO PUSH2 0x13E0 JUMPI DUP3 DUP3 EXP SWAP1 POP DUP4 DUP2 GT ISZERO PUSH2 0x13DB JUMPI PUSH2 0x13DA PUSH2 0x12B5 JUMP JUMPDEST JUMPDEST PUSH2 0x140A JUMP JUMPDEST PUSH2 0x13ED DUP5 DUP5 DUP5 PUSH1 0x1 PUSH2 0x12EE JUMP JUMPDEST SWAP3 POP SWAP1 POP DUP2 DUP5 DIV DUP2 GT ISZERO PUSH2 0x1404 JUMPI PUSH2 0x1403 PUSH2 0x12B5 JUMP JUMPDEST JUMPDEST DUP2 DUP2 MUL SWAP1 POP JUMPDEST SWAP4 SWAP3 POP POP POP JUMP JUMPDEST PUSH0 PUSH2 0x141B DUP3 PUSH2 0xD8B JUMP JUMPDEST SWAP2 POP PUSH2 0x1426 DUP4 PUSH2 0x1254 JUMP JUMPDEST SWAP3 POP PUSH2 0x1453 PUSH32 0xFFFFFFFFFFFFFFFFFFFFFFFFFFFFFFFFFFFFFFFFFFFFFFFFFFFFFFFFFFFFFFFF DUP5 DUP5 PUSH2 0x1340 JUMP JUMPDEST SWAP1 POP SWAP3 SWAP2 POP POP JUMP JUMPDEST PUSH0 PUSH2 0x1465 DUP3 PUSH2 0xD8B JUMP JUMPDEST SWAP2 POP PUSH2 0x1470 DUP4 PUSH2 0xD8B JUMP JUMPDEST SWAP3 POP DUP3 DUP3 MUL PUSH2 0x147E DUP2 PUSH2 0xD8B JUMP JUMPDEST SWAP2 POP DUP3 DUP3 DIV DUP5 EQ DUP4 ISZERO OR PUSH2 0x1495 JUMPI PUSH2 0x1494 PUSH2 0x12B5 JUMP JUMPDEST JUMPDEST POP SWAP3 SWAP2 POP POP JUMP JUMPDEST PUSH0 DUP2 MLOAD SWAP1 POP PUSH2 0x14AA DUP2 PUSH2 0xD94 JUMP JUMPDEST SWAP3 SWAP2 POP POP JUMP JUMPDEST PUSH0 PUSH1 0x20 DUP3 DUP5 SUB SLT ISZERO PUSH2 0x14C5 JUMPI PUSH2 0x14C4 PUSH2 0xD83 JUMP JUMPDEST JUMPDEST PUSH0 PUSH2 0x14D2 DUP5 DUP3 DUP6 ADD PUSH2 0x149C JUMP JUMPDEST SWAP2 POP POP SWAP3 SWAP2 POP POP JUMP JUMPDEST PUSH32 0x4E6F7420656E6F75676820746F6B656E7320746F20766F746500000000000000 PUSH0 DUP3 ADD MSTORE POP JUMP JUMPDEST PUSH0 PUSH2 0x150F PUSH1 0x19 DUP4 PUSH2 0xE1B JUMP JUMPDEST SWAP2 POP PUSH2 0x151A DUP3 PUSH2 0x14DB JUMP JUMPDEST PUSH1 0x20 DUP3 ADD SWAP1 POP SWAP2 SWAP1 POP JUMP JUMPDEST PUSH0 PUSH1 0x20 DUP3 ADD SWAP1 POP DUP2 DUP2 SUB PUSH0 DUP4 ADD MSTORE PUSH2 0x153C DUP2 PUSH2 0x1503 JUMP JUMPDEST SWAP1 POP SWAP2 SWAP1 POP JUMP JUMPDEST PUSH0 PUSH1 0x40 DUP3 ADD SWAP1 POP PUSH2 0x1556 PUSH0 DUP4 ADD DUP6 PUSH2 0x1060 JUMP JUMPDEST PUSH2 0x1563 PUSH1 0x20 DUP4 ADD DUP5 PUSH2 0x1060 JUMP JUMPDEST SWAP4 SWAP3 POP POP POP JUMP JUMPDEST PUSH32 0x417070726F766520746F6B656E73206669727374000000000000000000000000 PUSH0 DUP3 ADD MSTORE POP JUMP JUMPDEST PUSH0 PUSH2 0x159E PUSH1 0x14 DUP4 PUSH2 0xE1B JUMP JUMPDEST SWAP2 POP PUSH2 0x15A9 DUP3 PUSH2 0x156A JUMP JUMPDEST PUSH1 0x20 DUP3 ADD SWAP1 POP SWAP2 SWAP1 POP JUMP JUMPDEST PUSH0 PUSH1 0x20 DUP3 ADD SWAP1 POP DUP2 DUP2 SUB PUSH0 DUP4 ADD MSTORE PUSH2 0x15CB DUP2 PUSH2 0x1592 JUMP JUMPDEST SWAP1 POP SWAP2 SWAP1 POP JUMP JUMPDEST PUSH0 PUSH1 0x60 DUP3 ADD SWAP1 POP PUSH2 0x15E5 PUSH0 DUP4 ADD DUP7 PUSH2 0x1060 JUMP JUMPDEST PUSH2 0x15F2 PUSH1 0x20 DUP4 ADD DUP6 PUSH2 0x1060 JUMP JUMPDEST PUSH2 0x15FF PUSH1 0x40 DUP4 ADD DUP5 PUSH2 0xDE9 JUMP JUMPDEST SWAP5 SWAP4 POP POP POP POP JUMP JUMPDEST PUSH2 0x1610 DUP2 PUSH2 0x10DD JUMP JUMPDEST DUP2 EQ PUSH2 0x161A JUMPI PUSH0 PUSH0 REVERT JUMPDEST POP JUMP JUMPDEST PUSH0 DUP2 MLOAD SWAP1 POP PUSH2 0x162B DUP2 PUSH2 0x1607 JUMP JUMPDEST SWAP3 SWAP2 POP POP JUMP JUMPDEST PUSH0 PUSH1 0x20 DUP3 DUP5 SUB SLT ISZERO PUSH2 0x1646 JUMPI PUSH2 0x1645 PUSH2 0xD83 JUMP JUMPDEST JUMPDEST PUSH0 PUSH2 0x1653 DUP5 DUP3 DUP6 ADD PUSH2 0x161D JUMP JUMPDEST SWAP2 POP POP SWAP3 SWAP2 POP POP JUMP JUMPDEST PUSH32 0x5472616E73666572206661696C65640000000000000000000000000000000000 PUSH0 DUP3 ADD MSTORE POP JUMP JUMPDEST PUSH0 PUSH2 0x1690 PUSH1 0xF DUP4 PUSH2 0xE1B JUMP JUMPDEST SWAP2 POP PUSH2 0x169B DUP3 PUSH2 0x165C JUMP JUMPDEST PUSH1 0x20 DUP3 ADD SWAP1 POP SWAP2 SWAP1 POP JUMP JUMPDEST PUSH0 PUSH1 0x20 DUP3 ADD SWAP1 POP DUP2 DUP2 SUB PUSH0 DUP4 ADD MSTORE PUSH2 0x16BD DUP2 PUSH2 0x1684 JUMP JUMPDEST SWAP1 POP SWAP2 SWAP1 POP JUMP JUMPDEST PUSH0 PUSH2 0x16CE DUP3 PUSH2 0xD8B JUMP JUMPDEST SWAP2 POP PUSH2 0x16D9 DUP4 PUSH2 0xD8B JUMP JUMPDEST SWAP3 POP DUP3 DUP3 ADD SWAP1 POP DUP1 DUP3 GT ISZERO PUSH2 0x16F1 JUMPI PUSH2 0x16F0 PUSH2 0x12B5 JUMP JUMPDEST JUMPDEST SWAP3 SWAP2 POP POP JUMP JUMPDEST PUSH32 0x4E6F7420656E6F75676820746F6B656E7320696E20636F6E7472616374000000 PUSH0 DUP3 ADD MSTORE POP JUMP JUMPDEST PUSH0 PUSH2 0x172B PUSH1 0x1D DUP4 PUSH2 0xE1B JUMP JUMPDEST SWAP2 POP PUSH2 0x1736 DUP3 PUSH2 0x16F7 JUMP JUMPDEST PUSH1 0x20 DUP3 ADD SWAP1 POP SWAP2 SWAP1 POP JUMP JUMPDEST PUSH0 PUSH1 0x20 DUP3 ADD SWAP1 POP DUP2 DUP2 SUB PUSH0 DUP4 ADD MSTORE PUSH2 0x1758 DUP2 PUSH2 0x171F JUMP JUMPDEST SWAP1 POP SWAP2 SWAP1 POP JUMP JUMPDEST PUSH0 PUSH1 0x40 DUP3 ADD SWAP1 POP PUSH2 0x1772 PUSH0 DUP4 ADD DUP6 PUSH2 0x1060 JUMP JUMPDEST PUSH2 0x177F PUSH1 0x20 DUP4 ADD DUP5 PUSH2 0xDE9 JUMP JUMPDEST SWAP4 SWAP3 POP POP POP JUMP JUMPDEST PUSH32 0x4E487B7100000000000000000000000000000000000000000000000000000000 PUSH0 MSTORE PUSH1 0x22 PUSH1 0x4 MSTORE PUSH1 0x24 PUSH0 REVERT JUMPDEST PUSH0 PUSH1 0x2 DUP3 DIV SWAP1 POP PUSH1 0x1 DUP3 AND DUP1 PUSH2 0x17CA JUMPI PUSH1 0x7F DUP3 AND SWAP2 POP JUMPDEST PUSH1 0x20 DUP3 LT DUP2 SUB PUSH2 0x17DD JUMPI PUSH2 0x17DC PUSH2 0x1786 JUMP JUMPDEST JUMPDEST POP SWAP2 SWAP1 POP JUMP JUMPDEST PUSH0 PUSH2 0x17ED DUP3 PUSH2 0xD8B JUMP JUMPDEST SWAP2 POP PUSH32 0xFFFFFFFFFFFFFFFFFFFFFFFFFFFFFFFFFFFFFFFFFFFFFFFFFFFFFFFFFFFFFFFF DUP3 SUB PUSH2 0x181F JUMPI PUSH2 0x181E PUSH2 0x12B5 JUMP JUMPDEST JUMPDEST PUSH1 0x1 DUP3 ADD SWAP1 POP SWAP2 SWAP1 POP JUMP JUMPDEST PUSH0 DUP2 SWAP1 POP DUP2 PUSH0 MSTORE PUSH1 0x20 PUSH0 KECCAK256 SWAP1 POP SWAP2 SWAP1 POP JUMP JUMPDEST PUSH0 PUSH1 0x20 PUSH1 0x1F DUP4 ADD DIV SWAP1 POP SWAP2 SWAP1 POP JUMP JUMPDEST PUSH0 DUP3 DUP3 SHL SWAP1 POP SWAP3 SWAP2 POP POP JUMP JUMPDEST PUSH0 PUSH1 0x8 DUP4 MUL PUSH2 0x1886 PUSH32 0xFFFFFFFFFFFFFFFFFFFFFFFFFFFFFFFFFFFFFFFFFFFFFFFFFFFFFFFFFFFFFFFF DUP3 PUSH2 0x184B JUMP JUMPDEST PUSH2 0x1890 DUP7 DUP4 PUSH2 0x184B JUMP JUMPDEST SWAP6 POP DUP1 NOT DUP5 AND SWAP4 POP DUP1 DUP7 AND DUP5 OR SWAP3 POP POP POP SWAP4 SWAP3 POP POP POP JUMP JUMPDEST PUSH0 PUSH2 0x18C2 PUSH2 0x18BD PUSH2 0x18B8 DUP5 PUSH2 0xD8B JUMP JUMPDEST PUSH2 0x1110 JUMP JUMPDEST PUSH2 0xD8B JUMP JUMPDEST SWAP1 POP SWAP2 SWAP1 POP JUMP JUMPDEST PUSH0 DUP2 SWAP1 POP SWAP2 SWAP1 POP JUMP JUMPDEST PUSH2 0x18DB DUP4 PUSH2 0x18A8 JUMP JUMPDEST PUSH2 0x18EF PUSH2 0x18E7 DUP3 PUSH2 0x18C9 JUMP JUMPDEST DUP5 DUP5 SLOAD PUSH2 0x1857 JUMP JUMPDEST DUP3 SSTORE POP POP POP POP JUMP JUMPDEST PUSH0 PUSH0 SWAP1 POP SWAP1 JUMP JUMPDEST PUSH2 0x1906 PUSH2 0x18F7 JUMP JUMPDEST PUSH2 0x1911 DUP2 DUP5 DUP5 PUSH2 0x18D2 JUMP JUMPDEST POP POP POP JUMP JUMPDEST JUMPDEST DUP2 DUP2 LT ISZERO PUSH2 0x1934 JUMPI PUSH2 0x1929 PUSH0 DUP3 PUSH2 0x18FE JUMP JUMPDEST PUSH1 0x1 DUP2 ADD SWAP1 POP PUSH2 0x1917 JUMP JUMPDEST POP POP JUMP JUMPDEST PUSH1 0x1F DUP3 GT ISZERO PUSH2 0x1979 JUMPI PUSH2 0x194A DUP2 PUSH2 0x182A JUMP JUMPDEST PUSH2 0x1953 DUP5 PUSH2 0x183C JUMP JUMPDEST DUP2 ADD PUSH1 0x20 DUP6 LT ISZERO PUSH2 0x1962 JUMPI DUP2 SWAP1 POP JUMPDEST PUSH2 0x1976 PUSH2 0x196E DUP6 PUSH2 0x183C JUMP JUMPDEST DUP4 ADD DUP3 PUSH2 0x1916 JUMP JUMPDEST POP POP JUMPDEST POP POP POP JUMP JUMPDEST PUSH0 DUP3 DUP3 SHR SWAP1 POP SWAP3 SWAP2 POP POP JUMP JUMPDEST PUSH0 PUSH2 0x1999 PUSH0 NOT DUP5 PUSH1 0x8 MUL PUSH2 0x197E JUMP JUMPDEST NOT DUP1 DUP4 AND SWAP2 POP POP SWAP3 SWAP2 POP POP JUMP JUMPDEST PUSH0 PUSH2 0x19B1 DUP4 DUP4 PUSH2 0x198A JUMP JUMPDEST SWAP2 POP DUP3 PUSH1 0x2 MUL DUP3 OR SWAP1 POP SWAP3 SWAP2 POP POP JUMP JUMPDEST PUSH2 0x19CA DUP3 PUSH2 0xE11 JUMP JUMPDEST PUSH8 0xFFFFFFFFFFFFFFFF DUP2 GT ISZERO PUSH2 0x19E3 JUMPI PUSH2 0x19E2 PUSH2 0xEC5 JUMP JUMPDEST JUMPDEST PUSH2 0x19ED DUP3 SLOAD PUSH2 0x17B3 JUMP JUMPDEST PUSH2 0x19F8 DUP3 DUP3 DUP6 PUSH2 0x1938 JUMP JUMPDEST PUSH0 PUSH1 0x20 SWAP1 POP PUSH1 0x1F DUP4 GT PUSH1 0x1 DUP2 EQ PUSH2 0x1A29 JUMPI PUSH0 DUP5 ISZERO PUSH2 0x1A17 JUMPI DUP3 DUP8 ADD MLOAD SWAP1 POP JUMPDEST PUSH2 0x1A21 DUP6 DUP3 PUSH2 0x19A6 JUMP JUMPDEST DUP7 SSTORE POP PUSH2 0x1A88 JUMP JUMPDEST PUSH1 0x1F NOT DUP5 AND PUSH2 0x1A37 DUP7 PUSH2 0x182A JUMP JUMPDEST PUSH0 JUMPDEST DUP3 DUP2 LT ISZERO PUSH2 0x1A5E JUMPI DUP5 DUP10 ADD MLOAD DUP3 SSTORE PUSH1 0x1 DUP3 ADD SWAP2 POP PUSH1 0x20 DUP6 ADD SWAP5 POP PUSH1 0x20 DUP2 ADD SWAP1 POP PUSH2 0x1A39 JUMP JUMPDEST DUP7 DUP4 LT ISZERO PUSH2 0x1A7B JUMPI DUP5 DUP10 ADD MLOAD PUSH2 0x1A77 PUSH1 0x1F DUP10 AND DUP3 PUSH2 0x198A JUMP JUMPDEST DUP4 SSTORE POP JUMPDEST PUSH1 0x1 PUSH1 0x2 DUP9 MUL ADD DUP9 SSTORE POP POP POP JUMPDEST POP POP POP POP POP POP JUMP INVALID LOG2 PUSH5 0x6970667358 0x22 SLT KECCAK256 DUP9 DUP2 RJUMPI 0x19E4 0xCE SLT PUSH21 0x8622E6CCC255CA82C19E64587AC06CBB2AA615464B 0xD3 RETURNCONTRACT 0xB7 PUSH5 0x736F6C6343 STOP ADDMOD 0x1E STOP CALLER "
				},
				"gasEstimates": {
					"creation": {
						"codeDepositCost": "1370800",
						"executionCost": "infinite",
						"totalCost": "infinite"
					},
					"external": {
						"addCandidate(string)": "infinite",
						"candidates(uint256)": "infinite",
						"candidatesCount()": "2448",
						"getCandidate(uint256)": "infinite",
						"owner()": "2558",
						"renounceOwnership()": "infinite",
						"transferOwnership(address)": "infinite",
						"vote(uint256)": "infinite",
						"voters(address)": "2899",
						"votingToken()": "infinite",
						"withdrawTokens(uint256)": "infinite"
					},
					"internal": {
						"_addCandidate(string memory)": "infinite"
					}
				},
				"methodIdentifiers": {
					"addCandidate(string)": "462e91ec",
					"candidates(uint256)": "3477ee2e",
					"candidatesCount()": "2d35a8a2",
					"getCandidate(uint256)": "35b8e820",
					"owner()": "8da5cb5b",
					"renounceOwnership()": "715018a6",
					"transferOwnership(address)": "f2fde38b",
					"vote(uint256)": "0121b93f",
					"voters(address)": "a3ec138d",
					"votingToken()": "b0340123",
					"withdrawTokens(uint256)": "315a095d"
				}
			},
			"storageLayout": {
				"storage": [
					{
						"astId": 8,
						"contract": "contract-45ea2eace7.sol:Voting",
						"label": "_owner",
						"offset": 0,
						"slot": "0",
						"type": "t_address"
					},
					{
						"astId": 1231,
						"contract": "contract-45ea2eace7.sol:Voting",
						"label": "votingToken",
						"offset": 0,
						"slot": "1",
						"type": "t_contract(VotingToken)1219"
					},
					{
						"astId": 1236,
						"contract": "contract-45ea2eace7.sol:Voting",
						"label": "candidates",
						"offset": 0,
						"slot": "2",
						"type": "t_mapping(t_uint256,t_struct(Candidate)1228_storage)"
					},
					{
						"astId": 1240,
						"contract": "contract-45ea2eace7.sol:Voting",
						"label": "voters",
						"offset": 0,
						"slot": "3",
						"type": "t_mapping(t_address,t_bool)"
					},
					{
						"astId": 1242,
						"contract": "contract-45ea2eace7.sol:Voting",
						"label": "candidatesCount",
						"offset": 0,
						"slot": "4",
						"type": "t_uint256"
					}
				],
				"types": {
					"t_address": {
						"encoding": "inplace",
						"label": "address",
						"numberOfBytes": "20"
					},
					"t_bool": {
						"encoding": "inplace",
						"label": "bool",
						"numberOfBytes": "1"
					},
					"t_contract(VotingToken)1219": {
						"encoding": "inplace",
						"label": "contract VotingToken",
						"numberOfBytes": "20"
					},
					"t_mapping(t_address,t_bool)": {
						"encoding": "mapping",
						"key": "t_address",
						"label": "mapping(address => bool)",
						"numberOfBytes": "32",
						"value": "t_bool"
					},
					"t_mapping(t_uint256,t_struct(Candidate)1228_storage)": {
						"encoding": "mapping",
						"key": "t_uint256",
						"label": "mapping(uint256 => struct Voting.Candidate)",
						"numberOfBytes": "32",
						"value": "t_struct(Candidate)1228_storage"
					},
					"t_string_storage": {
						"encoding": "bytes",
						"label": "string",
						"numberOfBytes": "32"
					},
					"t_struct(Candidate)1228_storage": {
						"encoding": "inplace",
						"label": "struct Voting.Candidate",
						"members": [
							{
								"astId": 1223,
								"contract": "contract-45ea2eace7.sol:Voting",
								"label": "id",
								"offset": 0,
								"slot": "0",
								"type": "t_uint256"
							},
							{
								"astId": 1225,
								"contract": "contract-45ea2eace7.sol:Voting",
								"label": "name",
								"offset": 0,
								"slot": "1",
								"type": "t_string_storage"
							},
							{
								"astId": 1227,
								"contract": "contract-45ea2eace7.sol:Voting",
								"label": "voteCount",
								"offset": 0,
								"slot": "2",
								"type": "t_uint256"
							}
						],
						"numberOfBytes": "96"
					},
					"t_uint256": {
						"encoding": "inplace",
						"label": "uint256",
						"numberOfBytes": "32"
					}
				}
			},
			"userdoc": {
				"kind": "user",
				"methods": {},
				"version": 1
			}
		}
	}
}